{"abi":[{"inputs":[{"components":[{"internalType":"string","name":"name","type":"string"},{"internalType":"uint256","name":"price","type":"uint256"}],"internalType":"struct Manufacturer.Product[]","name":"_incomingProducts","type":"tuple[]"},{"internalType":"string","name":"_HashingString","type":"string"}],"stateMutability":"nonpayable","type":"constructor"},{"inputs":[{"internalType":"string","name":"_product","type":"string"}],"name":"buyProductFromManufacturer","outputs":[],"stateMutability":"payable","type":"function"},{"inputs":[{"internalType":"string","name":"_productName","type":"string"},{"internalType":"address","name":"_oldOwner","type":"address"},{"internalType":"address","name":"_newOwner","type":"address"}],"name":"changeProductOwner","outputs":[],"stateMutability":"nonpayable","type":"function"},{"inputs":[],"name":"getRetailStores","outputs":[{"internalType":"contract RetailStore[]","name":"","type":"address[]"}],"stateMutability":"view","type":"function"},{"inputs":[],"name":"manufacturer","outputs":[{"internalType":"address","name":"","type":"address"}],"stateMutability":"view","type":"function"},{"inputs":[],"name":"newRetailStore","outputs":[],"stateMutability":"nonpayable","type":"function"},{"inputs":[{"internalType":"string","name":"name","type":"string"}],"name":"productHash","outputs":[{"internalType":"bytes32","name":"","type":"bytes32"}],"stateMutability":"view","type":"function"},{"inputs":[{"internalType":"bytes32","name":"","type":"bytes32"}],"name":"products","outputs":[{"internalType":"string","name":"name","type":"string"},{"internalType":"uint256","name":"price","type":"uint256"}],"stateMutability":"view","type":"function"},{"inputs":[{"internalType":"string","name":"productName","type":"string"}],"name":"viewOwner","outputs":[{"internalType":"address","name":"","type":"address"}],"stateMutability":"view","type":"function"},{"inputs":[{"internalType":"string","name":"_productName","type":"string"}],"name":"viewProductPrice","outputs":[{"internalType":"uint256","name":"","type":"uint256"}],"stateMutability":"view","type":"function"}],"devdoc":{"kind":"dev","methods":{},"version":1},"evm":{"assembly":"    /* \"Manufacturer.sol\":65:2464  contract Manufacturer {... */\n  mstore(0x40, 0x80)\n    /* \"Manufacturer.sol\":609:1009  constructor(... */\n  callvalue\n  dup1\n  iszero\n  tag_1\n  jumpi\n  0x00\n  dup1\n  revert\ntag_1:\n  pop\n  mload(0x40)\n  sub(codesize, bytecodeSize)\n  dup1\n  bytecodeSize\n  dup4\n  codecopy\n  dup2\n  dup2\n  add\n  0x40\n  mstore\n  dup2\n  add\n  swap1\n  tag_2\n  swap2\n  swap1\n  tag_3\n  jump\t// in\ntag_2:\n    /* \"Manufacturer.sol\":738:748  msg.sender */\n  caller\n    /* \"Manufacturer.sol\":723:735  manufacturer */\n  0x00\n  dup1\n    /* \"Manufacturer.sol\":723:748  manufacturer = msg.sender */\n  0x0100\n  exp\n  dup2\n  sload\n  dup2\n  0xffffffffffffffffffffffffffffffffffffffff\n  mul\n  not\n  and\n  swap1\n  dup4\n  0xffffffffffffffffffffffffffffffffffffffff\n  and\n  mul\n  or\n  swap1\n  sstore\n  pop\n    /* \"Manufacturer.sol\":778:792  _HashingString */\n  dup1\n    /* \"Manufacturer.sol\":759:775  stringForHashing */\n  0x01\n    /* \"Manufacturer.sol\":759:792  stringForHashing = _HashingString */\n  swap1\n  dup1\n  mload\n  swap1\n  0x20\n  add\n  swap1\n  tag_6\n  swap3\n  swap2\n  swap1\n  tag_7\n  jump\t// in\ntag_6:\n  pop\n    /* \"Manufacturer.sol\":808:817  uint256 i */\n  0x00\n    /* \"Manufacturer.sol\":803:1002  for (uint256 i = 0; i < _incomingProducts.length; i++) {... */\ntag_8:\n    /* \"Manufacturer.sol\":827:844  _incomingProducts */\n  dup3\n    /* \"Manufacturer.sol\":827:851  _incomingProducts.length */\n  mload\n    /* \"Manufacturer.sol\":823:824  i */\n  dup2\n    /* \"Manufacturer.sol\":823:851  i < _incomingProducts.length */\n  lt\n    /* \"Manufacturer.sol\":803:1002  for (uint256 i = 0; i < _incomingProducts.length; i++) {... */\n  iszero\n  tag_9\n  jumpi\n    /* \"Manufacturer.sol\":873:891  bytes32 hashedName */\n  0x00\n    /* \"Manufacturer.sol\":894:932  productHash(_incomingProducts[i].name) */\n  tag_11\n    /* \"Manufacturer.sol\":906:923  _incomingProducts */\n  dup5\n    /* \"Manufacturer.sol\":924:925  i */\n  dup4\n    /* \"Manufacturer.sol\":906:926  _incomingProducts[i] */\n  dup2\n  mload\n  dup2\n  lt\n  tag_12\n  jumpi\n  tag_13\n  tag_14\n  jump\t// in\ntag_13:\ntag_12:\n  0x20\n  mul\n  0x20\n  add\n  add\n  mload\n    /* \"Manufacturer.sol\":906:931  _incomingProducts[i].name */\n  0x00\n  add\n  mload\n    /* \"Manufacturer.sol\":894:905  productHash */\n  shl(0x20, tag_15)\n    /* \"Manufacturer.sol\":894:932  productHash(_incomingProducts[i].name) */\n  0x20\n  shr\n  jump\t// in\ntag_11:\n    /* \"Manufacturer.sol\":873:932  bytes32 hashedName = productHash(_incomingProducts[i].name) */\n  swap1\n  pop\n    /* \"Manufacturer.sol\":970:987  _incomingProducts */\n  dup4\n    /* \"Manufacturer.sol\":988:989  i */\n  dup3\n    /* \"Manufacturer.sol\":970:990  _incomingProducts[i] */\n  dup2\n  mload\n  dup2\n  lt\n  tag_16\n  jumpi\n  tag_17\n  tag_14\n  jump\t// in\ntag_17:\ntag_16:\n  0x20\n  mul\n  0x20\n  add\n  add\n  mload\n    /* \"Manufacturer.sol\":947:955  products */\n  0x03\n    /* \"Manufacturer.sol\":947:967  products[hashedName] */\n  0x00\n    /* \"Manufacturer.sol\":956:966  hashedName */\n  dup4\n    /* \"Manufacturer.sol\":947:967  products[hashedName] */\n  dup2\n  mstore\n  0x20\n  add\n  swap1\n  dup2\n  mstore\n  0x20\n  add\n  0x00\n  keccak256\n    /* \"Manufacturer.sol\":947:990  products[hashedName] = _incomingProducts[i] */\n  0x00\n  dup3\n  add\n  mload\n  dup2\n  0x00\n  add\n  swap1\n  dup1\n  mload\n  swap1\n  0x20\n  add\n  swap1\n  tag_18\n  swap3\n  swap2\n  swap1\n  tag_7\n  jump\t// in\ntag_18:\n  pop\n  0x20\n  dup3\n  add\n  mload\n  dup2\n  0x01\n  add\n  sstore\n  swap1\n  pop\n  pop\n    /* \"Manufacturer.sol\":858:1002  {... */\n  pop\n    /* \"Manufacturer.sol\":853:856  i++ */\n  dup1\n  dup1\n  tag_19\n  swap1\n  tag_20\n  jump\t// in\ntag_19:\n  swap2\n  pop\n  pop\n    /* \"Manufacturer.sol\":803:1002  for (uint256 i = 0; i < _incomingProducts.length; i++) {... */\n  jump(tag_8)\ntag_9:\n  pop\n    /* \"Manufacturer.sol\":609:1009  constructor(... */\n  pop\n  pop\n    /* \"Manufacturer.sol\":65:2464  contract Manufacturer {... */\n  jump(tag_21)\n    /* \"Manufacturer.sol\":410:552  function productHash(string memory name) public view returns (bytes32) {... */\ntag_15:\n    /* \"Manufacturer.sol\":472:479  bytes32 */\n  0x00\n    /* \"Manufacturer.sol\":520:524  name */\n  dup2\n    /* \"Manufacturer.sol\":526:542  stringForHashing */\n  0x01\n    /* \"Manufacturer.sol\":509:543  abi.encode(name, stringForHashing) */\n  add(0x20, mload(0x40))\n  tag_23\n  swap3\n  swap2\n  swap1\n  tag_24\n  jump\t// in\ntag_23:\n  mload(0x40)\n  0x20\n  dup2\n  dup4\n  sub\n  sub\n  dup2\n  mstore\n  swap1\n  0x40\n  mstore\n    /* \"Manufacturer.sol\":499:544  keccak256(abi.encode(name, stringForHashing)) */\n  dup1\n  mload\n  swap1\n  0x20\n  add\n  keccak256\n    /* \"Manufacturer.sol\":492:544  return keccak256(abi.encode(name, stringForHashing)) */\n  swap1\n  pop\n    /* \"Manufacturer.sol\":410:552  function productHash(string memory name) public view returns (bytes32) {... */\n  swap2\n  swap1\n  pop\n  jump\t// out\n    /* \"Manufacturer.sol\":65:2464  contract Manufacturer {... */\ntag_7:\n  dup3\n  dup1\n  sload\n  tag_25\n  swap1\n  tag_26\n  jump\t// in\ntag_25:\n  swap1\n  0x00\n  mstore\n  keccak256(0x00, 0x20)\n  swap1\n  0x1f\n  add\n  0x20\n  swap1\n  div\n  dup2\n  add\n  swap3\n  dup3\n  tag_28\n  jumpi\n  0x00\n  dup6\n  sstore\n  jump(tag_27)\ntag_28:\n  dup3\n  0x1f\n  lt\n  tag_29\n  jumpi\n  dup1\n  mload\n  not(0xff)\n  and\n  dup4\n  dup1\n  add\n  or\n  dup6\n  sstore\n  jump(tag_27)\ntag_29:\n  dup3\n  dup1\n  add\n  0x01\n  add\n  dup6\n  sstore\n  dup3\n  iszero\n  tag_27\n  jumpi\n  swap2\n  dup3\n  add\ntag_30:\n  dup3\n  dup2\n  gt\n  iszero\n  tag_31\n  jumpi\n  dup3\n  mload\n  dup3\n  sstore\n  swap2\n  0x20\n  add\n  swap2\n  swap1\n  0x01\n  add\n  swap1\n  jump(tag_30)\ntag_31:\ntag_27:\n  pop\n  swap1\n  pop\n  tag_32\n  swap2\n  swap1\n  tag_33\n  jump\t// in\ntag_32:\n  pop\n  swap1\n  jump\t// out\ntag_33:\ntag_34:\n  dup1\n  dup3\n  gt\n  iszero\n  tag_35\n  jumpi\n  0x00\n  dup2\n  0x00\n  swap1\n  sstore\n  pop\n  0x01\n  add\n  jump(tag_34)\ntag_35:\n  pop\n  swap1\n  jump\t// out\n    /* \"#utility.yul\":7:82   */\ntag_36:\n    /* \"#utility.yul\":40:46   */\n  0x00\n    /* \"#utility.yul\":73:75   */\n  0x40\n    /* \"#utility.yul\":67:76   */\n  mload\n    /* \"#utility.yul\":57:76   */\n  swap1\n  pop\n    /* \"#utility.yul\":7:82   */\n  swap1\n  jump\t// out\n    /* \"#utility.yul\":88:205   */\ntag_37:\n    /* \"#utility.yul\":197:198   */\n  0x00\n    /* \"#utility.yul\":194:195   */\n  dup1\n    /* \"#utility.yul\":187:199   */\n  revert\n    /* \"#utility.yul\":211:328   */\ntag_38:\n    /* \"#utility.yul\":320:321   */\n  0x00\n    /* \"#utility.yul\":317:318   */\n  dup1\n    /* \"#utility.yul\":310:322   */\n  revert\n    /* \"#utility.yul\":334:451   */\ntag_39:\n    /* \"#utility.yul\":443:444   */\n  0x00\n    /* \"#utility.yul\":440:441   */\n  dup1\n    /* \"#utility.yul\":433:445   */\n  revert\n    /* \"#utility.yul\":457:559   */\ntag_40:\n    /* \"#utility.yul\":498:504   */\n  0x00\n    /* \"#utility.yul\":549:551   */\n  0x1f\n    /* \"#utility.yul\":545:552   */\n  not\n    /* \"#utility.yul\":540:542   */\n  0x1f\n    /* \"#utility.yul\":533:538   */\n  dup4\n    /* \"#utility.yul\":529:543   */\n  add\n    /* \"#utility.yul\":525:553   */\n  and\n    /* \"#utility.yul\":515:553   */\n  swap1\n  pop\n    /* \"#utility.yul\":457:559   */\n  swap2\n  swap1\n  pop\n  jump\t// out\n    /* \"#utility.yul\":565:745   */\ntag_41:\n    /* \"#utility.yul\":613:690   */\n  0x4e487b7100000000000000000000000000000000000000000000000000000000\n    /* \"#utility.yul\":610:611   */\n  0x00\n    /* \"#utility.yul\":603:691   */\n  mstore\n    /* \"#utility.yul\":710:714   */\n  0x41\n    /* \"#utility.yul\":707:708   */\n  0x04\n    /* \"#utility.yul\":700:715   */\n  mstore\n    /* \"#utility.yul\":734:738   */\n  0x24\n    /* \"#utility.yul\":731:732   */\n  0x00\n    /* \"#utility.yul\":724:739   */\n  revert\n    /* \"#utility.yul\":751:1032   */\ntag_42:\n    /* \"#utility.yul\":834:861   */\n  tag_74\n    /* \"#utility.yul\":856:860   */\n  dup3\n    /* \"#utility.yul\":834:861   */\n  tag_40\n  jump\t// in\ntag_74:\n    /* \"#utility.yul\":826:832   */\n  dup2\n    /* \"#utility.yul\":822:862   */\n  add\n    /* \"#utility.yul\":964:970   */\n  dup2\n    /* \"#utility.yul\":952:962   */\n  dup2\n    /* \"#utility.yul\":949:971   */\n  lt\n    /* \"#utility.yul\":928:946   */\n  0xffffffffffffffff\n    /* \"#utility.yul\":916:926   */\n  dup3\n    /* \"#utility.yul\":913:947   */\n  gt\n    /* \"#utility.yul\":910:972   */\n  or\n    /* \"#utility.yul\":907:995   */\n  iszero\n  tag_75\n  jumpi\n    /* \"#utility.yul\":975:993   */\n  tag_76\n  tag_41\n  jump\t// in\ntag_76:\n    /* \"#utility.yul\":907:995   */\ntag_75:\n    /* \"#utility.yul\":1015:1025   */\n  dup1\n    /* \"#utility.yul\":1011:1013   */\n  0x40\n    /* \"#utility.yul\":1004:1026   */\n  mstore\n    /* \"#utility.yul\":794:1032   */\n  pop\n    /* \"#utility.yul\":751:1032   */\n  pop\n  pop\n  jump\t// out\n    /* \"#utility.yul\":1038:1167   */\ntag_43:\n    /* \"#utility.yul\":1072:1078   */\n  0x00\n    /* \"#utility.yul\":1099:1119   */\n  tag_78\n  tag_36\n  jump\t// in\ntag_78:\n    /* \"#utility.yul\":1089:1119   */\n  swap1\n  pop\n    /* \"#utility.yul\":1128:1161   */\n  tag_79\n    /* \"#utility.yul\":1156:1160   */\n  dup3\n    /* \"#utility.yul\":1148:1154   */\n  dup3\n    /* \"#utility.yul\":1128:1161   */\n  tag_42\n  jump\t// in\ntag_79:\n    /* \"#utility.yul\":1038:1167   */\n  swap2\n  swap1\n  pop\n  jump\t// out\n    /* \"#utility.yul\":1173:1507   */\ntag_44:\n    /* \"#utility.yul\":1273:1277   */\n  0x00\n    /* \"#utility.yul\":1363:1381   */\n  0xffffffffffffffff\n    /* \"#utility.yul\":1355:1361   */\n  dup3\n    /* \"#utility.yul\":1352:1382   */\n  gt\n    /* \"#utility.yul\":1349:1405   */\n  iszero\n  tag_81\n  jumpi\n    /* \"#utility.yul\":1385:1403   */\n  tag_82\n  tag_41\n  jump\t// in\ntag_82:\n    /* \"#utility.yul\":1349:1405   */\ntag_81:\n    /* \"#utility.yul\":1435:1439   */\n  0x20\n    /* \"#utility.yul\":1427:1433   */\n  dup3\n    /* \"#utility.yul\":1423:1440   */\n  mul\n    /* \"#utility.yul\":1415:1440   */\n  swap1\n  pop\n    /* \"#utility.yul\":1495:1499   */\n  0x20\n    /* \"#utility.yul\":1489:1493   */\n  dup2\n    /* \"#utility.yul\":1485:1500   */\n  add\n    /* \"#utility.yul\":1477:1500   */\n  swap1\n  pop\n    /* \"#utility.yul\":1173:1507   */\n  swap2\n  swap1\n  pop\n  jump\t// out\n    /* \"#utility.yul\":1513:1630   */\ntag_45:\n    /* \"#utility.yul\":1622:1623   */\n  0x00\n    /* \"#utility.yul\":1619:1620   */\n  dup1\n    /* \"#utility.yul\":1612:1624   */\n  revert\n    /* \"#utility.yul\":1636:1753   */\ntag_46:\n    /* \"#utility.yul\":1745:1746   */\n  0x00\n    /* \"#utility.yul\":1742:1743   */\n  dup1\n    /* \"#utility.yul\":1735:1747   */\n  revert\n    /* \"#utility.yul\":1759:1876   */\ntag_47:\n    /* \"#utility.yul\":1868:1869   */\n  0x00\n    /* \"#utility.yul\":1865:1866   */\n  dup1\n    /* \"#utility.yul\":1858:1870   */\n  revert\n    /* \"#utility.yul\":1882:1999   */\ntag_48:\n    /* \"#utility.yul\":1991:1992   */\n  0x00\n    /* \"#utility.yul\":1988:1989   */\n  dup1\n    /* \"#utility.yul\":1981:1993   */\n  revert\n    /* \"#utility.yul\":2005:2313   */\ntag_49:\n    /* \"#utility.yul\":2067:2071   */\n  0x00\n    /* \"#utility.yul\":2157:2175   */\n  0xffffffffffffffff\n    /* \"#utility.yul\":2149:2155   */\n  dup3\n    /* \"#utility.yul\":2146:2176   */\n  gt\n    /* \"#utility.yul\":2143:2199   */\n  iszero\n  tag_88\n  jumpi\n    /* \"#utility.yul\":2179:2197   */\n  tag_89\n  tag_41\n  jump\t// in\ntag_89:\n    /* \"#utility.yul\":2143:2199   */\ntag_88:\n    /* \"#utility.yul\":2217:2246   */\n  tag_90\n    /* \"#utility.yul\":2239:2245   */\n  dup3\n    /* \"#utility.yul\":2217:2246   */\n  tag_40\n  jump\t// in\ntag_90:\n    /* \"#utility.yul\":2209:2246   */\n  swap1\n  pop\n    /* \"#utility.yul\":2301:2305   */\n  0x20\n    /* \"#utility.yul\":2295:2299   */\n  dup2\n    /* \"#utility.yul\":2291:2306   */\n  add\n    /* \"#utility.yul\":2283:2306   */\n  swap1\n  pop\n    /* \"#utility.yul\":2005:2313   */\n  swap2\n  swap1\n  pop\n  jump\t// out\n    /* \"#utility.yul\":2319:2626   */\ntag_50:\n    /* \"#utility.yul\":2387:2388   */\n  0x00\n    /* \"#utility.yul\":2397:2510   */\ntag_92:\n    /* \"#utility.yul\":2411:2417   */\n  dup4\n    /* \"#utility.yul\":2408:2409   */\n  dup2\n    /* \"#utility.yul\":2405:2418   */\n  lt\n    /* \"#utility.yul\":2397:2510   */\n  iszero\n  tag_94\n  jumpi\n    /* \"#utility.yul\":2496:2497   */\n  dup1\n    /* \"#utility.yul\":2491:2494   */\n  dup3\n    /* \"#utility.yul\":2487:2498   */\n  add\n    /* \"#utility.yul\":2481:2499   */\n  mload\n    /* \"#utility.yul\":2477:2478   */\n  dup2\n    /* \"#utility.yul\":2472:2475   */\n  dup5\n    /* \"#utility.yul\":2468:2479   */\n  add\n    /* \"#utility.yul\":2461:2500   */\n  mstore\n    /* \"#utility.yul\":2433:2435   */\n  0x20\n    /* \"#utility.yul\":2430:2431   */\n  dup2\n    /* \"#utility.yul\":2426:2436   */\n  add\n    /* \"#utility.yul\":2421:2436   */\n  swap1\n  pop\n    /* \"#utility.yul\":2397:2510   */\n  jump(tag_92)\ntag_94:\n    /* \"#utility.yul\":2528:2534   */\n  dup4\n    /* \"#utility.yul\":2525:2526   */\n  dup2\n    /* \"#utility.yul\":2522:2535   */\n  gt\n    /* \"#utility.yul\":2519:2620   */\n  iszero\n  tag_95\n  jumpi\n    /* \"#utility.yul\":2608:2609   */\n  0x00\n    /* \"#utility.yul\":2599:2605   */\n  dup5\n    /* \"#utility.yul\":2594:2597   */\n  dup5\n    /* \"#utility.yul\":2590:2606   */\n  add\n    /* \"#utility.yul\":2583:2610   */\n  mstore\n    /* \"#utility.yul\":2519:2620   */\ntag_95:\n    /* \"#utility.yul\":2368:2626   */\n  pop\n    /* \"#utility.yul\":2319:2626   */\n  pop\n  pop\n  pop\n  jump\t// out\n    /* \"#utility.yul\":2632:3053   */\ntag_51:\n    /* \"#utility.yul\":2721:2726   */\n  0x00\n    /* \"#utility.yul\":2746:2812   */\n  tag_97\n    /* \"#utility.yul\":2762:2811   */\n  tag_98\n    /* \"#utility.yul\":2804:2810   */\n  dup5\n    /* \"#utility.yul\":2762:2811   */\n  tag_49\n  jump\t// in\ntag_98:\n    /* \"#utility.yul\":2746:2812   */\n  tag_43\n  jump\t// in\ntag_97:\n    /* \"#utility.yul\":2737:2812   */\n  swap1\n  pop\n    /* \"#utility.yul\":2835:2841   */\n  dup3\n    /* \"#utility.yul\":2828:2833   */\n  dup2\n    /* \"#utility.yul\":2821:2842   */\n  mstore\n    /* \"#utility.yul\":2873:2877   */\n  0x20\n    /* \"#utility.yul\":2866:2871   */\n  dup2\n    /* \"#utility.yul\":2862:2878   */\n  add\n    /* \"#utility.yul\":2911:2914   */\n  dup5\n    /* \"#utility.yul\":2902:2908   */\n  dup5\n    /* \"#utility.yul\":2897:2900   */\n  dup5\n    /* \"#utility.yul\":2893:2909   */\n  add\n    /* \"#utility.yul\":2890:2915   */\n  gt\n    /* \"#utility.yul\":2887:2999   */\n  iszero\n  tag_99\n  jumpi\n    /* \"#utility.yul\":2918:2997   */\n  tag_100\n  tag_48\n  jump\t// in\ntag_100:\n    /* \"#utility.yul\":2887:2999   */\ntag_99:\n    /* \"#utility.yul\":3008:3047   */\n  tag_101\n    /* \"#utility.yul\":3040:3046   */\n  dup5\n    /* \"#utility.yul\":3035:3038   */\n  dup3\n    /* \"#utility.yul\":3030:3033   */\n  dup6\n    /* \"#utility.yul\":3008:3047   */\n  tag_50\n  jump\t// in\ntag_101:\n    /* \"#utility.yul\":2727:3053   */\n  pop\n    /* \"#utility.yul\":2632:3053   */\n  swap4\n  swap3\n  pop\n  pop\n  pop\n  jump\t// out\n    /* \"#utility.yul\":3073:3428   */\ntag_52:\n    /* \"#utility.yul\":3140:3145   */\n  0x00\n    /* \"#utility.yul\":3189:3192   */\n  dup3\n    /* \"#utility.yul\":3182:3186   */\n  0x1f\n    /* \"#utility.yul\":3174:3180   */\n  dup4\n    /* \"#utility.yul\":3170:3187   */\n  add\n    /* \"#utility.yul\":3166:3193   */\n  slt\n    /* \"#utility.yul\":3156:3278   */\n  tag_103\n  jumpi\n    /* \"#utility.yul\":3197:3276   */\n  tag_104\n  tag_39\n  jump\t// in\ntag_104:\n    /* \"#utility.yul\":3156:3278   */\ntag_103:\n    /* \"#utility.yul\":3307:3313   */\n  dup2\n    /* \"#utility.yul\":3301:3314   */\n  mload\n    /* \"#utility.yul\":3332:3422   */\n  tag_105\n    /* \"#utility.yul\":3418:3421   */\n  dup5\n    /* \"#utility.yul\":3410:3416   */\n  dup3\n    /* \"#utility.yul\":3403:3407   */\n  0x20\n    /* \"#utility.yul\":3395:3401   */\n  dup7\n    /* \"#utility.yul\":3391:3408   */\n  add\n    /* \"#utility.yul\":3332:3422   */\n  tag_51\n  jump\t// in\ntag_105:\n    /* \"#utility.yul\":3323:3422   */\n  swap2\n  pop\n    /* \"#utility.yul\":3146:3428   */\n  pop\n    /* \"#utility.yul\":3073:3428   */\n  swap3\n  swap2\n  pop\n  pop\n  jump\t// out\n    /* \"#utility.yul\":3434:3511   */\ntag_53:\n    /* \"#utility.yul\":3471:3478   */\n  0x00\n    /* \"#utility.yul\":3500:3505   */\n  dup2\n    /* \"#utility.yul\":3489:3505   */\n  swap1\n  pop\n    /* \"#utility.yul\":3434:3511   */\n  swap2\n  swap1\n  pop\n  jump\t// out\n    /* \"#utility.yul\":3517:3639   */\ntag_54:\n    /* \"#utility.yul\":3590:3614   */\n  tag_108\n    /* \"#utility.yul\":3608:3613   */\n  dup2\n    /* \"#utility.yul\":3590:3614   */\n  tag_53\n  jump\t// in\ntag_108:\n    /* \"#utility.yul\":3583:3588   */\n  dup2\n    /* \"#utility.yul\":3580:3615   */\n  eq\n    /* \"#utility.yul\":3570:3633   */\n  tag_109\n  jumpi\n    /* \"#utility.yul\":3629:3630   */\n  0x00\n    /* \"#utility.yul\":3626:3627   */\n  dup1\n    /* \"#utility.yul\":3619:3631   */\n  revert\n    /* \"#utility.yul\":3570:3633   */\ntag_109:\n    /* \"#utility.yul\":3517:3639   */\n  pop\n  jump\t// out\n    /* \"#utility.yul\":3645:3788   */\ntag_55:\n    /* \"#utility.yul\":3702:3707   */\n  0x00\n    /* \"#utility.yul\":3733:3739   */\n  dup2\n    /* \"#utility.yul\":3727:3740   */\n  mload\n    /* \"#utility.yul\":3718:3740   */\n  swap1\n  pop\n    /* \"#utility.yul\":3749:3782   */\n  tag_111\n    /* \"#utility.yul\":3776:3781   */\n  dup2\n    /* \"#utility.yul\":3749:3782   */\n  tag_54\n  jump\t// in\ntag_111:\n    /* \"#utility.yul\":3645:3788   */\n  swap3\n  swap2\n  pop\n  pop\n  jump\t// out\n    /* \"#utility.yul\":3829:4598   */\ntag_56:\n    /* \"#utility.yul\":3912:3917   */\n  0x00\n    /* \"#utility.yul\":3956:3960   */\n  0x40\n    /* \"#utility.yul\":3944:3953   */\n  dup3\n    /* \"#utility.yul\":3939:3942   */\n  dup5\n    /* \"#utility.yul\":3935:3954   */\n  sub\n    /* \"#utility.yul\":3931:3961   */\n  slt\n    /* \"#utility.yul\":3928:4045   */\n  iszero\n  tag_113\n  jumpi\n    /* \"#utility.yul\":3964:4043   */\n  tag_114\n  tag_46\n  jump\t// in\ntag_114:\n    /* \"#utility.yul\":3928:4045   */\ntag_113:\n    /* \"#utility.yul\":4063:4084   */\n  tag_115\n    /* \"#utility.yul\":4079:4083   */\n  0x40\n    /* \"#utility.yul\":4063:4084   */\n  tag_43\n  jump\t// in\ntag_115:\n    /* \"#utility.yul\":4054:4084   */\n  swap1\n  pop\n    /* \"#utility.yul\":4164:4165   */\n  0x00\n    /* \"#utility.yul\":4153:4162   */\n  dup3\n    /* \"#utility.yul\":4149:4166   */\n  add\n    /* \"#utility.yul\":4143:4167   */\n  mload\n    /* \"#utility.yul\":4194:4212   */\n  0xffffffffffffffff\n    /* \"#utility.yul\":4186:4192   */\n  dup2\n    /* \"#utility.yul\":4183:4213   */\n  gt\n    /* \"#utility.yul\":4180:4297   */\n  iszero\n  tag_116\n  jumpi\n    /* \"#utility.yul\":4216:4295   */\n  tag_117\n  tag_47\n  jump\t// in\ntag_117:\n    /* \"#utility.yul\":4180:4297   */\ntag_116:\n    /* \"#utility.yul\":4336:4406   */\n  tag_118\n    /* \"#utility.yul\":4402:4405   */\n  dup5\n    /* \"#utility.yul\":4393:4399   */\n  dup3\n    /* \"#utility.yul\":4382:4391   */\n  dup6\n    /* \"#utility.yul\":4378:4400   */\n  add\n    /* \"#utility.yul\":4336:4406   */\n  tag_52\n  jump\t// in\ntag_118:\n    /* \"#utility.yul\":4329:4333   */\n  0x00\n    /* \"#utility.yul\":4322:4327   */\n  dup4\n    /* \"#utility.yul\":4318:4334   */\n  add\n    /* \"#utility.yul\":4311:4407   */\n  mstore\n    /* \"#utility.yul\":4094:4418   */\n  pop\n    /* \"#utility.yul\":4478:4480   */\n  0x20\n    /* \"#utility.yul\":4519:4579   */\n  tag_119\n    /* \"#utility.yul\":4575:4578   */\n  dup5\n    /* \"#utility.yul\":4566:4572   */\n  dup3\n    /* \"#utility.yul\":4555:4564   */\n  dup6\n    /* \"#utility.yul\":4551:4573   */\n  add\n    /* \"#utility.yul\":4519:4579   */\n  tag_55\n  jump\t// in\ntag_119:\n    /* \"#utility.yul\":4512:4516   */\n  0x20\n    /* \"#utility.yul\":4505:4510   */\n  dup4\n    /* \"#utility.yul\":4501:4517   */\n  add\n    /* \"#utility.yul\":4494:4580   */\n  mstore\n    /* \"#utility.yul\":4428:4591   */\n  pop\n    /* \"#utility.yul\":3829:4598   */\n  swap3\n  swap2\n  pop\n  pop\n  jump\t// out\n    /* \"#utility.yul\":4641:5640   */\ntag_57:\n    /* \"#utility.yul\":4771:4776   */\n  0x00\n    /* \"#utility.yul\":4796:4900   */\n  tag_121\n    /* \"#utility.yul\":4812:4899   */\n  tag_122\n    /* \"#utility.yul\":4892:4898   */\n  dup5\n    /* \"#utility.yul\":4812:4899   */\n  tag_44\n  jump\t// in\ntag_122:\n    /* \"#utility.yul\":4796:4900   */\n  tag_43\n  jump\t// in\ntag_121:\n    /* \"#utility.yul\":4787:4900   */\n  swap1\n  pop\n    /* \"#utility.yul\":4920:4925   */\n  dup1\n    /* \"#utility.yul\":4949:4955   */\n  dup4\n    /* \"#utility.yul\":4942:4947   */\n  dup3\n    /* \"#utility.yul\":4935:4956   */\n  mstore\n    /* \"#utility.yul\":4983:4987   */\n  0x20\n    /* \"#utility.yul\":4976:4981   */\n  dup3\n    /* \"#utility.yul\":4972:4988   */\n  add\n    /* \"#utility.yul\":4965:4988   */\n  swap1\n  pop\n    /* \"#utility.yul\":5036:5040   */\n  0x20\n    /* \"#utility.yul\":5028:5034   */\n  dup5\n    /* \"#utility.yul\":5024:5041   */\n  mul\n    /* \"#utility.yul\":5016:5022   */\n  dup4\n    /* \"#utility.yul\":5012:5042   */\n  add\n    /* \"#utility.yul\":5065:5068   */\n  dup6\n    /* \"#utility.yul\":5057:5063   */\n  dup2\n    /* \"#utility.yul\":5054:5069   */\n  gt\n    /* \"#utility.yul\":5051:5173   */\n  iszero\n  tag_123\n  jumpi\n    /* \"#utility.yul\":5084:5163   */\n  tag_124\n  tag_45\n  jump\t// in\ntag_124:\n    /* \"#utility.yul\":5051:5173   */\ntag_123:\n    /* \"#utility.yul\":5199:5205   */\n  dup4\n    /* \"#utility.yul\":5182:5634   */\ntag_125:\n    /* \"#utility.yul\":5216:5222   */\n  dup2\n    /* \"#utility.yul\":5211:5214   */\n  dup2\n    /* \"#utility.yul\":5208:5223   */\n  lt\n    /* \"#utility.yul\":5182:5634   */\n  iszero\n  tag_127\n  jumpi\n    /* \"#utility.yul\":5298:5301   */\n  dup1\n    /* \"#utility.yul\":5292:5302   */\n  mload\n    /* \"#utility.yul\":5334:5352   */\n  0xffffffffffffffff\n    /* \"#utility.yul\":5321:5332   */\n  dup2\n    /* \"#utility.yul\":5318:5353   */\n  gt\n    /* \"#utility.yul\":5315:5437   */\n  iszero\n  tag_128\n  jumpi\n    /* \"#utility.yul\":5356:5435   */\n  tag_129\n  tag_39\n  jump\t// in\ntag_129:\n    /* \"#utility.yul\":5315:5437   */\ntag_128:\n    /* \"#utility.yul\":5480:5491   */\n  dup1\n    /* \"#utility.yul\":5472:5478   */\n  dup7\n    /* \"#utility.yul\":5468:5492   */\n  add\n    /* \"#utility.yul\":5518:5589   */\n  tag_130\n    /* \"#utility.yul\":5585:5588   */\n  dup10\n    /* \"#utility.yul\":5573:5583   */\n  dup3\n    /* \"#utility.yul\":5518:5589   */\n  tag_56\n  jump\t// in\ntag_130:\n    /* \"#utility.yul\":5513:5516   */\n  dup6\n    /* \"#utility.yul\":5506:5590   */\n  mstore\n    /* \"#utility.yul\":5619:5623   */\n  0x20\n    /* \"#utility.yul\":5614:5617   */\n  dup6\n    /* \"#utility.yul\":5610:5624   */\n  add\n    /* \"#utility.yul\":5603:5624   */\n  swap5\n  pop\n    /* \"#utility.yul\":5258:5634   */\n  pop\n  pop\n    /* \"#utility.yul\":5242:5246   */\n  0x20\n    /* \"#utility.yul\":5237:5240   */\n  dup2\n    /* \"#utility.yul\":5233:5247   */\n  add\n    /* \"#utility.yul\":5226:5247   */\n  swap1\n  pop\n    /* \"#utility.yul\":5182:5634   */\n  jump(tag_125)\ntag_127:\n    /* \"#utility.yul\":5186:5207   */\n  pop\n    /* \"#utility.yul\":4777:5640   */\n  pop\n  pop\n    /* \"#utility.yul\":4641:5640   */\n  swap4\n  swap3\n  pop\n  pop\n  pop\n  jump\t// out\n    /* \"#utility.yul\":5683:6114   */\ntag_58:\n    /* \"#utility.yul\":5788:5793   */\n  0x00\n    /* \"#utility.yul\":5837:5840   */\n  dup3\n    /* \"#utility.yul\":5830:5834   */\n  0x1f\n    /* \"#utility.yul\":5822:5828   */\n  dup4\n    /* \"#utility.yul\":5818:5835   */\n  add\n    /* \"#utility.yul\":5814:5841   */\n  slt\n    /* \"#utility.yul\":5804:5926   */\n  tag_132\n  jumpi\n    /* \"#utility.yul\":5845:5924   */\n  tag_133\n  tag_39\n  jump\t// in\ntag_133:\n    /* \"#utility.yul\":5804:5926   */\ntag_132:\n    /* \"#utility.yul\":5955:5961   */\n  dup2\n    /* \"#utility.yul\":5949:5962   */\n  mload\n    /* \"#utility.yul\":5980:6108   */\n  tag_134\n    /* \"#utility.yul\":6104:6107   */\n  dup5\n    /* \"#utility.yul\":6096:6102   */\n  dup3\n    /* \"#utility.yul\":6089:6093   */\n  0x20\n    /* \"#utility.yul\":6081:6087   */\n  dup7\n    /* \"#utility.yul\":6077:6094   */\n  add\n    /* \"#utility.yul\":5980:6108   */\n  tag_57\n  jump\t// in\ntag_134:\n    /* \"#utility.yul\":5971:6108   */\n  swap2\n  pop\n    /* \"#utility.yul\":5794:6114   */\n  pop\n    /* \"#utility.yul\":5683:6114   */\n  swap3\n  swap2\n  pop\n  pop\n  jump\t// out\n    /* \"#utility.yul\":6120:7049   */\ntag_3:\n    /* \"#utility.yul\":6257:6263   */\n  0x00\n    /* \"#utility.yul\":6265:6271   */\n  dup1\n    /* \"#utility.yul\":6314:6316   */\n  0x40\n    /* \"#utility.yul\":6302:6311   */\n  dup4\n    /* \"#utility.yul\":6293:6300   */\n  dup6\n    /* \"#utility.yul\":6289:6312   */\n  sub\n    /* \"#utility.yul\":6285:6317   */\n  slt\n    /* \"#utility.yul\":6282:6401   */\n  iszero\n  tag_136\n  jumpi\n    /* \"#utility.yul\":6320:6399   */\n  tag_137\n  tag_37\n  jump\t// in\ntag_137:\n    /* \"#utility.yul\":6282:6401   */\ntag_136:\n    /* \"#utility.yul\":6461:6462   */\n  0x00\n    /* \"#utility.yul\":6450:6459   */\n  dup4\n    /* \"#utility.yul\":6446:6463   */\n  add\n    /* \"#utility.yul\":6440:6464   */\n  mload\n    /* \"#utility.yul\":6491:6509   */\n  0xffffffffffffffff\n    /* \"#utility.yul\":6483:6489   */\n  dup2\n    /* \"#utility.yul\":6480:6510   */\n  gt\n    /* \"#utility.yul\":6477:6594   */\n  iszero\n  tag_138\n  jumpi\n    /* \"#utility.yul\":6513:6592   */\n  tag_139\n  tag_38\n  jump\t// in\ntag_139:\n    /* \"#utility.yul\":6477:6594   */\ntag_138:\n    /* \"#utility.yul\":6618:6730   */\n  tag_140\n    /* \"#utility.yul\":6722:6729   */\n  dup6\n    /* \"#utility.yul\":6713:6719   */\n  dup3\n    /* \"#utility.yul\":6702:6711   */\n  dup7\n    /* \"#utility.yul\":6698:6720   */\n  add\n    /* \"#utility.yul\":6618:6730   */\n  tag_58\n  jump\t// in\ntag_140:\n    /* \"#utility.yul\":6608:6730   */\n  swap3\n  pop\n    /* \"#utility.yul\":6411:6740   */\n  pop\n    /* \"#utility.yul\":6800:6802   */\n  0x20\n    /* \"#utility.yul\":6789:6798   */\n  dup4\n    /* \"#utility.yul\":6785:6803   */\n  add\n    /* \"#utility.yul\":6779:6804   */\n  mload\n    /* \"#utility.yul\":6831:6849   */\n  0xffffffffffffffff\n    /* \"#utility.yul\":6823:6829   */\n  dup2\n    /* \"#utility.yul\":6820:6850   */\n  gt\n    /* \"#utility.yul\":6817:6934   */\n  iszero\n  tag_141\n  jumpi\n    /* \"#utility.yul\":6853:6932   */\n  tag_142\n  tag_38\n  jump\t// in\ntag_142:\n    /* \"#utility.yul\":6817:6934   */\ntag_141:\n    /* \"#utility.yul\":6958:7032   */\n  tag_143\n    /* \"#utility.yul\":7024:7031   */\n  dup6\n    /* \"#utility.yul\":7015:7021   */\n  dup3\n    /* \"#utility.yul\":7004:7013   */\n  dup7\n    /* \"#utility.yul\":7000:7022   */\n  add\n    /* \"#utility.yul\":6958:7032   */\n  tag_52\n  jump\t// in\ntag_143:\n    /* \"#utility.yul\":6948:7032   */\n  swap2\n  pop\n    /* \"#utility.yul\":6750:7042   */\n  pop\n    /* \"#utility.yul\":6120:7049   */\n  swap3\n  pop\n  swap3\n  swap1\n  pop\n  jump\t// out\n    /* \"#utility.yul\":7055:7235   */\ntag_14:\n    /* \"#utility.yul\":7103:7180   */\n  0x4e487b7100000000000000000000000000000000000000000000000000000000\n    /* \"#utility.yul\":7100:7101   */\n  0x00\n    /* \"#utility.yul\":7093:7181   */\n  mstore\n    /* \"#utility.yul\":7200:7204   */\n  0x32\n    /* \"#utility.yul\":7197:7198   */\n  0x04\n    /* \"#utility.yul\":7190:7205   */\n  mstore\n    /* \"#utility.yul\":7224:7228   */\n  0x24\n    /* \"#utility.yul\":7221:7222   */\n  0x00\n    /* \"#utility.yul\":7214:7229   */\n  revert\n    /* \"#utility.yul\":7241:7421   */\ntag_59:\n    /* \"#utility.yul\":7289:7366   */\n  0x4e487b7100000000000000000000000000000000000000000000000000000000\n    /* \"#utility.yul\":7286:7287   */\n  0x00\n    /* \"#utility.yul\":7279:7367   */\n  mstore\n    /* \"#utility.yul\":7386:7390   */\n  0x11\n    /* \"#utility.yul\":7383:7384   */\n  0x04\n    /* \"#utility.yul\":7376:7391   */\n  mstore\n    /* \"#utility.yul\":7410:7414   */\n  0x24\n    /* \"#utility.yul\":7407:7408   */\n  0x00\n    /* \"#utility.yul\":7400:7415   */\n  revert\n    /* \"#utility.yul\":7427:7660   */\ntag_20:\n    /* \"#utility.yul\":7466:7469   */\n  0x00\n    /* \"#utility.yul\":7489:7513   */\n  tag_147\n    /* \"#utility.yul\":7507:7512   */\n  dup3\n    /* \"#utility.yul\":7489:7513   */\n  tag_53\n  jump\t// in\ntag_147:\n    /* \"#utility.yul\":7480:7513   */\n  swap2\n  pop\n    /* \"#utility.yul\":7535:7601   */\n  0xffffffffffffffffffffffffffffffffffffffffffffffffffffffffffffffff\n    /* \"#utility.yul\":7528:7533   */\n  dup3\n    /* \"#utility.yul\":7525:7602   */\n  eq\n    /* \"#utility.yul\":7522:7625   */\n  iszero\n  tag_148\n  jumpi\n    /* \"#utility.yul\":7605:7623   */\n  tag_149\n  tag_59\n  jump\t// in\ntag_149:\n    /* \"#utility.yul\":7522:7625   */\ntag_148:\n    /* \"#utility.yul\":7652:7653   */\n  0x01\n    /* \"#utility.yul\":7645:7650   */\n  dup3\n    /* \"#utility.yul\":7641:7654   */\n  add\n    /* \"#utility.yul\":7634:7654   */\n  swap1\n  pop\n    /* \"#utility.yul\":7427:7660   */\n  swap2\n  swap1\n  pop\n  jump\t// out\n    /* \"#utility.yul\":7666:7765   */\ntag_60:\n    /* \"#utility.yul\":7718:7724   */\n  0x00\n    /* \"#utility.yul\":7752:7757   */\n  dup2\n    /* \"#utility.yul\":7746:7758   */\n  mload\n    /* \"#utility.yul\":7736:7758   */\n  swap1\n  pop\n    /* \"#utility.yul\":7666:7765   */\n  swap2\n  swap1\n  pop\n  jump\t// out\n    /* \"#utility.yul\":7771:7940   */\ntag_61:\n    /* \"#utility.yul\":7855:7866   */\n  0x00\n    /* \"#utility.yul\":7889:7895   */\n  dup3\n    /* \"#utility.yul\":7884:7887   */\n  dup3\n    /* \"#utility.yul\":7877:7896   */\n  mstore\n    /* \"#utility.yul\":7929:7933   */\n  0x20\n    /* \"#utility.yul\":7924:7927   */\n  dup3\n    /* \"#utility.yul\":7920:7934   */\n  add\n    /* \"#utility.yul\":7905:7934   */\n  swap1\n  pop\n    /* \"#utility.yul\":7771:7940   */\n  swap3\n  swap2\n  pop\n  pop\n  jump\t// out\n    /* \"#utility.yul\":7946:8310   */\ntag_62:\n    /* \"#utility.yul\":8034:8037   */\n  0x00\n    /* \"#utility.yul\":8062:8101   */\n  tag_153\n    /* \"#utility.yul\":8095:8100   */\n  dup3\n    /* \"#utility.yul\":8062:8101   */\n  tag_60\n  jump\t// in\ntag_153:\n    /* \"#utility.yul\":8117:8188   */\n  tag_154\n    /* \"#utility.yul\":8181:8187   */\n  dup2\n    /* \"#utility.yul\":8176:8179   */\n  dup6\n    /* \"#utility.yul\":8117:8188   */\n  tag_61\n  jump\t// in\ntag_154:\n    /* \"#utility.yul\":8110:8188   */\n  swap4\n  pop\n    /* \"#utility.yul\":8197:8249   */\n  tag_155\n    /* \"#utility.yul\":8242:8248   */\n  dup2\n    /* \"#utility.yul\":8237:8240   */\n  dup6\n    /* \"#utility.yul\":8230:8234   */\n  0x20\n    /* \"#utility.yul\":8223:8228   */\n  dup7\n    /* \"#utility.yul\":8219:8235   */\n  add\n    /* \"#utility.yul\":8197:8249   */\n  tag_50\n  jump\t// in\ntag_155:\n    /* \"#utility.yul\":8274:8303   */\n  tag_156\n    /* \"#utility.yul\":8296:8302   */\n  dup2\n    /* \"#utility.yul\":8274:8303   */\n  tag_40\n  jump\t// in\ntag_156:\n    /* \"#utility.yul\":8269:8272   */\n  dup5\n    /* \"#utility.yul\":8265:8304   */\n  add\n    /* \"#utility.yul\":8258:8304   */\n  swap2\n  pop\n    /* \"#utility.yul\":8038:8310   */\n  pop\n    /* \"#utility.yul\":7946:8310   */\n  swap3\n  swap2\n  pop\n  pop\n  jump\t// out\n    /* \"#utility.yul\":8316:8496   */\ntag_63:\n    /* \"#utility.yul\":8364:8441   */\n  0x4e487b7100000000000000000000000000000000000000000000000000000000\n    /* \"#utility.yul\":8361:8362   */\n  0x00\n    /* \"#utility.yul\":8354:8442   */\n  mstore\n    /* \"#utility.yul\":8461:8465   */\n  0x22\n    /* \"#utility.yul\":8458:8459   */\n  0x04\n    /* \"#utility.yul\":8451:8466   */\n  mstore\n    /* \"#utility.yul\":8485:8489   */\n  0x24\n    /* \"#utility.yul\":8482:8483   */\n  0x00\n    /* \"#utility.yul\":8475:8490   */\n  revert\n    /* \"#utility.yul\":8502:8822   */\ntag_26:\n    /* \"#utility.yul\":8546:8552   */\n  0x00\n    /* \"#utility.yul\":8583:8584   */\n  0x02\n    /* \"#utility.yul\":8577:8581   */\n  dup3\n    /* \"#utility.yul\":8573:8585   */\n  div\n    /* \"#utility.yul\":8563:8585   */\n  swap1\n  pop\n    /* \"#utility.yul\":8630:8631   */\n  0x01\n    /* \"#utility.yul\":8624:8628   */\n  dup3\n    /* \"#utility.yul\":8620:8632   */\n  and\n    /* \"#utility.yul\":8651:8669   */\n  dup1\n    /* \"#utility.yul\":8641:8722   */\n  tag_159\n  jumpi\n    /* \"#utility.yul\":8707:8711   */\n  0x7f\n    /* \"#utility.yul\":8699:8705   */\n  dup3\n    /* \"#utility.yul\":8695:8712   */\n  and\n    /* \"#utility.yul\":8685:8712   */\n  swap2\n  pop\n    /* \"#utility.yul\":8641:8722   */\ntag_159:\n    /* \"#utility.yul\":8769:8771   */\n  0x20\n    /* \"#utility.yul\":8761:8767   */\n  dup3\n    /* \"#utility.yul\":8758:8772   */\n  lt\n    /* \"#utility.yul\":8738:8756   */\n  dup2\n    /* \"#utility.yul\":8735:8773   */\n  eq\n    /* \"#utility.yul\":8732:8816   */\n  iszero\n  tag_160\n  jumpi\n    /* \"#utility.yul\":8788:8806   */\n  tag_161\n  tag_63\n  jump\t// in\ntag_161:\n    /* \"#utility.yul\":8732:8816   */\ntag_160:\n    /* \"#utility.yul\":8553:8822   */\n  pop\n    /* \"#utility.yul\":8502:8822   */\n  swap2\n  swap1\n  pop\n  jump\t// out\n    /* \"#utility.yul\":8828:8969   */\ntag_64:\n    /* \"#utility.yul\":8877:8881   */\n  0x00\n    /* \"#utility.yul\":8900:8903   */\n  dup2\n    /* \"#utility.yul\":8892:8903   */\n  swap1\n  pop\n    /* \"#utility.yul\":8923:8926   */\n  dup2\n    /* \"#utility.yul\":8920:8921   */\n  0x00\n    /* \"#utility.yul\":8913:8927   */\n  mstore\n    /* \"#utility.yul\":8957:8961   */\n  0x20\n    /* \"#utility.yul\":8954:8955   */\n  0x00\n    /* \"#utility.yul\":8944:8962   */\n  keccak256\n    /* \"#utility.yul\":8936:8962   */\n  swap1\n  pop\n    /* \"#utility.yul\":8828:8969   */\n  swap2\n  swap1\n  pop\n  jump\t// out\n    /* \"#utility.yul\":8999:9801   */\ntag_65:\n    /* \"#utility.yul\":9084:9087   */\n  0x00\n    /* \"#utility.yul\":9121:9126   */\n  dup2\n    /* \"#utility.yul\":9115:9127   */\n  sload\n    /* \"#utility.yul\":9150:9186   */\n  tag_164\n    /* \"#utility.yul\":9176:9185   */\n  dup2\n    /* \"#utility.yul\":9150:9186   */\n  tag_26\n  jump\t// in\ntag_164:\n    /* \"#utility.yul\":9202:9273   */\n  tag_165\n    /* \"#utility.yul\":9266:9272   */\n  dup2\n    /* \"#utility.yul\":9261:9264   */\n  dup7\n    /* \"#utility.yul\":9202:9273   */\n  tag_61\n  jump\t// in\ntag_165:\n    /* \"#utility.yul\":9195:9273   */\n  swap5\n  pop\n    /* \"#utility.yul\":9304:9305   */\n  0x01\n    /* \"#utility.yul\":9293:9302   */\n  dup3\n    /* \"#utility.yul\":9289:9306   */\n  and\n    /* \"#utility.yul\":9320:9321   */\n  0x00\n    /* \"#utility.yul\":9315:9450   */\n  dup2\n  eq\n  tag_167\n  jumpi\n    /* \"#utility.yul\":9464:9465   */\n  0x01\n    /* \"#utility.yul\":9459:9795   */\n  dup2\n  eq\n  tag_168\n  jumpi\n    /* \"#utility.yul\":9282:9795   */\n  jump(tag_166)\n    /* \"#utility.yul\":9315:9450   */\ntag_167:\n    /* \"#utility.yul\":9399:9403   */\n  0xff\n    /* \"#utility.yul\":9395:9404   */\n  not\n    /* \"#utility.yul\":9384:9393   */\n  dup4\n    /* \"#utility.yul\":9380:9405   */\n  and\n    /* \"#utility.yul\":9375:9378   */\n  dup7\n    /* \"#utility.yul\":9368:9406   */\n  mstore\n    /* \"#utility.yul\":9435:9439   */\n  0x20\n    /* \"#utility.yul\":9430:9433   */\n  dup7\n    /* \"#utility.yul\":9426:9440   */\n  add\n    /* \"#utility.yul\":9419:9440   */\n  swap4\n  pop\n    /* \"#utility.yul\":9315:9450   */\n  jump(tag_166)\n    /* \"#utility.yul\":9459:9795   */\ntag_168:\n    /* \"#utility.yul\":9526:9564   */\n  tag_169\n    /* \"#utility.yul\":9558:9563   */\n  dup6\n    /* \"#utility.yul\":9526:9564   */\n  tag_64\n  jump\t// in\ntag_169:\n    /* \"#utility.yul\":9586:9587   */\n  0x00\n    /* \"#utility.yul\":9600:9754   */\ntag_170:\n    /* \"#utility.yul\":9614:9620   */\n  dup4\n    /* \"#utility.yul\":9611:9612   */\n  dup2\n    /* \"#utility.yul\":9608:9621   */\n  lt\n    /* \"#utility.yul\":9600:9754   */\n  iszero\n  tag_172\n  jumpi\n    /* \"#utility.yul\":9688:9695   */\n  dup2\n    /* \"#utility.yul\":9682:9696   */\n  sload\n    /* \"#utility.yul\":9678:9679   */\n  dup2\n    /* \"#utility.yul\":9673:9676   */\n  dup10\n    /* \"#utility.yul\":9669:9680   */\n  add\n    /* \"#utility.yul\":9662:9697   */\n  mstore\n    /* \"#utility.yul\":9738:9739   */\n  0x01\n    /* \"#utility.yul\":9729:9736   */\n  dup3\n    /* \"#utility.yul\":9725:9740   */\n  add\n    /* \"#utility.yul\":9714:9740   */\n  swap2\n  pop\n    /* \"#utility.yul\":9636:9640   */\n  0x20\n    /* \"#utility.yul\":9633:9634   */\n  dup2\n    /* \"#utility.yul\":9629:9641   */\n  add\n    /* \"#utility.yul\":9624:9641   */\n  swap1\n  pop\n    /* \"#utility.yul\":9600:9754   */\n  jump(tag_170)\ntag_172:\n    /* \"#utility.yul\":9783:9784   */\n  dup1\n    /* \"#utility.yul\":9778:9781   */\n  dup9\n    /* \"#utility.yul\":9774:9785   */\n  add\n    /* \"#utility.yul\":9767:9785   */\n  swap6\n  pop\n    /* \"#utility.yul\":9466:9795   */\n  pop\n  pop\n    /* \"#utility.yul\":9282:9795   */\ntag_166:\n  pop\n    /* \"#utility.yul\":9088:9801   */\n  pop\n  pop\n    /* \"#utility.yul\":8999:9801   */\n  swap3\n  swap2\n  pop\n  pop\n  jump\t// out\n    /* \"#utility.yul\":9807:10315   */\ntag_24:\n    /* \"#utility.yul\":9965:9969   */\n  0x00\n    /* \"#utility.yul\":10003:10005   */\n  0x40\n    /* \"#utility.yul\":9992:10001   */\n  dup3\n    /* \"#utility.yul\":9988:10006   */\n  add\n    /* \"#utility.yul\":9980:10006   */\n  swap1\n  pop\n    /* \"#utility.yul\":10052:10061   */\n  dup2\n    /* \"#utility.yul\":10046:10050   */\n  dup2\n    /* \"#utility.yul\":10042:10062   */\n  sub\n    /* \"#utility.yul\":10038:10039   */\n  0x00\n    /* \"#utility.yul\":10027:10036   */\n  dup4\n    /* \"#utility.yul\":10023:10040   */\n  add\n    /* \"#utility.yul\":10016:10063   */\n  mstore\n    /* \"#utility.yul\":10080:10158   */\n  tag_174\n    /* \"#utility.yul\":10153:10157   */\n  dup2\n    /* \"#utility.yul\":10144:10150   */\n  dup6\n    /* \"#utility.yul\":10080:10158   */\n  tag_62\n  jump\t// in\ntag_174:\n    /* \"#utility.yul\":10072:10158   */\n  swap1\n  pop\n    /* \"#utility.yul\":10205:10214   */\n  dup2\n    /* \"#utility.yul\":10199:10203   */\n  dup2\n    /* \"#utility.yul\":10195:10215   */\n  sub\n    /* \"#utility.yul\":10190:10192   */\n  0x20\n    /* \"#utility.yul\":10179:10188   */\n  dup4\n    /* \"#utility.yul\":10175:10193   */\n  add\n    /* \"#utility.yul\":10168:10216   */\n  mstore\n    /* \"#utility.yul\":10233:10308   */\n  tag_175\n    /* \"#utility.yul\":10303:10307   */\n  dup2\n    /* \"#utility.yul\":10294:10300   */\n  dup5\n    /* \"#utility.yul\":10233:10308   */\n  tag_65\n  jump\t// in\ntag_175:\n    /* \"#utility.yul\":10225:10308   */\n  swap1\n  pop\n    /* \"#utility.yul\":9807:10315   */\n  swap4\n  swap3\n  pop\n  pop\n  pop\n  jump\t// out\n    /* \"Manufacturer.sol\":65:2464  contract Manufacturer {... */\ntag_21:\n  dataSize(sub_0)\n  dup1\n  dataOffset(sub_0)\n  0x00\n  codecopy\n  0x00\n  return\nstop\n\nsub_0: assembly {\n        /* \"Manufacturer.sol\":65:2464  contract Manufacturer {... */\n      mstore(0x40, 0x80)\n      jumpi(tag_1, lt(calldatasize, 0x04))\n      shr(0xe0, calldataload(0x00))\n      dup1\n      0x87458b5a\n      gt\n      tag_11\n      jumpi\n      dup1\n      0x87458b5a\n      eq\n      tag_6\n      jumpi\n      dup1\n      0xc7452851\n      eq\n      tag_7\n      jumpi\n      dup1\n      0xcb373a88\n      eq\n      tag_8\n      jumpi\n      dup1\n      0xddf88dfc\n      eq\n      tag_9\n      jumpi\n      dup1\n      0xfd01273b\n      eq\n      tag_10\n      jumpi\n      jump(tag_1)\n    tag_11:\n      dup1\n      0x37911c2a\n      eq\n      tag_2\n      jumpi\n      dup1\n      0x500ed75d\n      eq\n      tag_3\n      jumpi\n      dup1\n      0x74754282\n      eq\n      tag_4\n      jumpi\n      dup1\n      0x79054391\n      eq\n      tag_5\n      jumpi\n    tag_1:\n      0x00\n      dup1\n      revert\n        /* \"Manufacturer.sol\":2290:2461  function getRetailStores() external view returns (RetailStore[] memory) {... */\n    tag_2:\n      callvalue\n      dup1\n      iszero\n      tag_12\n      jumpi\n      0x00\n      dup1\n      revert\n    tag_12:\n      pop\n      tag_13\n      tag_14\n      jump\t// in\n    tag_13:\n      mload(0x40)\n      tag_15\n      swap2\n      swap1\n      tag_16\n      jump\t// in\n    tag_15:\n      mload(0x40)\n      dup1\n      swap2\n      sub\n      swap1\n      return\n        /* \"Manufacturer.sol\":1622:1905  function changeProductOwner(... */\n    tag_3:\n      callvalue\n      dup1\n      iszero\n      tag_17\n      jumpi\n      0x00\n      dup1\n      revert\n    tag_17:\n      pop\n      tag_18\n      0x04\n      dup1\n      calldatasize\n      sub\n      dup2\n      add\n      swap1\n      tag_19\n      swap2\n      swap1\n      tag_20\n      jump\t// in\n    tag_19:\n      tag_21\n      jump\t// in\n    tag_18:\n      stop\n        /* \"Manufacturer.sol\":94:121  address public manufacturer */\n    tag_4:\n      callvalue\n      dup1\n      iszero\n      tag_22\n      jumpi\n      0x00\n      dup1\n      revert\n    tag_22:\n      pop\n      tag_23\n      tag_24\n      jump\t// in\n    tag_23:\n      mload(0x40)\n      tag_25\n      swap2\n      swap1\n      tag_26\n      jump\t// in\n    tag_25:\n      mload(0x40)\n      dup1\n      swap2\n      sub\n      swap1\n      return\n        /* \"Manufacturer.sol\":266:309  mapping(bytes32 => Product) public products */\n    tag_5:\n      callvalue\n      dup1\n      iszero\n      tag_27\n      jumpi\n      0x00\n      dup1\n      revert\n    tag_27:\n      pop\n      tag_28\n      0x04\n      dup1\n      calldatasize\n      sub\n      dup2\n      add\n      swap1\n      tag_29\n      swap2\n      swap1\n      tag_30\n      jump\t// in\n    tag_29:\n      tag_31\n      jump\t// in\n    tag_28:\n      mload(0x40)\n      tag_32\n      swap3\n      swap2\n      swap1\n      tag_33\n      jump\t// in\n    tag_32:\n      mload(0x40)\n      dup1\n      swap2\n      sub\n      swap1\n      return\n        /* \"Manufacturer.sol\":1117:1433  function buyProductFromManufacturer(string memory _product)... */\n    tag_6:\n      tag_34\n      0x04\n      dup1\n      calldatasize\n      sub\n      dup2\n      add\n      swap1\n      tag_35\n      swap2\n      swap1\n      tag_36\n      jump\t// in\n    tag_35:\n      tag_37\n      jump\t// in\n    tag_34:\n      stop\n        /* \"Manufacturer.sol\":410:552  function productHash(string memory name) public view returns (bytes32) {... */\n    tag_7:\n      callvalue\n      dup1\n      iszero\n      tag_38\n      jumpi\n      0x00\n      dup1\n      revert\n    tag_38:\n      pop\n      tag_39\n      0x04\n      dup1\n      calldatasize\n      sub\n      dup2\n      add\n      swap1\n      tag_40\n      swap2\n      swap1\n      tag_36\n      jump\t// in\n    tag_40:\n      tag_41\n      jump\t// in\n    tag_39:\n      mload(0x40)\n      tag_42\n      swap2\n      swap1\n      tag_43\n      jump\t// in\n    tag_42:\n      mload(0x40)\n      dup1\n      swap2\n      sub\n      swap1\n      return\n        /* \"Manufacturer.sol\":1441:1541  function newRetailStore() external {... */\n    tag_8:\n      callvalue\n      dup1\n      iszero\n      tag_44\n      jumpi\n      0x00\n      dup1\n      revert\n    tag_44:\n      pop\n      tag_45\n      tag_46\n      jump\t// in\n    tag_45:\n      stop\n        /* \"Manufacturer.sol\":1913:2089  function viewOwner(string memory productName)... */\n    tag_9:\n      callvalue\n      dup1\n      iszero\n      tag_47\n      jumpi\n      0x00\n      dup1\n      revert\n    tag_47:\n      pop\n      tag_48\n      0x04\n      dup1\n      calldatasize\n      sub\n      dup2\n      add\n      swap1\n      tag_49\n      swap2\n      swap1\n      tag_36\n      jump\t// in\n    tag_49:\n      tag_50\n      jump\t// in\n    tag_48:\n      mload(0x40)\n      tag_51\n      swap2\n      swap1\n      tag_26\n      jump\t// in\n    tag_51:\n      mload(0x40)\n      dup1\n      swap2\n      sub\n      swap1\n      return\n        /* \"Manufacturer.sol\":2097:2282  function viewProductPrice(string memory _productName)... */\n    tag_10:\n      callvalue\n      dup1\n      iszero\n      tag_52\n      jumpi\n      0x00\n      dup1\n      revert\n    tag_52:\n      pop\n      tag_53\n      0x04\n      dup1\n      calldatasize\n      sub\n      dup2\n      add\n      swap1\n      tag_54\n      swap2\n      swap1\n      tag_36\n      jump\t// in\n    tag_54:\n      tag_55\n      jump\t// in\n    tag_53:\n      mload(0x40)\n      tag_56\n      swap2\n      swap1\n      tag_57\n      jump\t// in\n    tag_56:\n      mload(0x40)\n      dup1\n      swap2\n      sub\n      swap1\n      return\n        /* \"Manufacturer.sol\":2290:2461  function getRetailStores() external view returns (RetailStore[] memory) {... */\n    tag_14:\n        /* \"Manufacturer.sol\":2340:2360  RetailStore[] memory */\n      0x60\n        /* \"Manufacturer.sol\":2373:2407  RetailStore[] memory _retailStores */\n      0x00\n        /* \"Manufacturer.sol\":2410:2422  retailStores */\n      0x02\n        /* \"Manufacturer.sol\":2373:2422  RetailStore[] memory _retailStores = retailStores */\n      dup1\n      sload\n      dup1\n      0x20\n      mul\n      0x20\n      add\n      mload(0x40)\n      swap1\n      dup2\n      add\n      0x40\n      mstore\n      dup1\n      swap3\n      swap2\n      swap1\n      dup2\n      dup2\n      mstore\n      0x20\n      add\n      dup3\n      dup1\n      sload\n      dup1\n      iszero\n      tag_59\n      jumpi\n      0x20\n      mul\n      dup3\n      add\n      swap2\n      swap1\n      0x00\n      mstore\n      keccak256(0x00, 0x20)\n      swap1\n    tag_60:\n      dup2\n      0x00\n      swap1\n      sload\n      swap1\n      0x0100\n      exp\n      swap1\n      div\n      0xffffffffffffffffffffffffffffffffffffffff\n      and\n      0xffffffffffffffffffffffffffffffffffffffff\n      and\n      dup2\n      mstore\n      0x20\n      add\n      swap1\n      0x01\n      add\n      swap1\n      dup1\n      dup4\n      gt\n      tag_60\n      jumpi\n    tag_59:\n      pop\n      pop\n      pop\n      pop\n      pop\n      swap1\n      pop\n        /* \"Manufacturer.sol\":2440:2453  _retailStores */\n      dup1\n        /* \"Manufacturer.sol\":2433:2453  return _retailStores */\n      swap2\n      pop\n      pop\n        /* \"Manufacturer.sol\":2290:2461  function getRetailStores() external view returns (RetailStore[] memory) {... */\n      swap1\n      jump\t// out\n        /* \"Manufacturer.sol\":1622:1905  function changeProductOwner(... */\n    tag_21:\n        /* \"Manufacturer.sol\":1791:1805  productToOwner */\n      0x04\n        /* \"Manufacturer.sol\":1791:1832  productToOwner[productHash(_productName)] */\n      0x00\n        /* \"Manufacturer.sol\":1806:1831  productHash(_productName) */\n      tag_62\n        /* \"Manufacturer.sol\":1818:1830  _productName */\n      dup6\n        /* \"Manufacturer.sol\":1806:1817  productHash */\n      tag_41\n        /* \"Manufacturer.sol\":1806:1831  productHash(_productName) */\n      jump\t// in\n    tag_62:\n        /* \"Manufacturer.sol\":1791:1832  productToOwner[productHash(_productName)] */\n      dup2\n      mstore\n      0x20\n      add\n      swap1\n      dup2\n      mstore\n      0x20\n      add\n      0x00\n      keccak256\n      0x00\n      swap1\n      sload\n      swap1\n      0x0100\n      exp\n      swap1\n      div\n      0xffffffffffffffffffffffffffffffffffffffff\n      and\n        /* \"Manufacturer.sol\":1778:1832  _oldOwner == productToOwner[productHash(_productName)] */\n      0xffffffffffffffffffffffffffffffffffffffff\n      and\n        /* \"Manufacturer.sol\":1778:1787  _oldOwner */\n      dup3\n        /* \"Manufacturer.sol\":1778:1832  _oldOwner == productToOwner[productHash(_productName)] */\n      0xffffffffffffffffffffffffffffffffffffffff\n      and\n      eq\n        /* \"Manufacturer.sol\":1770:1833  require(_oldOwner == productToOwner[productHash(_productName)]) */\n      tag_63\n      jumpi\n      0x00\n      dup1\n      revert\n    tag_63:\n        /* \"Manufacturer.sol\":1888:1897  _newOwner */\n      dup1\n        /* \"Manufacturer.sol\":1844:1858  productToOwner */\n      0x04\n        /* \"Manufacturer.sol\":1844:1885  productToOwner[productHash(_productName)] */\n      0x00\n        /* \"Manufacturer.sol\":1859:1884  productHash(_productName) */\n      tag_64\n        /* \"Manufacturer.sol\":1871:1883  _productName */\n      dup7\n        /* \"Manufacturer.sol\":1859:1870  productHash */\n      tag_41\n        /* \"Manufacturer.sol\":1859:1884  productHash(_productName) */\n      jump\t// in\n    tag_64:\n        /* \"Manufacturer.sol\":1844:1885  productToOwner[productHash(_productName)] */\n      dup2\n      mstore\n      0x20\n      add\n      swap1\n      dup2\n      mstore\n      0x20\n      add\n      0x00\n      keccak256\n      0x00\n        /* \"Manufacturer.sol\":1844:1897  productToOwner[productHash(_productName)] = _newOwner */\n      0x0100\n      exp\n      dup2\n      sload\n      dup2\n      0xffffffffffffffffffffffffffffffffffffffff\n      mul\n      not\n      and\n      swap1\n      dup4\n      0xffffffffffffffffffffffffffffffffffffffff\n      and\n      mul\n      or\n      swap1\n      sstore\n      pop\n        /* \"Manufacturer.sol\":1622:1905  function changeProductOwner(... */\n      pop\n      pop\n      pop\n      jump\t// out\n        /* \"Manufacturer.sol\":94:121  address public manufacturer */\n    tag_24:\n      0x00\n      dup1\n      sload\n      swap1\n      0x0100\n      exp\n      swap1\n      div\n      0xffffffffffffffffffffffffffffffffffffffff\n      and\n      dup2\n      jump\t// out\n        /* \"Manufacturer.sol\":266:309  mapping(bytes32 => Product) public products */\n    tag_31:\n      mstore(0x20, 0x03)\n      dup1\n      0x00\n      mstore\n      keccak256(0x00, 0x40)\n      0x00\n      swap2\n      pop\n      swap1\n      pop\n      dup1\n      0x00\n      add\n      dup1\n      sload\n      tag_65\n      swap1\n      tag_66\n      jump\t// in\n    tag_65:\n      dup1\n      0x1f\n      add\n      0x20\n      dup1\n      swap2\n      div\n      mul\n      0x20\n      add\n      mload(0x40)\n      swap1\n      dup2\n      add\n      0x40\n      mstore\n      dup1\n      swap3\n      swap2\n      swap1\n      dup2\n      dup2\n      mstore\n      0x20\n      add\n      dup3\n      dup1\n      sload\n      tag_67\n      swap1\n      tag_66\n      jump\t// in\n    tag_67:\n      dup1\n      iszero\n      tag_68\n      jumpi\n      dup1\n      0x1f\n      lt\n      tag_69\n      jumpi\n      0x0100\n      dup1\n      dup4\n      sload\n      div\n      mul\n      dup4\n      mstore\n      swap2\n      0x20\n      add\n      swap2\n      jump(tag_68)\n    tag_69:\n      dup3\n      add\n      swap2\n      swap1\n      0x00\n      mstore\n      keccak256(0x00, 0x20)\n      swap1\n    tag_70:\n      dup2\n      sload\n      dup2\n      mstore\n      swap1\n      0x01\n      add\n      swap1\n      0x20\n      add\n      dup1\n      dup4\n      gt\n      tag_70\n      jumpi\n      dup3\n      swap1\n      sub\n      0x1f\n      and\n      dup3\n      add\n      swap2\n    tag_68:\n      pop\n      pop\n      pop\n      pop\n      pop\n      swap1\n      dup1\n      0x01\n      add\n      sload\n      swap1\n      pop\n      dup3\n      jump\t// out\n        /* \"Manufacturer.sol\":1117:1433  function buyProductFromManufacturer(string memory _product)... */\n    tag_37:\n        /* \"Manufacturer.sol\":1228:1250  Product memory product */\n      0x00\n        /* \"Manufacturer.sol\":1253:1261  products */\n      0x03\n        /* \"Manufacturer.sol\":1253:1284  products[productHash(_product)] */\n      0x00\n        /* \"Manufacturer.sol\":1262:1283  productHash(_product) */\n      tag_72\n        /* \"Manufacturer.sol\":1274:1282  _product */\n      dup5\n        /* \"Manufacturer.sol\":1262:1273  productHash */\n      tag_41\n        /* \"Manufacturer.sol\":1262:1283  productHash(_product) */\n      jump\t// in\n    tag_72:\n        /* \"Manufacturer.sol\":1253:1284  products[productHash(_product)] */\n      dup2\n      mstore\n      0x20\n      add\n      swap1\n      dup2\n      mstore\n      0x20\n      add\n      0x00\n      keccak256\n        /* \"Manufacturer.sol\":1228:1284  Product memory product = products[productHash(_product)] */\n      mload(0x40)\n      dup1\n      0x40\n      add\n      0x40\n      mstore\n      swap1\n      dup2\n      0x00\n      dup3\n      add\n      dup1\n      sload\n      tag_73\n      swap1\n      tag_66\n      jump\t// in\n    tag_73:\n      dup1\n      0x1f\n      add\n      0x20\n      dup1\n      swap2\n      div\n      mul\n      0x20\n      add\n      mload(0x40)\n      swap1\n      dup2\n      add\n      0x40\n      mstore\n      dup1\n      swap3\n      swap2\n      swap1\n      dup2\n      dup2\n      mstore\n      0x20\n      add\n      dup3\n      dup1\n      sload\n      tag_74\n      swap1\n      tag_66\n      jump\t// in\n    tag_74:\n      dup1\n      iszero\n      tag_75\n      jumpi\n      dup1\n      0x1f\n      lt\n      tag_76\n      jumpi\n      0x0100\n      dup1\n      dup4\n      sload\n      div\n      mul\n      dup4\n      mstore\n      swap2\n      0x20\n      add\n      swap2\n      jump(tag_75)\n    tag_76:\n      dup3\n      add\n      swap2\n      swap1\n      0x00\n      mstore\n      keccak256(0x00, 0x20)\n      swap1\n    tag_77:\n      dup2\n      sload\n      dup2\n      mstore\n      swap1\n      0x01\n      add\n      swap1\n      0x20\n      add\n      dup1\n      dup4\n      gt\n      tag_77\n      jumpi\n      dup3\n      swap1\n      sub\n      0x1f\n      and\n      dup3\n      add\n      swap2\n    tag_75:\n      pop\n      pop\n      pop\n      pop\n      pop\n      dup2\n      mstore\n      0x20\n      add\n      0x01\n      dup3\n      add\n      sload\n      dup2\n      mstore\n      pop\n      pop\n      swap1\n      pop\n        /* \"Manufacturer.sol\":1295:1308  uint256 price */\n      0x00\n        /* \"Manufacturer.sol\":1311:1318  product */\n      dup2\n        /* \"Manufacturer.sol\":1311:1324  product.price */\n      0x20\n      add\n      mload\n        /* \"Manufacturer.sol\":1295:1324  uint256 price = product.price */\n      swap1\n      pop\n        /* \"Manufacturer.sol\":1356:1361  price */\n      dup1\n        /* \"Manufacturer.sol\":1343:1352  msg.value */\n      callvalue\n        /* \"Manufacturer.sol\":1343:1361  msg.value >= price */\n      lt\n      iszero\n        /* \"Manufacturer.sol\":1335:1362  require(msg.value >= price) */\n      tag_78\n      jumpi\n      0x00\n      dup1\n      revert\n    tag_78:\n        /* \"Manufacturer.sol\":1413:1423  msg.sender */\n      caller\n        /* \"Manufacturer.sol\":1373:1387  productToOwner */\n      0x04\n        /* \"Manufacturer.sol\":1373:1410  productToOwner[productHash(_product)] */\n      0x00\n        /* \"Manufacturer.sol\":1388:1409  productHash(_product) */\n      tag_79\n        /* \"Manufacturer.sol\":1400:1408  _product */\n      dup7\n        /* \"Manufacturer.sol\":1388:1399  productHash */\n      tag_41\n        /* \"Manufacturer.sol\":1388:1409  productHash(_product) */\n      jump\t// in\n    tag_79:\n        /* \"Manufacturer.sol\":1373:1410  productToOwner[productHash(_product)] */\n      dup2\n      mstore\n      0x20\n      add\n      swap1\n      dup2\n      mstore\n      0x20\n      add\n      0x00\n      keccak256\n      0x00\n        /* \"Manufacturer.sol\":1373:1423  productToOwner[productHash(_product)] = msg.sender */\n      0x0100\n      exp\n      dup2\n      sload\n      dup2\n      0xffffffffffffffffffffffffffffffffffffffff\n      mul\n      not\n      and\n      swap1\n      dup4\n      0xffffffffffffffffffffffffffffffffffffffff\n      and\n      mul\n      or\n      swap1\n      sstore\n      pop\n        /* \"Manufacturer.sol\":1217:1433  {... */\n      pop\n      pop\n        /* \"Manufacturer.sol\":1117:1433  function buyProductFromManufacturer(string memory _product)... */\n      pop\n      jump\t// out\n        /* \"Manufacturer.sol\":410:552  function productHash(string memory name) public view returns (bytes32) {... */\n    tag_41:\n        /* \"Manufacturer.sol\":472:479  bytes32 */\n      0x00\n        /* \"Manufacturer.sol\":520:524  name */\n      dup2\n        /* \"Manufacturer.sol\":526:542  stringForHashing */\n      0x01\n        /* \"Manufacturer.sol\":509:543  abi.encode(name, stringForHashing) */\n      add(0x20, mload(0x40))\n      tag_81\n      swap3\n      swap2\n      swap1\n      tag_82\n      jump\t// in\n    tag_81:\n      mload(0x40)\n      0x20\n      dup2\n      dup4\n      sub\n      sub\n      dup2\n      mstore\n      swap1\n      0x40\n      mstore\n        /* \"Manufacturer.sol\":499:544  keccak256(abi.encode(name, stringForHashing)) */\n      dup1\n      mload\n      swap1\n      0x20\n      add\n      keccak256\n        /* \"Manufacturer.sol\":492:544  return keccak256(abi.encode(name, stringForHashing)) */\n      swap1\n      pop\n        /* \"Manufacturer.sol\":410:552  function productHash(string memory name) public view returns (bytes32) {... */\n      swap2\n      swap1\n      pop\n      jump\t// out\n        /* \"Manufacturer.sol\":1441:1541  function newRetailStore() external {... */\n    tag_46:\n        /* \"Manufacturer.sol\":1487:1499  retailStores */\n      0x02\n        /* \"Manufacturer.sol\":1521:1531  msg.sender */\n      caller\n        /* \"Manufacturer.sol\":1505:1532  new RetailStore(msg.sender) */\n      mload(0x40)\n      tag_84\n      swap1\n      tag_85\n      jump\t// in\n    tag_84:\n      tag_86\n      swap2\n      swap1\n      tag_26\n      jump\t// in\n    tag_86:\n      mload(0x40)\n      dup1\n      swap2\n      sub\n      swap1\n      0x00\n      create\n      dup1\n      iszero\n      dup1\n      iszero\n      tag_87\n      jumpi\n      returndatasize\n      0x00\n      dup1\n      returndatacopy\n      revert(0x00, returndatasize)\n    tag_87:\n      pop\n        /* \"Manufacturer.sol\":1487:1533  retailStores.push(new RetailStore(msg.sender)) */\n      swap1\n      dup1\n      0x01\n      dup2\n      sload\n      add\n      dup1\n      dup3\n      sstore\n      dup1\n      swap2\n      pop\n      pop\n      0x01\n      swap1\n      sub\n      swap1\n      0x00\n      mstore\n      keccak256(0x00, 0x20)\n      add\n      0x00\n      swap1\n      swap2\n      swap1\n      swap2\n      swap1\n      swap2\n      0x0100\n      exp\n      dup2\n      sload\n      dup2\n      0xffffffffffffffffffffffffffffffffffffffff\n      mul\n      not\n      and\n      swap1\n      dup4\n      0xffffffffffffffffffffffffffffffffffffffff\n      and\n      mul\n      or\n      swap1\n      sstore\n      pop\n        /* \"Manufacturer.sol\":1441:1541  function newRetailStore() external {... */\n      jump\t// out\n        /* \"Manufacturer.sol\":1913:2089  function viewOwner(string memory productName)... */\n    tag_50:\n        /* \"Manufacturer.sol\":2009:2016  address */\n      0x00\n        /* \"Manufacturer.sol\":2041:2055  productToOwner */\n      0x04\n        /* \"Manufacturer.sol\":2041:2081  productToOwner[productHash(productName)] */\n      0x00\n        /* \"Manufacturer.sol\":2056:2080  productHash(productName) */\n      tag_90\n        /* \"Manufacturer.sol\":2068:2079  productName */\n      dup5\n        /* \"Manufacturer.sol\":2056:2067  productHash */\n      tag_41\n        /* \"Manufacturer.sol\":2056:2080  productHash(productName) */\n      jump\t// in\n    tag_90:\n        /* \"Manufacturer.sol\":2041:2081  productToOwner[productHash(productName)] */\n      dup2\n      mstore\n      0x20\n      add\n      swap1\n      dup2\n      mstore\n      0x20\n      add\n      0x00\n      keccak256\n      0x00\n      swap1\n      sload\n      swap1\n      0x0100\n      exp\n      swap1\n      div\n      0xffffffffffffffffffffffffffffffffffffffff\n      and\n        /* \"Manufacturer.sol\":2034:2081  return productToOwner[productHash(productName)] */\n      swap1\n      pop\n        /* \"Manufacturer.sol\":1913:2089  function viewOwner(string memory productName)... */\n      swap2\n      swap1\n      pop\n      jump\t// out\n        /* \"Manufacturer.sol\":2097:2282  function viewProductPrice(string memory _productName)... */\n    tag_55:\n        /* \"Manufacturer.sol\":2201:2208  uint256 */\n      0x00\n        /* \"Manufacturer.sol\":2233:2241  products */\n      0x03\n        /* \"Manufacturer.sol\":2233:2268  products[productHash(_productName)] */\n      0x00\n        /* \"Manufacturer.sol\":2242:2267  productHash(_productName) */\n      tag_92\n        /* \"Manufacturer.sol\":2254:2266  _productName */\n      dup5\n        /* \"Manufacturer.sol\":2242:2253  productHash */\n      tag_41\n        /* \"Manufacturer.sol\":2242:2267  productHash(_productName) */\n      jump\t// in\n    tag_92:\n        /* \"Manufacturer.sol\":2233:2268  products[productHash(_productName)] */\n      dup2\n      mstore\n      0x20\n      add\n      swap1\n      dup2\n      mstore\n      0x20\n      add\n      0x00\n      keccak256\n        /* \"Manufacturer.sol\":2233:2274  products[productHash(_productName)].price */\n      0x01\n      add\n      sload\n        /* \"Manufacturer.sol\":2226:2274  return products[productHash(_productName)].price */\n      swap1\n      pop\n        /* \"Manufacturer.sol\":2097:2282  function viewProductPrice(string memory _productName)... */\n      swap2\n      swap1\n      pop\n      jump\t// out\n    tag_85:\n      dataSize(sub_0)\n      dup1\n      dataOffset(sub_0)\n      dup4\n      codecopy\n      add\n      swap1\n      jump\t// out\n        /* \"#utility.yul\":7:140   */\n    tag_93:\n        /* \"#utility.yul\":93:99   */\n      0x00\n        /* \"#utility.yul\":127:132   */\n      dup2\n        /* \"#utility.yul\":121:133   */\n      mload\n        /* \"#utility.yul\":111:133   */\n      swap1\n      pop\n        /* \"#utility.yul\":7:140   */\n      swap2\n      swap1\n      pop\n      jump\t// out\n        /* \"#utility.yul\":146:330   */\n    tag_94:\n        /* \"#utility.yul\":245:256   */\n      0x00\n        /* \"#utility.yul\":279:285   */\n      dup3\n        /* \"#utility.yul\":274:277   */\n      dup3\n        /* \"#utility.yul\":267:286   */\n      mstore\n        /* \"#utility.yul\":319:323   */\n      0x20\n        /* \"#utility.yul\":314:317   */\n      dup3\n        /* \"#utility.yul\":310:324   */\n      add\n        /* \"#utility.yul\":295:324   */\n      swap1\n      pop\n        /* \"#utility.yul\":146:330   */\n      swap3\n      swap2\n      pop\n      pop\n      jump\t// out\n        /* \"#utility.yul\":336:487   */\n    tag_95:\n        /* \"#utility.yul\":422:426   */\n      0x00\n        /* \"#utility.yul\":445:448   */\n      dup2\n        /* \"#utility.yul\":437:448   */\n      swap1\n      pop\n        /* \"#utility.yul\":475:479   */\n      0x20\n        /* \"#utility.yul\":470:473   */\n      dup3\n        /* \"#utility.yul\":466:480   */\n      add\n        /* \"#utility.yul\":458:480   */\n      swap1\n      pop\n        /* \"#utility.yul\":336:487   */\n      swap2\n      swap1\n      pop\n      jump\t// out\n        /* \"#utility.yul\":493:619   */\n    tag_96:\n        /* \"#utility.yul\":530:537   */\n      0x00\n        /* \"#utility.yul\":570:612   */\n      0xffffffffffffffffffffffffffffffffffffffff\n        /* \"#utility.yul\":563:568   */\n      dup3\n        /* \"#utility.yul\":559:613   */\n      and\n        /* \"#utility.yul\":548:613   */\n      swap1\n      pop\n        /* \"#utility.yul\":493:619   */\n      swap2\n      swap1\n      pop\n      jump\t// out\n        /* \"#utility.yul\":625:685   */\n    tag_97:\n        /* \"#utility.yul\":653:656   */\n      0x00\n        /* \"#utility.yul\":674:679   */\n      dup2\n        /* \"#utility.yul\":667:679   */\n      swap1\n      pop\n        /* \"#utility.yul\":625:685   */\n      swap2\n      swap1\n      pop\n      jump\t// out\n        /* \"#utility.yul\":691:833   */\n    tag_98:\n        /* \"#utility.yul\":741:750   */\n      0x00\n        /* \"#utility.yul\":774:827   */\n      tag_142\n        /* \"#utility.yul\":792:826   */\n      tag_143\n        /* \"#utility.yul\":801:825   */\n      tag_144\n        /* \"#utility.yul\":819:824   */\n      dup5\n        /* \"#utility.yul\":801:825   */\n      tag_96\n      jump\t// in\n    tag_144:\n        /* \"#utility.yul\":792:826   */\n      tag_97\n      jump\t// in\n    tag_143:\n        /* \"#utility.yul\":774:827   */\n      tag_96\n      jump\t// in\n    tag_142:\n        /* \"#utility.yul\":761:827   */\n      swap1\n      pop\n        /* \"#utility.yul\":691:833   */\n      swap2\n      swap1\n      pop\n      jump\t// out\n        /* \"#utility.yul\":839:965   */\n    tag_99:\n        /* \"#utility.yul\":889:898   */\n      0x00\n        /* \"#utility.yul\":922:959   */\n      tag_146\n        /* \"#utility.yul\":953:958   */\n      dup3\n        /* \"#utility.yul\":922:959   */\n      tag_98\n      jump\t// in\n    tag_146:\n        /* \"#utility.yul\":909:959   */\n      swap1\n      pop\n        /* \"#utility.yul\":839:965   */\n      swap2\n      swap1\n      pop\n      jump\t// out\n        /* \"#utility.yul\":971:1116   */\n    tag_100:\n        /* \"#utility.yul\":1040:1049   */\n      0x00\n        /* \"#utility.yul\":1073:1110   */\n      tag_148\n        /* \"#utility.yul\":1104:1109   */\n      dup3\n        /* \"#utility.yul\":1073:1110   */\n      tag_99\n      jump\t// in\n    tag_148:\n        /* \"#utility.yul\":1060:1110   */\n      swap1\n      pop\n        /* \"#utility.yul\":971:1116   */\n      swap2\n      swap1\n      pop\n      jump\t// out\n        /* \"#utility.yul\":1122:1281   */\n    tag_101:\n        /* \"#utility.yul\":1218:1274   */\n      tag_150\n        /* \"#utility.yul\":1268:1273   */\n      dup2\n        /* \"#utility.yul\":1218:1274   */\n      tag_100\n      jump\t// in\n    tag_150:\n        /* \"#utility.yul\":1213:1216   */\n      dup3\n        /* \"#utility.yul\":1206:1275   */\n      mstore\n        /* \"#utility.yul\":1122:1281   */\n      pop\n      pop\n      jump\t// out\n        /* \"#utility.yul\":1287:1504   */\n    tag_102:\n        /* \"#utility.yul\":1375:1385   */\n      0x00\n        /* \"#utility.yul\":1396:1461   */\n      tag_152\n        /* \"#utility.yul\":1457:1460   */\n      dup4\n        /* \"#utility.yul\":1449:1455   */\n      dup4\n        /* \"#utility.yul\":1396:1461   */\n      tag_101\n      jump\t// in\n    tag_152:\n        /* \"#utility.yul\":1493:1497   */\n      0x20\n        /* \"#utility.yul\":1488:1491   */\n      dup4\n        /* \"#utility.yul\":1484:1498   */\n      add\n        /* \"#utility.yul\":1470:1498   */\n      swap1\n      pop\n        /* \"#utility.yul\":1287:1504   */\n      swap3\n      swap2\n      pop\n      pop\n      jump\t// out\n        /* \"#utility.yul\":1510:1642   */\n    tag_103:\n        /* \"#utility.yul\":1599:1603   */\n      0x00\n        /* \"#utility.yul\":1631:1635   */\n      0x20\n        /* \"#utility.yul\":1626:1629   */\n      dup3\n        /* \"#utility.yul\":1622:1636   */\n      add\n        /* \"#utility.yul\":1614:1636   */\n      swap1\n      pop\n        /* \"#utility.yul\":1510:1642   */\n      swap2\n      swap1\n      pop\n      jump\t// out\n        /* \"#utility.yul\":1691:2518   */\n    tag_104:\n        /* \"#utility.yul\":1829:1832   */\n      0x00\n        /* \"#utility.yul\":1858:1931   */\n      tag_155\n        /* \"#utility.yul\":1925:1930   */\n      dup3\n        /* \"#utility.yul\":1858:1931   */\n      tag_93\n      jump\t// in\n    tag_155:\n        /* \"#utility.yul\":1947:2033   */\n      tag_156\n        /* \"#utility.yul\":2026:2032   */\n      dup2\n        /* \"#utility.yul\":2021:2024   */\n      dup6\n        /* \"#utility.yul\":1947:2033   */\n      tag_94\n      jump\t// in\n    tag_156:\n        /* \"#utility.yul\":1940:2033   */\n      swap4\n      pop\n        /* \"#utility.yul\":2057:2132   */\n      tag_157\n        /* \"#utility.yul\":2126:2131   */\n      dup4\n        /* \"#utility.yul\":2057:2132   */\n      tag_95\n      jump\t// in\n    tag_157:\n        /* \"#utility.yul\":2155:2162   */\n      dup1\n        /* \"#utility.yul\":2186:2187   */\n      0x00\n        /* \"#utility.yul\":2171:2493   */\n    tag_158:\n        /* \"#utility.yul\":2196:2202   */\n      dup4\n        /* \"#utility.yul\":2193:2194   */\n      dup2\n        /* \"#utility.yul\":2190:2203   */\n      lt\n        /* \"#utility.yul\":2171:2493   */\n      iszero\n      tag_160\n      jumpi\n        /* \"#utility.yul\":2272:2278   */\n      dup2\n        /* \"#utility.yul\":2266:2279   */\n      mload\n        /* \"#utility.yul\":2299:2381   */\n      tag_161\n        /* \"#utility.yul\":2377:2380   */\n      dup9\n        /* \"#utility.yul\":2362:2375   */\n      dup3\n        /* \"#utility.yul\":2299:2381   */\n      tag_102\n      jump\t// in\n    tag_161:\n        /* \"#utility.yul\":2292:2381   */\n      swap8\n      pop\n        /* \"#utility.yul\":2404:2483   */\n      tag_162\n        /* \"#utility.yul\":2476:2482   */\n      dup4\n        /* \"#utility.yul\":2404:2483   */\n      tag_103\n      jump\t// in\n    tag_162:\n        /* \"#utility.yul\":2394:2483   */\n      swap3\n      pop\n        /* \"#utility.yul\":2231:2493   */\n      pop\n        /* \"#utility.yul\":2218:2219   */\n      0x01\n        /* \"#utility.yul\":2215:2216   */\n      dup2\n        /* \"#utility.yul\":2211:2220   */\n      add\n        /* \"#utility.yul\":2206:2220   */\n      swap1\n      pop\n        /* \"#utility.yul\":2171:2493   */\n      jump(tag_158)\n    tag_160:\n        /* \"#utility.yul\":2175:2189   */\n      pop\n        /* \"#utility.yul\":2509:2512   */\n      dup6\n        /* \"#utility.yul\":2502:2512   */\n      swap4\n      pop\n        /* \"#utility.yul\":1834:2518   */\n      pop\n      pop\n      pop\n        /* \"#utility.yul\":1691:2518   */\n      swap3\n      swap2\n      pop\n      pop\n      jump\t// out\n        /* \"#utility.yul\":2524:2935   */\n    tag_16:\n        /* \"#utility.yul\":2686:2690   */\n      0x00\n        /* \"#utility.yul\":2724:2726   */\n      0x20\n        /* \"#utility.yul\":2713:2722   */\n      dup3\n        /* \"#utility.yul\":2709:2727   */\n      add\n        /* \"#utility.yul\":2701:2727   */\n      swap1\n      pop\n        /* \"#utility.yul\":2773:2782   */\n      dup2\n        /* \"#utility.yul\":2767:2771   */\n      dup2\n        /* \"#utility.yul\":2763:2783   */\n      sub\n        /* \"#utility.yul\":2759:2760   */\n      0x00\n        /* \"#utility.yul\":2748:2757   */\n      dup4\n        /* \"#utility.yul\":2744:2761   */\n      add\n        /* \"#utility.yul\":2737:2784   */\n      mstore\n        /* \"#utility.yul\":2801:2928   */\n      tag_164\n        /* \"#utility.yul\":2923:2927   */\n      dup2\n        /* \"#utility.yul\":2914:2920   */\n      dup5\n        /* \"#utility.yul\":2801:2928   */\n      tag_104\n      jump\t// in\n    tag_164:\n        /* \"#utility.yul\":2793:2928   */\n      swap1\n      pop\n        /* \"#utility.yul\":2524:2935   */\n      swap3\n      swap2\n      pop\n      pop\n      jump\t// out\n        /* \"#utility.yul\":2941:3016   */\n    tag_105:\n        /* \"#utility.yul\":2974:2980   */\n      0x00\n        /* \"#utility.yul\":3007:3009   */\n      0x40\n        /* \"#utility.yul\":3001:3010   */\n      mload\n        /* \"#utility.yul\":2991:3010   */\n      swap1\n      pop\n        /* \"#utility.yul\":2941:3016   */\n      swap1\n      jump\t// out\n        /* \"#utility.yul\":3022:3139   */\n    tag_106:\n        /* \"#utility.yul\":3131:3132   */\n      0x00\n        /* \"#utility.yul\":3128:3129   */\n      dup1\n        /* \"#utility.yul\":3121:3133   */\n      revert\n        /* \"#utility.yul\":3145:3262   */\n    tag_107:\n        /* \"#utility.yul\":3254:3255   */\n      0x00\n        /* \"#utility.yul\":3251:3252   */\n      dup1\n        /* \"#utility.yul\":3244:3256   */\n      revert\n        /* \"#utility.yul\":3268:3385   */\n    tag_108:\n        /* \"#utility.yul\":3377:3378   */\n      0x00\n        /* \"#utility.yul\":3374:3375   */\n      dup1\n        /* \"#utility.yul\":3367:3379   */\n      revert\n        /* \"#utility.yul\":3391:3508   */\n    tag_109:\n        /* \"#utility.yul\":3500:3501   */\n      0x00\n        /* \"#utility.yul\":3497:3498   */\n      dup1\n        /* \"#utility.yul\":3490:3502   */\n      revert\n        /* \"#utility.yul\":3514:3616   */\n    tag_110:\n        /* \"#utility.yul\":3555:3561   */\n      0x00\n        /* \"#utility.yul\":3606:3608   */\n      0x1f\n        /* \"#utility.yul\":3602:3609   */\n      not\n        /* \"#utility.yul\":3597:3599   */\n      0x1f\n        /* \"#utility.yul\":3590:3595   */\n      dup4\n        /* \"#utility.yul\":3586:3600   */\n      add\n        /* \"#utility.yul\":3582:3610   */\n      and\n        /* \"#utility.yul\":3572:3610   */\n      swap1\n      pop\n        /* \"#utility.yul\":3514:3616   */\n      swap2\n      swap1\n      pop\n      jump\t// out\n        /* \"#utility.yul\":3622:3802   */\n    tag_111:\n        /* \"#utility.yul\":3670:3747   */\n      0x4e487b7100000000000000000000000000000000000000000000000000000000\n        /* \"#utility.yul\":3667:3668   */\n      0x00\n        /* \"#utility.yul\":3660:3748   */\n      mstore\n        /* \"#utility.yul\":3767:3771   */\n      0x41\n        /* \"#utility.yul\":3764:3765   */\n      0x04\n        /* \"#utility.yul\":3757:3772   */\n      mstore\n        /* \"#utility.yul\":3791:3795   */\n      0x24\n        /* \"#utility.yul\":3788:3789   */\n      0x00\n        /* \"#utility.yul\":3781:3796   */\n      revert\n        /* \"#utility.yul\":3808:4089   */\n    tag_112:\n        /* \"#utility.yul\":3891:3918   */\n      tag_173\n        /* \"#utility.yul\":3913:3917   */\n      dup3\n        /* \"#utility.yul\":3891:3918   */\n      tag_110\n      jump\t// in\n    tag_173:\n        /* \"#utility.yul\":3883:3889   */\n      dup2\n        /* \"#utility.yul\":3879:3919   */\n      add\n        /* \"#utility.yul\":4021:4027   */\n      dup2\n        /* \"#utility.yul\":4009:4019   */\n      dup2\n        /* \"#utility.yul\":4006:4028   */\n      lt\n        /* \"#utility.yul\":3985:4003   */\n      0xffffffffffffffff\n        /* \"#utility.yul\":3973:3983   */\n      dup3\n        /* \"#utility.yul\":3970:4004   */\n      gt\n        /* \"#utility.yul\":3967:4029   */\n      or\n        /* \"#utility.yul\":3964:4052   */\n      iszero\n      tag_174\n      jumpi\n        /* \"#utility.yul\":4032:4050   */\n      tag_175\n      tag_111\n      jump\t// in\n    tag_175:\n        /* \"#utility.yul\":3964:4052   */\n    tag_174:\n        /* \"#utility.yul\":4072:4082   */\n      dup1\n        /* \"#utility.yul\":4068:4070   */\n      0x40\n        /* \"#utility.yul\":4061:4083   */\n      mstore\n        /* \"#utility.yul\":3851:4089   */\n      pop\n        /* \"#utility.yul\":3808:4089   */\n      pop\n      pop\n      jump\t// out\n        /* \"#utility.yul\":4095:4224   */\n    tag_113:\n        /* \"#utility.yul\":4129:4135   */\n      0x00\n        /* \"#utility.yul\":4156:4176   */\n      tag_177\n      tag_105\n      jump\t// in\n    tag_177:\n        /* \"#utility.yul\":4146:4176   */\n      swap1\n      pop\n        /* \"#utility.yul\":4185:4218   */\n      tag_178\n        /* \"#utility.yul\":4213:4217   */\n      dup3\n        /* \"#utility.yul\":4205:4211   */\n      dup3\n        /* \"#utility.yul\":4185:4218   */\n      tag_112\n      jump\t// in\n    tag_178:\n        /* \"#utility.yul\":4095:4224   */\n      swap2\n      swap1\n      pop\n      jump\t// out\n        /* \"#utility.yul\":4230:4538   */\n    tag_114:\n        /* \"#utility.yul\":4292:4296   */\n      0x00\n        /* \"#utility.yul\":4382:4400   */\n      0xffffffffffffffff\n        /* \"#utility.yul\":4374:4380   */\n      dup3\n        /* \"#utility.yul\":4371:4401   */\n      gt\n        /* \"#utility.yul\":4368:4424   */\n      iszero\n      tag_180\n      jumpi\n        /* \"#utility.yul\":4404:4422   */\n      tag_181\n      tag_111\n      jump\t// in\n    tag_181:\n        /* \"#utility.yul\":4368:4424   */\n    tag_180:\n        /* \"#utility.yul\":4442:4471   */\n      tag_182\n        /* \"#utility.yul\":4464:4470   */\n      dup3\n        /* \"#utility.yul\":4442:4471   */\n      tag_110\n      jump\t// in\n    tag_182:\n        /* \"#utility.yul\":4434:4471   */\n      swap1\n      pop\n        /* \"#utility.yul\":4526:4530   */\n      0x20\n        /* \"#utility.yul\":4520:4524   */\n      dup2\n        /* \"#utility.yul\":4516:4531   */\n      add\n        /* \"#utility.yul\":4508:4531   */\n      swap1\n      pop\n        /* \"#utility.yul\":4230:4538   */\n      swap2\n      swap1\n      pop\n      jump\t// out\n        /* \"#utility.yul\":4544:4698   */\n    tag_115:\n        /* \"#utility.yul\":4628:4634   */\n      dup3\n        /* \"#utility.yul\":4623:4626   */\n      dup2\n        /* \"#utility.yul\":4618:4621   */\n      dup4\n        /* \"#utility.yul\":4605:4635   */\n      calldatacopy\n        /* \"#utility.yul\":4690:4691   */\n      0x00\n        /* \"#utility.yul\":4681:4687   */\n      dup4\n        /* \"#utility.yul\":4676:4679   */\n      dup4\n        /* \"#utility.yul\":4672:4688   */\n      add\n        /* \"#utility.yul\":4665:4692   */\n      mstore\n        /* \"#utility.yul\":4544:4698   */\n      pop\n      pop\n      pop\n      jump\t// out\n        /* \"#utility.yul\":4704:5116   */\n    tag_116:\n        /* \"#utility.yul\":4782:4787   */\n      0x00\n        /* \"#utility.yul\":4807:4873   */\n      tag_185\n        /* \"#utility.yul\":4823:4872   */\n      tag_186\n        /* \"#utility.yul\":4865:4871   */\n      dup5\n        /* \"#utility.yul\":4823:4872   */\n      tag_114\n      jump\t// in\n    tag_186:\n        /* \"#utility.yul\":4807:4873   */\n      tag_113\n      jump\t// in\n    tag_185:\n        /* \"#utility.yul\":4798:4873   */\n      swap1\n      pop\n        /* \"#utility.yul\":4896:4902   */\n      dup3\n        /* \"#utility.yul\":4889:4894   */\n      dup2\n        /* \"#utility.yul\":4882:4903   */\n      mstore\n        /* \"#utility.yul\":4934:4938   */\n      0x20\n        /* \"#utility.yul\":4927:4932   */\n      dup2\n        /* \"#utility.yul\":4923:4939   */\n      add\n        /* \"#utility.yul\":4972:4975   */\n      dup5\n        /* \"#utility.yul\":4963:4969   */\n      dup5\n        /* \"#utility.yul\":4958:4961   */\n      dup5\n        /* \"#utility.yul\":4954:4970   */\n      add\n        /* \"#utility.yul\":4951:4976   */\n      gt\n        /* \"#utility.yul\":4948:5060   */\n      iszero\n      tag_187\n      jumpi\n        /* \"#utility.yul\":4979:5058   */\n      tag_188\n      tag_109\n      jump\t// in\n    tag_188:\n        /* \"#utility.yul\":4948:5060   */\n    tag_187:\n        /* \"#utility.yul\":5069:5110   */\n      tag_189\n        /* \"#utility.yul\":5103:5109   */\n      dup5\n        /* \"#utility.yul\":5098:5101   */\n      dup3\n        /* \"#utility.yul\":5093:5096   */\n      dup6\n        /* \"#utility.yul\":5069:5110   */\n      tag_115\n      jump\t// in\n    tag_189:\n        /* \"#utility.yul\":4788:5116   */\n      pop\n        /* \"#utility.yul\":4704:5116   */\n      swap4\n      swap3\n      pop\n      pop\n      pop\n      jump\t// out\n        /* \"#utility.yul\":5136:5476   */\n    tag_117:\n        /* \"#utility.yul\":5192:5197   */\n      0x00\n        /* \"#utility.yul\":5241:5244   */\n      dup3\n        /* \"#utility.yul\":5234:5238   */\n      0x1f\n        /* \"#utility.yul\":5226:5232   */\n      dup4\n        /* \"#utility.yul\":5222:5239   */\n      add\n        /* \"#utility.yul\":5218:5245   */\n      slt\n        /* \"#utility.yul\":5208:5330   */\n      tag_191\n      jumpi\n        /* \"#utility.yul\":5249:5328   */\n      tag_192\n      tag_108\n      jump\t// in\n    tag_192:\n        /* \"#utility.yul\":5208:5330   */\n    tag_191:\n        /* \"#utility.yul\":5366:5372   */\n      dup2\n        /* \"#utility.yul\":5353:5373   */\n      calldataload\n        /* \"#utility.yul\":5391:5470   */\n      tag_193\n        /* \"#utility.yul\":5466:5469   */\n      dup5\n        /* \"#utility.yul\":5458:5464   */\n      dup3\n        /* \"#utility.yul\":5451:5455   */\n      0x20\n        /* \"#utility.yul\":5443:5449   */\n      dup7\n        /* \"#utility.yul\":5439:5456   */\n      add\n        /* \"#utility.yul\":5391:5470   */\n      tag_116\n      jump\t// in\n    tag_193:\n        /* \"#utility.yul\":5382:5470   */\n      swap2\n      pop\n        /* \"#utility.yul\":5198:5476   */\n      pop\n        /* \"#utility.yul\":5136:5476   */\n      swap3\n      swap2\n      pop\n      pop\n      jump\t// out\n        /* \"#utility.yul\":5482:5578   */\n    tag_118:\n        /* \"#utility.yul\":5519:5526   */\n      0x00\n        /* \"#utility.yul\":5548:5572   */\n      tag_195\n        /* \"#utility.yul\":5566:5571   */\n      dup3\n        /* \"#utility.yul\":5548:5572   */\n      tag_96\n      jump\t// in\n    tag_195:\n        /* \"#utility.yul\":5537:5572   */\n      swap1\n      pop\n        /* \"#utility.yul\":5482:5578   */\n      swap2\n      swap1\n      pop\n      jump\t// out\n        /* \"#utility.yul\":5584:5706   */\n    tag_119:\n        /* \"#utility.yul\":5657:5681   */\n      tag_197\n        /* \"#utility.yul\":5675:5680   */\n      dup2\n        /* \"#utility.yul\":5657:5681   */\n      tag_118\n      jump\t// in\n    tag_197:\n        /* \"#utility.yul\":5650:5655   */\n      dup2\n        /* \"#utility.yul\":5647:5682   */\n      eq\n        /* \"#utility.yul\":5637:5700   */\n      tag_198\n      jumpi\n        /* \"#utility.yul\":5696:5697   */\n      0x00\n        /* \"#utility.yul\":5693:5694   */\n      dup1\n        /* \"#utility.yul\":5686:5698   */\n      revert\n        /* \"#utility.yul\":5637:5700   */\n    tag_198:\n        /* \"#utility.yul\":5584:5706   */\n      pop\n      jump\t// out\n        /* \"#utility.yul\":5712:5851   */\n    tag_120:\n        /* \"#utility.yul\":5758:5763   */\n      0x00\n        /* \"#utility.yul\":5796:5802   */\n      dup2\n        /* \"#utility.yul\":5783:5803   */\n      calldataload\n        /* \"#utility.yul\":5774:5803   */\n      swap1\n      pop\n        /* \"#utility.yul\":5812:5845   */\n      tag_200\n        /* \"#utility.yul\":5839:5844   */\n      dup2\n        /* \"#utility.yul\":5812:5845   */\n      tag_119\n      jump\t// in\n    tag_200:\n        /* \"#utility.yul\":5712:5851   */\n      swap3\n      swap2\n      pop\n      pop\n      jump\t// out\n        /* \"#utility.yul\":5857:6656   */\n    tag_20:\n        /* \"#utility.yul\":5944:5950   */\n      0x00\n        /* \"#utility.yul\":5952:5958   */\n      dup1\n        /* \"#utility.yul\":5960:5966   */\n      0x00\n        /* \"#utility.yul\":6009:6011   */\n      0x60\n        /* \"#utility.yul\":5997:6006   */\n      dup5\n        /* \"#utility.yul\":5988:5995   */\n      dup7\n        /* \"#utility.yul\":5984:6007   */\n      sub\n        /* \"#utility.yul\":5980:6012   */\n      slt\n        /* \"#utility.yul\":5977:6096   */\n      iszero\n      tag_202\n      jumpi\n        /* \"#utility.yul\":6015:6094   */\n      tag_203\n      tag_106\n      jump\t// in\n    tag_203:\n        /* \"#utility.yul\":5977:6096   */\n    tag_202:\n        /* \"#utility.yul\":6163:6164   */\n      0x00\n        /* \"#utility.yul\":6152:6161   */\n      dup5\n        /* \"#utility.yul\":6148:6165   */\n      add\n        /* \"#utility.yul\":6135:6166   */\n      calldataload\n        /* \"#utility.yul\":6193:6211   */\n      0xffffffffffffffff\n        /* \"#utility.yul\":6185:6191   */\n      dup2\n        /* \"#utility.yul\":6182:6212   */\n      gt\n        /* \"#utility.yul\":6179:6296   */\n      iszero\n      tag_204\n      jumpi\n        /* \"#utility.yul\":6215:6294   */\n      tag_205\n      tag_107\n      jump\t// in\n    tag_205:\n        /* \"#utility.yul\":6179:6296   */\n    tag_204:\n        /* \"#utility.yul\":6320:6383   */\n      tag_206\n        /* \"#utility.yul\":6375:6382   */\n      dup7\n        /* \"#utility.yul\":6366:6372   */\n      dup3\n        /* \"#utility.yul\":6355:6364   */\n      dup8\n        /* \"#utility.yul\":6351:6373   */\n      add\n        /* \"#utility.yul\":6320:6383   */\n      tag_117\n      jump\t// in\n    tag_206:\n        /* \"#utility.yul\":6310:6383   */\n      swap4\n      pop\n        /* \"#utility.yul\":6106:6393   */\n      pop\n        /* \"#utility.yul\":6432:6434   */\n      0x20\n        /* \"#utility.yul\":6458:6511   */\n      tag_207\n        /* \"#utility.yul\":6503:6510   */\n      dup7\n        /* \"#utility.yul\":6494:6500   */\n      dup3\n        /* \"#utility.yul\":6483:6492   */\n      dup8\n        /* \"#utility.yul\":6479:6501   */\n      add\n        /* \"#utility.yul\":6458:6511   */\n      tag_120\n      jump\t// in\n    tag_207:\n        /* \"#utility.yul\":6448:6511   */\n      swap3\n      pop\n        /* \"#utility.yul\":6403:6521   */\n      pop\n        /* \"#utility.yul\":6560:6562   */\n      0x40\n        /* \"#utility.yul\":6586:6639   */\n      tag_208\n        /* \"#utility.yul\":6631:6638   */\n      dup7\n        /* \"#utility.yul\":6622:6628   */\n      dup3\n        /* \"#utility.yul\":6611:6620   */\n      dup8\n        /* \"#utility.yul\":6607:6629   */\n      add\n        /* \"#utility.yul\":6586:6639   */\n      tag_120\n      jump\t// in\n    tag_208:\n        /* \"#utility.yul\":6576:6639   */\n      swap2\n      pop\n        /* \"#utility.yul\":6531:6649   */\n      pop\n        /* \"#utility.yul\":5857:6656   */\n      swap3\n      pop\n      swap3\n      pop\n      swap3\n      jump\t// out\n        /* \"#utility.yul\":6662:6780   */\n    tag_121:\n        /* \"#utility.yul\":6749:6773   */\n      tag_210\n        /* \"#utility.yul\":6767:6772   */\n      dup2\n        /* \"#utility.yul\":6749:6773   */\n      tag_118\n      jump\t// in\n    tag_210:\n        /* \"#utility.yul\":6744:6747   */\n      dup3\n        /* \"#utility.yul\":6737:6774   */\n      mstore\n        /* \"#utility.yul\":6662:6780   */\n      pop\n      pop\n      jump\t// out\n        /* \"#utility.yul\":6786:7008   */\n    tag_26:\n        /* \"#utility.yul\":6879:6883   */\n      0x00\n        /* \"#utility.yul\":6917:6919   */\n      0x20\n        /* \"#utility.yul\":6906:6915   */\n      dup3\n        /* \"#utility.yul\":6902:6920   */\n      add\n        /* \"#utility.yul\":6894:6920   */\n      swap1\n      pop\n        /* \"#utility.yul\":6930:7001   */\n      tag_212\n        /* \"#utility.yul\":6998:6999   */\n      0x00\n        /* \"#utility.yul\":6987:6996   */\n      dup4\n        /* \"#utility.yul\":6983:7000   */\n      add\n        /* \"#utility.yul\":6974:6980   */\n      dup5\n        /* \"#utility.yul\":6930:7001   */\n      tag_121\n      jump\t// in\n    tag_212:\n        /* \"#utility.yul\":6786:7008   */\n      swap3\n      swap2\n      pop\n      pop\n      jump\t// out\n        /* \"#utility.yul\":7014:7091   */\n    tag_122:\n        /* \"#utility.yul\":7051:7058   */\n      0x00\n        /* \"#utility.yul\":7080:7085   */\n      dup2\n        /* \"#utility.yul\":7069:7085   */\n      swap1\n      pop\n        /* \"#utility.yul\":7014:7091   */\n      swap2\n      swap1\n      pop\n      jump\t// out\n        /* \"#utility.yul\":7097:7219   */\n    tag_123:\n        /* \"#utility.yul\":7170:7194   */\n      tag_215\n        /* \"#utility.yul\":7188:7193   */\n      dup2\n        /* \"#utility.yul\":7170:7194   */\n      tag_122\n      jump\t// in\n    tag_215:\n        /* \"#utility.yul\":7163:7168   */\n      dup2\n        /* \"#utility.yul\":7160:7195   */\n      eq\n        /* \"#utility.yul\":7150:7213   */\n      tag_216\n      jumpi\n        /* \"#utility.yul\":7209:7210   */\n      0x00\n        /* \"#utility.yul\":7206:7207   */\n      dup1\n        /* \"#utility.yul\":7199:7211   */\n      revert\n        /* \"#utility.yul\":7150:7213   */\n    tag_216:\n        /* \"#utility.yul\":7097:7219   */\n      pop\n      jump\t// out\n        /* \"#utility.yul\":7225:7364   */\n    tag_124:\n        /* \"#utility.yul\":7271:7276   */\n      0x00\n        /* \"#utility.yul\":7309:7315   */\n      dup2\n        /* \"#utility.yul\":7296:7316   */\n      calldataload\n        /* \"#utility.yul\":7287:7316   */\n      swap1\n      pop\n        /* \"#utility.yul\":7325:7358   */\n      tag_218\n        /* \"#utility.yul\":7352:7357   */\n      dup2\n        /* \"#utility.yul\":7325:7358   */\n      tag_123\n      jump\t// in\n    tag_218:\n        /* \"#utility.yul\":7225:7364   */\n      swap3\n      swap2\n      pop\n      pop\n      jump\t// out\n        /* \"#utility.yul\":7370:7699   */\n    tag_30:\n        /* \"#utility.yul\":7429:7435   */\n      0x00\n        /* \"#utility.yul\":7478:7480   */\n      0x20\n        /* \"#utility.yul\":7466:7475   */\n      dup3\n        /* \"#utility.yul\":7457:7464   */\n      dup5\n        /* \"#utility.yul\":7453:7476   */\n      sub\n        /* \"#utility.yul\":7449:7481   */\n      slt\n        /* \"#utility.yul\":7446:7565   */\n      iszero\n      tag_220\n      jumpi\n        /* \"#utility.yul\":7484:7563   */\n      tag_221\n      tag_106\n      jump\t// in\n    tag_221:\n        /* \"#utility.yul\":7446:7565   */\n    tag_220:\n        /* \"#utility.yul\":7604:7605   */\n      0x00\n        /* \"#utility.yul\":7629:7682   */\n      tag_222\n        /* \"#utility.yul\":7674:7681   */\n      dup5\n        /* \"#utility.yul\":7665:7671   */\n      dup3\n        /* \"#utility.yul\":7654:7663   */\n      dup6\n        /* \"#utility.yul\":7650:7672   */\n      add\n        /* \"#utility.yul\":7629:7682   */\n      tag_124\n      jump\t// in\n    tag_222:\n        /* \"#utility.yul\":7619:7682   */\n      swap2\n      pop\n        /* \"#utility.yul\":7575:7692   */\n      pop\n        /* \"#utility.yul\":7370:7699   */\n      swap3\n      swap2\n      pop\n      pop\n      jump\t// out\n        /* \"#utility.yul\":7705:7804   */\n    tag_125:\n        /* \"#utility.yul\":7757:7763   */\n      0x00\n        /* \"#utility.yul\":7791:7796   */\n      dup2\n        /* \"#utility.yul\":7785:7797   */\n      mload\n        /* \"#utility.yul\":7775:7797   */\n      swap1\n      pop\n        /* \"#utility.yul\":7705:7804   */\n      swap2\n      swap1\n      pop\n      jump\t// out\n        /* \"#utility.yul\":7810:7979   */\n    tag_126:\n        /* \"#utility.yul\":7894:7905   */\n      0x00\n        /* \"#utility.yul\":7928:7934   */\n      dup3\n        /* \"#utility.yul\":7923:7926   */\n      dup3\n        /* \"#utility.yul\":7916:7935   */\n      mstore\n        /* \"#utility.yul\":7968:7972   */\n      0x20\n        /* \"#utility.yul\":7963:7966   */\n      dup3\n        /* \"#utility.yul\":7959:7973   */\n      add\n        /* \"#utility.yul\":7944:7973   */\n      swap1\n      pop\n        /* \"#utility.yul\":7810:7979   */\n      swap3\n      swap2\n      pop\n      pop\n      jump\t// out\n        /* \"#utility.yul\":7985:8292   */\n    tag_127:\n        /* \"#utility.yul\":8053:8054   */\n      0x00\n        /* \"#utility.yul\":8063:8176   */\n    tag_226:\n        /* \"#utility.yul\":8077:8083   */\n      dup4\n        /* \"#utility.yul\":8074:8075   */\n      dup2\n        /* \"#utility.yul\":8071:8084   */\n      lt\n        /* \"#utility.yul\":8063:8176   */\n      iszero\n      tag_228\n      jumpi\n        /* \"#utility.yul\":8162:8163   */\n      dup1\n        /* \"#utility.yul\":8157:8160   */\n      dup3\n        /* \"#utility.yul\":8153:8164   */\n      add\n        /* \"#utility.yul\":8147:8165   */\n      mload\n        /* \"#utility.yul\":8143:8144   */\n      dup2\n        /* \"#utility.yul\":8138:8141   */\n      dup5\n        /* \"#utility.yul\":8134:8145   */\n      add\n        /* \"#utility.yul\":8127:8166   */\n      mstore\n        /* \"#utility.yul\":8099:8101   */\n      0x20\n        /* \"#utility.yul\":8096:8097   */\n      dup2\n        /* \"#utility.yul\":8092:8102   */\n      add\n        /* \"#utility.yul\":8087:8102   */\n      swap1\n      pop\n        /* \"#utility.yul\":8063:8176   */\n      jump(tag_226)\n    tag_228:\n        /* \"#utility.yul\":8194:8200   */\n      dup4\n        /* \"#utility.yul\":8191:8192   */\n      dup2\n        /* \"#utility.yul\":8188:8201   */\n      gt\n        /* \"#utility.yul\":8185:8286   */\n      iszero\n      tag_229\n      jumpi\n        /* \"#utility.yul\":8274:8275   */\n      0x00\n        /* \"#utility.yul\":8265:8271   */\n      dup5\n        /* \"#utility.yul\":8260:8263   */\n      dup5\n        /* \"#utility.yul\":8256:8272   */\n      add\n        /* \"#utility.yul\":8249:8276   */\n      mstore\n        /* \"#utility.yul\":8185:8286   */\n    tag_229:\n        /* \"#utility.yul\":8034:8292   */\n      pop\n        /* \"#utility.yul\":7985:8292   */\n      pop\n      pop\n      pop\n      jump\t// out\n        /* \"#utility.yul\":8298:8662   */\n    tag_128:\n        /* \"#utility.yul\":8386:8389   */\n      0x00\n        /* \"#utility.yul\":8414:8453   */\n      tag_231\n        /* \"#utility.yul\":8447:8452   */\n      dup3\n        /* \"#utility.yul\":8414:8453   */\n      tag_125\n      jump\t// in\n    tag_231:\n        /* \"#utility.yul\":8469:8540   */\n      tag_232\n        /* \"#utility.yul\":8533:8539   */\n      dup2\n        /* \"#utility.yul\":8528:8531   */\n      dup6\n        /* \"#utility.yul\":8469:8540   */\n      tag_126\n      jump\t// in\n    tag_232:\n        /* \"#utility.yul\":8462:8540   */\n      swap4\n      pop\n        /* \"#utility.yul\":8549:8601   */\n      tag_233\n        /* \"#utility.yul\":8594:8600   */\n      dup2\n        /* \"#utility.yul\":8589:8592   */\n      dup6\n        /* \"#utility.yul\":8582:8586   */\n      0x20\n        /* \"#utility.yul\":8575:8580   */\n      dup7\n        /* \"#utility.yul\":8571:8587   */\n      add\n        /* \"#utility.yul\":8549:8601   */\n      tag_127\n      jump\t// in\n    tag_233:\n        /* \"#utility.yul\":8626:8655   */\n      tag_234\n        /* \"#utility.yul\":8648:8654   */\n      dup2\n        /* \"#utility.yul\":8626:8655   */\n      tag_110\n      jump\t// in\n    tag_234:\n        /* \"#utility.yul\":8621:8624   */\n      dup5\n        /* \"#utility.yul\":8617:8656   */\n      add\n        /* \"#utility.yul\":8610:8656   */\n      swap2\n      pop\n        /* \"#utility.yul\":8390:8662   */\n      pop\n        /* \"#utility.yul\":8298:8662   */\n      swap3\n      swap2\n      pop\n      pop\n      jump\t// out\n        /* \"#utility.yul\":8668:8745   */\n    tag_129:\n        /* \"#utility.yul\":8705:8712   */\n      0x00\n        /* \"#utility.yul\":8734:8739   */\n      dup2\n        /* \"#utility.yul\":8723:8739   */\n      swap1\n      pop\n        /* \"#utility.yul\":8668:8745   */\n      swap2\n      swap1\n      pop\n      jump\t// out\n        /* \"#utility.yul\":8751:8869   */\n    tag_130:\n        /* \"#utility.yul\":8838:8862   */\n      tag_237\n        /* \"#utility.yul\":8856:8861   */\n      dup2\n        /* \"#utility.yul\":8838:8862   */\n      tag_129\n      jump\t// in\n    tag_237:\n        /* \"#utility.yul\":8833:8836   */\n      dup3\n        /* \"#utility.yul\":8826:8863   */\n      mstore\n        /* \"#utility.yul\":8751:8869   */\n      pop\n      pop\n      jump\t// out\n        /* \"#utility.yul\":8875:9298   */\n    tag_33:\n        /* \"#utility.yul\":9016:9020   */\n      0x00\n        /* \"#utility.yul\":9054:9056   */\n      0x40\n        /* \"#utility.yul\":9043:9052   */\n      dup3\n        /* \"#utility.yul\":9039:9057   */\n      add\n        /* \"#utility.yul\":9031:9057   */\n      swap1\n      pop\n        /* \"#utility.yul\":9103:9112   */\n      dup2\n        /* \"#utility.yul\":9097:9101   */\n      dup2\n        /* \"#utility.yul\":9093:9113   */\n      sub\n        /* \"#utility.yul\":9089:9090   */\n      0x00\n        /* \"#utility.yul\":9078:9087   */\n      dup4\n        /* \"#utility.yul\":9074:9091   */\n      add\n        /* \"#utility.yul\":9067:9114   */\n      mstore\n        /* \"#utility.yul\":9131:9209   */\n      tag_239\n        /* \"#utility.yul\":9204:9208   */\n      dup2\n        /* \"#utility.yul\":9195:9201   */\n      dup6\n        /* \"#utility.yul\":9131:9209   */\n      tag_128\n      jump\t// in\n    tag_239:\n        /* \"#utility.yul\":9123:9209   */\n      swap1\n      pop\n        /* \"#utility.yul\":9219:9291   */\n      tag_240\n        /* \"#utility.yul\":9287:9289   */\n      0x20\n        /* \"#utility.yul\":9276:9285   */\n      dup4\n        /* \"#utility.yul\":9272:9290   */\n      add\n        /* \"#utility.yul\":9263:9269   */\n      dup5\n        /* \"#utility.yul\":9219:9291   */\n      tag_130\n      jump\t// in\n    tag_240:\n        /* \"#utility.yul\":8875:9298   */\n      swap4\n      swap3\n      pop\n      pop\n      pop\n      jump\t// out\n        /* \"#utility.yul\":9304:9813   */\n    tag_36:\n        /* \"#utility.yul\":9373:9379   */\n      0x00\n        /* \"#utility.yul\":9422:9424   */\n      0x20\n        /* \"#utility.yul\":9410:9419   */\n      dup3\n        /* \"#utility.yul\":9401:9408   */\n      dup5\n        /* \"#utility.yul\":9397:9420   */\n      sub\n        /* \"#utility.yul\":9393:9425   */\n      slt\n        /* \"#utility.yul\":9390:9509   */\n      iszero\n      tag_242\n      jumpi\n        /* \"#utility.yul\":9428:9507   */\n      tag_243\n      tag_106\n      jump\t// in\n    tag_243:\n        /* \"#utility.yul\":9390:9509   */\n    tag_242:\n        /* \"#utility.yul\":9576:9577   */\n      0x00\n        /* \"#utility.yul\":9565:9574   */\n      dup3\n        /* \"#utility.yul\":9561:9578   */\n      add\n        /* \"#utility.yul\":9548:9579   */\n      calldataload\n        /* \"#utility.yul\":9606:9624   */\n      0xffffffffffffffff\n        /* \"#utility.yul\":9598:9604   */\n      dup2\n        /* \"#utility.yul\":9595:9625   */\n      gt\n        /* \"#utility.yul\":9592:9709   */\n      iszero\n      tag_244\n      jumpi\n        /* \"#utility.yul\":9628:9707   */\n      tag_245\n      tag_107\n      jump\t// in\n    tag_245:\n        /* \"#utility.yul\":9592:9709   */\n    tag_244:\n        /* \"#utility.yul\":9733:9796   */\n      tag_246\n        /* \"#utility.yul\":9788:9795   */\n      dup5\n        /* \"#utility.yul\":9779:9785   */\n      dup3\n        /* \"#utility.yul\":9768:9777   */\n      dup6\n        /* \"#utility.yul\":9764:9786   */\n      add\n        /* \"#utility.yul\":9733:9796   */\n      tag_117\n      jump\t// in\n    tag_246:\n        /* \"#utility.yul\":9723:9796   */\n      swap2\n      pop\n        /* \"#utility.yul\":9519:9806   */\n      pop\n        /* \"#utility.yul\":9304:9813   */\n      swap3\n      swap2\n      pop\n      pop\n      jump\t// out\n        /* \"#utility.yul\":9819:9937   */\n    tag_131:\n        /* \"#utility.yul\":9906:9930   */\n      tag_248\n        /* \"#utility.yul\":9924:9929   */\n      dup2\n        /* \"#utility.yul\":9906:9930   */\n      tag_122\n      jump\t// in\n    tag_248:\n        /* \"#utility.yul\":9901:9904   */\n      dup3\n        /* \"#utility.yul\":9894:9931   */\n      mstore\n        /* \"#utility.yul\":9819:9937   */\n      pop\n      pop\n      jump\t// out\n        /* \"#utility.yul\":9943:10165   */\n    tag_43:\n        /* \"#utility.yul\":10036:10040   */\n      0x00\n        /* \"#utility.yul\":10074:10076   */\n      0x20\n        /* \"#utility.yul\":10063:10072   */\n      dup3\n        /* \"#utility.yul\":10059:10077   */\n      add\n        /* \"#utility.yul\":10051:10077   */\n      swap1\n      pop\n        /* \"#utility.yul\":10087:10158   */\n      tag_250\n        /* \"#utility.yul\":10155:10156   */\n      0x00\n        /* \"#utility.yul\":10144:10153   */\n      dup4\n        /* \"#utility.yul\":10140:10157   */\n      add\n        /* \"#utility.yul\":10131:10137   */\n      dup5\n        /* \"#utility.yul\":10087:10158   */\n      tag_131\n      jump\t// in\n    tag_250:\n        /* \"#utility.yul\":9943:10165   */\n      swap3\n      swap2\n      pop\n      pop\n      jump\t// out\n        /* \"#utility.yul\":10171:10393   */\n    tag_57:\n        /* \"#utility.yul\":10264:10268   */\n      0x00\n        /* \"#utility.yul\":10302:10304   */\n      0x20\n        /* \"#utility.yul\":10291:10300   */\n      dup3\n        /* \"#utility.yul\":10287:10305   */\n      add\n        /* \"#utility.yul\":10279:10305   */\n      swap1\n      pop\n        /* \"#utility.yul\":10315:10386   */\n      tag_252\n        /* \"#utility.yul\":10383:10384   */\n      0x00\n        /* \"#utility.yul\":10372:10381   */\n      dup4\n        /* \"#utility.yul\":10368:10385   */\n      add\n        /* \"#utility.yul\":10359:10365   */\n      dup5\n        /* \"#utility.yul\":10315:10386   */\n      tag_130\n      jump\t// in\n    tag_252:\n        /* \"#utility.yul\":10171:10393   */\n      swap3\n      swap2\n      pop\n      pop\n      jump\t// out\n        /* \"#utility.yul\":10399:10579   */\n    tag_132:\n        /* \"#utility.yul\":10447:10524   */\n      0x4e487b7100000000000000000000000000000000000000000000000000000000\n        /* \"#utility.yul\":10444:10445   */\n      0x00\n        /* \"#utility.yul\":10437:10525   */\n      mstore\n        /* \"#utility.yul\":10544:10548   */\n      0x22\n        /* \"#utility.yul\":10541:10542   */\n      0x04\n        /* \"#utility.yul\":10534:10549   */\n      mstore\n        /* \"#utility.yul\":10568:10572   */\n      0x24\n        /* \"#utility.yul\":10565:10566   */\n      0x00\n        /* \"#utility.yul\":10558:10573   */\n      revert\n        /* \"#utility.yul\":10585:10905   */\n    tag_66:\n        /* \"#utility.yul\":10629:10635   */\n      0x00\n        /* \"#utility.yul\":10666:10667   */\n      0x02\n        /* \"#utility.yul\":10660:10664   */\n      dup3\n        /* \"#utility.yul\":10656:10668   */\n      div\n        /* \"#utility.yul\":10646:10668   */\n      swap1\n      pop\n        /* \"#utility.yul\":10713:10714   */\n      0x01\n        /* \"#utility.yul\":10707:10711   */\n      dup3\n        /* \"#utility.yul\":10703:10715   */\n      and\n        /* \"#utility.yul\":10734:10752   */\n      dup1\n        /* \"#utility.yul\":10724:10805   */\n      tag_255\n      jumpi\n        /* \"#utility.yul\":10790:10794   */\n      0x7f\n        /* \"#utility.yul\":10782:10788   */\n      dup3\n        /* \"#utility.yul\":10778:10795   */\n      and\n        /* \"#utility.yul\":10768:10795   */\n      swap2\n      pop\n        /* \"#utility.yul\":10724:10805   */\n    tag_255:\n        /* \"#utility.yul\":10852:10854   */\n      0x20\n        /* \"#utility.yul\":10844:10850   */\n      dup3\n        /* \"#utility.yul\":10841:10855   */\n      lt\n        /* \"#utility.yul\":10821:10839   */\n      dup2\n        /* \"#utility.yul\":10818:10856   */\n      eq\n        /* \"#utility.yul\":10815:10899   */\n      iszero\n      tag_256\n      jumpi\n        /* \"#utility.yul\":10871:10889   */\n      tag_257\n      tag_132\n      jump\t// in\n    tag_257:\n        /* \"#utility.yul\":10815:10899   */\n    tag_256:\n        /* \"#utility.yul\":10636:10905   */\n      pop\n        /* \"#utility.yul\":10585:10905   */\n      swap2\n      swap1\n      pop\n      jump\t// out\n        /* \"#utility.yul\":10911:11052   */\n    tag_133:\n        /* \"#utility.yul\":10960:10964   */\n      0x00\n        /* \"#utility.yul\":10983:10986   */\n      dup2\n        /* \"#utility.yul\":10975:10986   */\n      swap1\n      pop\n        /* \"#utility.yul\":11006:11009   */\n      dup2\n        /* \"#utility.yul\":11003:11004   */\n      0x00\n        /* \"#utility.yul\":10996:11010   */\n      mstore\n        /* \"#utility.yul\":11040:11044   */\n      0x20\n        /* \"#utility.yul\":11037:11038   */\n      0x00\n        /* \"#utility.yul\":11027:11045   */\n      keccak256\n        /* \"#utility.yul\":11019:11045   */\n      swap1\n      pop\n        /* \"#utility.yul\":10911:11052   */\n      swap2\n      swap1\n      pop\n      jump\t// out\n        /* \"#utility.yul\":11082:11884   */\n    tag_134:\n        /* \"#utility.yul\":11167:11170   */\n      0x00\n        /* \"#utility.yul\":11204:11209   */\n      dup2\n        /* \"#utility.yul\":11198:11210   */\n      sload\n        /* \"#utility.yul\":11233:11269   */\n      tag_260\n        /* \"#utility.yul\":11259:11268   */\n      dup2\n        /* \"#utility.yul\":11233:11269   */\n      tag_66\n      jump\t// in\n    tag_260:\n        /* \"#utility.yul\":11285:11356   */\n      tag_261\n        /* \"#utility.yul\":11349:11355   */\n      dup2\n        /* \"#utility.yul\":11344:11347   */\n      dup7\n        /* \"#utility.yul\":11285:11356   */\n      tag_126\n      jump\t// in\n    tag_261:\n        /* \"#utility.yul\":11278:11356   */\n      swap5\n      pop\n        /* \"#utility.yul\":11387:11388   */\n      0x01\n        /* \"#utility.yul\":11376:11385   */\n      dup3\n        /* \"#utility.yul\":11372:11389   */\n      and\n        /* \"#utility.yul\":11403:11404   */\n      0x00\n        /* \"#utility.yul\":11398:11533   */\n      dup2\n      eq\n      tag_263\n      jumpi\n        /* \"#utility.yul\":11547:11548   */\n      0x01\n        /* \"#utility.yul\":11542:11878   */\n      dup2\n      eq\n      tag_264\n      jumpi\n        /* \"#utility.yul\":11365:11878   */\n      jump(tag_262)\n        /* \"#utility.yul\":11398:11533   */\n    tag_263:\n        /* \"#utility.yul\":11482:11486   */\n      0xff\n        /* \"#utility.yul\":11478:11487   */\n      not\n        /* \"#utility.yul\":11467:11476   */\n      dup4\n        /* \"#utility.yul\":11463:11488   */\n      and\n        /* \"#utility.yul\":11458:11461   */\n      dup7\n        /* \"#utility.yul\":11451:11489   */\n      mstore\n        /* \"#utility.yul\":11518:11522   */\n      0x20\n        /* \"#utility.yul\":11513:11516   */\n      dup7\n        /* \"#utility.yul\":11509:11523   */\n      add\n        /* \"#utility.yul\":11502:11523   */\n      swap4\n      pop\n        /* \"#utility.yul\":11398:11533   */\n      jump(tag_262)\n        /* \"#utility.yul\":11542:11878   */\n    tag_264:\n        /* \"#utility.yul\":11609:11647   */\n      tag_265\n        /* \"#utility.yul\":11641:11646   */\n      dup6\n        /* \"#utility.yul\":11609:11647   */\n      tag_133\n      jump\t// in\n    tag_265:\n        /* \"#utility.yul\":11669:11670   */\n      0x00\n        /* \"#utility.yul\":11683:11837   */\n    tag_266:\n        /* \"#utility.yul\":11697:11703   */\n      dup4\n        /* \"#utility.yul\":11694:11695   */\n      dup2\n        /* \"#utility.yul\":11691:11704   */\n      lt\n        /* \"#utility.yul\":11683:11837   */\n      iszero\n      tag_268\n      jumpi\n        /* \"#utility.yul\":11771:11778   */\n      dup2\n        /* \"#utility.yul\":11765:11779   */\n      sload\n        /* \"#utility.yul\":11761:11762   */\n      dup2\n        /* \"#utility.yul\":11756:11759   */\n      dup10\n        /* \"#utility.yul\":11752:11763   */\n      add\n        /* \"#utility.yul\":11745:11780   */\n      mstore\n        /* \"#utility.yul\":11821:11822   */\n      0x01\n        /* \"#utility.yul\":11812:11819   */\n      dup3\n        /* \"#utility.yul\":11808:11823   */\n      add\n        /* \"#utility.yul\":11797:11823   */\n      swap2\n      pop\n        /* \"#utility.yul\":11719:11723   */\n      0x20\n        /* \"#utility.yul\":11716:11717   */\n      dup2\n        /* \"#utility.yul\":11712:11724   */\n      add\n        /* \"#utility.yul\":11707:11724   */\n      swap1\n      pop\n        /* \"#utility.yul\":11683:11837   */\n      jump(tag_266)\n    tag_268:\n        /* \"#utility.yul\":11866:11867   */\n      dup1\n        /* \"#utility.yul\":11861:11864   */\n      dup9\n        /* \"#utility.yul\":11857:11868   */\n      add\n        /* \"#utility.yul\":11850:11868   */\n      swap6\n      pop\n        /* \"#utility.yul\":11549:11878   */\n      pop\n      pop\n        /* \"#utility.yul\":11365:11878   */\n    tag_262:\n      pop\n        /* \"#utility.yul\":11171:11884   */\n      pop\n      pop\n        /* \"#utility.yul\":11082:11884   */\n      swap3\n      swap2\n      pop\n      pop\n      jump\t// out\n        /* \"#utility.yul\":11890:12398   */\n    tag_82:\n        /* \"#utility.yul\":12048:12052   */\n      0x00\n        /* \"#utility.yul\":12086:12088   */\n      0x40\n        /* \"#utility.yul\":12075:12084   */\n      dup3\n        /* \"#utility.yul\":12071:12089   */\n      add\n        /* \"#utility.yul\":12063:12089   */\n      swap1\n      pop\n        /* \"#utility.yul\":12135:12144   */\n      dup2\n        /* \"#utility.yul\":12129:12133   */\n      dup2\n        /* \"#utility.yul\":12125:12145   */\n      sub\n        /* \"#utility.yul\":12121:12122   */\n      0x00\n        /* \"#utility.yul\":12110:12119   */\n      dup4\n        /* \"#utility.yul\":12106:12123   */\n      add\n        /* \"#utility.yul\":12099:12146   */\n      mstore\n        /* \"#utility.yul\":12163:12241   */\n      tag_270\n        /* \"#utility.yul\":12236:12240   */\n      dup2\n        /* \"#utility.yul\":12227:12233   */\n      dup6\n        /* \"#utility.yul\":12163:12241   */\n      tag_128\n      jump\t// in\n    tag_270:\n        /* \"#utility.yul\":12155:12241   */\n      swap1\n      pop\n        /* \"#utility.yul\":12288:12297   */\n      dup2\n        /* \"#utility.yul\":12282:12286   */\n      dup2\n        /* \"#utility.yul\":12278:12298   */\n      sub\n        /* \"#utility.yul\":12273:12275   */\n      0x20\n        /* \"#utility.yul\":12262:12271   */\n      dup4\n        /* \"#utility.yul\":12258:12276   */\n      add\n        /* \"#utility.yul\":12251:12299   */\n      mstore\n        /* \"#utility.yul\":12316:12391   */\n      tag_271\n        /* \"#utility.yul\":12386:12390   */\n      dup2\n        /* \"#utility.yul\":12377:12383   */\n      dup5\n        /* \"#utility.yul\":12316:12391   */\n      tag_134\n      jump\t// in\n    tag_271:\n        /* \"#utility.yul\":12308:12391   */\n      swap1\n      pop\n        /* \"#utility.yul\":11890:12398   */\n      swap4\n      swap3\n      pop\n      pop\n      pop\n      jump\t// out\n    stop\n\n    sub_0: assembly {\n            /* \"Manufacturer.sol\":2468:3007  contract RetailStore {... */\n          mstore(0x40, 0x80)\n            /* \"Manufacturer.sol\":2518:2579  constructor(address _owner) {... */\n          callvalue\n          dup1\n          iszero\n          tag_1\n          jumpi\n          0x00\n          dup1\n          revert\n        tag_1:\n          pop\n          mload(0x40)\n          sub(codesize, bytecodeSize)\n          dup1\n          bytecodeSize\n          dup4\n          codecopy\n          dup2\n          dup2\n          add\n          0x40\n          mstore\n          dup2\n          add\n          swap1\n          tag_2\n          swap2\n          swap1\n          tag_3\n          jump\t// in\n        tag_2:\n            /* \"Manufacturer.sol\":2565:2571  _owner */\n          dup1\n            /* \"Manufacturer.sol\":2557:2562  owner */\n          0x00\n          dup1\n            /* \"Manufacturer.sol\":2557:2571  owner = _owner */\n          0x0100\n          exp\n          dup2\n          sload\n          dup2\n          0xffffffffffffffffffffffffffffffffffffffff\n          mul\n          not\n          and\n          swap1\n          dup4\n          0xffffffffffffffffffffffffffffffffffffffff\n          and\n          mul\n          or\n          swap1\n          sstore\n          pop\n            /* \"Manufacturer.sol\":2518:2579  constructor(address _owner) {... */\n          pop\n            /* \"Manufacturer.sol\":2468:3007  contract RetailStore {... */\n          jump(tag_6)\n            /* \"#utility.yul\":88:205   */\n        tag_8:\n            /* \"#utility.yul\":197:198   */\n          0x00\n            /* \"#utility.yul\":194:195   */\n          dup1\n            /* \"#utility.yul\":187:199   */\n          revert\n            /* \"#utility.yul\":334:460   */\n        tag_10:\n            /* \"#utility.yul\":371:378   */\n          0x00\n            /* \"#utility.yul\":411:453   */\n          0xffffffffffffffffffffffffffffffffffffffff\n            /* \"#utility.yul\":404:409   */\n          dup3\n            /* \"#utility.yul\":400:454   */\n          and\n            /* \"#utility.yul\":389:454   */\n          swap1\n          pop\n            /* \"#utility.yul\":334:460   */\n          swap2\n          swap1\n          pop\n          jump\t// out\n            /* \"#utility.yul\":466:562   */\n        tag_11:\n            /* \"#utility.yul\":503:510   */\n          0x00\n            /* \"#utility.yul\":532:556   */\n          tag_20\n            /* \"#utility.yul\":550:555   */\n          dup3\n            /* \"#utility.yul\":532:556   */\n          tag_10\n          jump\t// in\n        tag_20:\n            /* \"#utility.yul\":521:556   */\n          swap1\n          pop\n            /* \"#utility.yul\":466:562   */\n          swap2\n          swap1\n          pop\n          jump\t// out\n            /* \"#utility.yul\":568:690   */\n        tag_12:\n            /* \"#utility.yul\":641:665   */\n          tag_22\n            /* \"#utility.yul\":659:664   */\n          dup2\n            /* \"#utility.yul\":641:665   */\n          tag_11\n          jump\t// in\n        tag_22:\n            /* \"#utility.yul\":634:639   */\n          dup2\n            /* \"#utility.yul\":631:666   */\n          eq\n            /* \"#utility.yul\":621:684   */\n          tag_23\n          jumpi\n            /* \"#utility.yul\":680:681   */\n          0x00\n            /* \"#utility.yul\":677:678   */\n          dup1\n            /* \"#utility.yul\":670:682   */\n          revert\n            /* \"#utility.yul\":621:684   */\n        tag_23:\n            /* \"#utility.yul\":568:690   */\n          pop\n          jump\t// out\n            /* \"#utility.yul\":696:839   */\n        tag_13:\n            /* \"#utility.yul\":753:758   */\n          0x00\n            /* \"#utility.yul\":784:790   */\n          dup2\n            /* \"#utility.yul\":778:791   */\n          mload\n            /* \"#utility.yul\":769:791   */\n          swap1\n          pop\n            /* \"#utility.yul\":800:833   */\n          tag_25\n            /* \"#utility.yul\":827:832   */\n          dup2\n            /* \"#utility.yul\":800:833   */\n          tag_12\n          jump\t// in\n        tag_25:\n            /* \"#utility.yul\":696:839   */\n          swap3\n          swap2\n          pop\n          pop\n          jump\t// out\n            /* \"#utility.yul\":845:1196   */\n        tag_3:\n            /* \"#utility.yul\":915:921   */\n          0x00\n            /* \"#utility.yul\":964:966   */\n          0x20\n            /* \"#utility.yul\":952:961   */\n          dup3\n            /* \"#utility.yul\":943:950   */\n          dup5\n            /* \"#utility.yul\":939:962   */\n          sub\n            /* \"#utility.yul\":935:967   */\n          slt\n            /* \"#utility.yul\":932:1051   */\n          iszero\n          tag_27\n          jumpi\n            /* \"#utility.yul\":970:1049   */\n          tag_28\n          tag_8\n          jump\t// in\n        tag_28:\n            /* \"#utility.yul\":932:1051   */\n        tag_27:\n            /* \"#utility.yul\":1090:1091   */\n          0x00\n            /* \"#utility.yul\":1115:1179   */\n          tag_29\n            /* \"#utility.yul\":1171:1178   */\n          dup5\n            /* \"#utility.yul\":1162:1168   */\n          dup3\n            /* \"#utility.yul\":1151:1160   */\n          dup6\n            /* \"#utility.yul\":1147:1169   */\n          add\n            /* \"#utility.yul\":1115:1179   */\n          tag_13\n          jump\t// in\n        tag_29:\n            /* \"#utility.yul\":1105:1179   */\n          swap2\n          pop\n            /* \"#utility.yul\":1061:1189   */\n          pop\n            /* \"#utility.yul\":845:1196   */\n          swap3\n          swap2\n          pop\n          pop\n          jump\t// out\n            /* \"Manufacturer.sol\":2468:3007  contract RetailStore {... */\n        tag_6:\n          dataSize(sub_0)\n          dup1\n          dataOffset(sub_0)\n          0x00\n          codecopy\n          0x00\n          return\n        stop\n\n        sub_0: assembly {\n                /* \"Manufacturer.sol\":2468:3007  contract RetailStore {... */\n              mstore(0x40, 0x80)\n              jumpi(tag_1, lt(calldatasize, 0x04))\n              shr(0xe0, calldataload(0x00))\n              dup1\n              0xe38abb48\n              eq\n              tag_2\n              jumpi\n            tag_1:\n              0x00\n              dup1\n              revert\n                /* \"Manufacturer.sol\":2644:3004  function buyProductFromRetailStore(... */\n            tag_2:\n              tag_3\n              0x04\n              dup1\n              calldatasize\n              sub\n              dup2\n              add\n              swap1\n              tag_4\n              swap2\n              swap1\n              tag_5\n              jump\t// in\n            tag_4:\n              tag_6\n              jump\t// in\n            tag_3:\n              stop\n            tag_6:\n                /* \"Manufacturer.sol\":2837:2842  owner */\n              0x00\n              dup1\n              sload\n              swap1\n              0x0100\n              exp\n              swap1\n              div\n              0xffffffffffffffffffffffffffffffffffffffff\n              and\n                /* \"Manufacturer.sol\":2796:2842  _manufacturer.viewOwner(_productName) == owner */\n              0xffffffffffffffffffffffffffffffffffffffff\n              and\n                /* \"Manufacturer.sol\":2796:2809  _manufacturer */\n              dup3\n                /* \"Manufacturer.sol\":2796:2819  _manufacturer.viewOwner */\n              0xffffffffffffffffffffffffffffffffffffffff\n              and\n              0xddf88dfc\n                /* \"Manufacturer.sol\":2820:2832  _productName */\n              dup4\n                /* \"Manufacturer.sol\":2796:2833  _manufacturer.viewOwner(_productName) */\n              mload(0x40)\n              dup3\n              0xffffffff\n              and\n              0xe0\n              shl\n              dup2\n              mstore\n              0x04\n              add\n              tag_8\n              swap2\n              swap1\n              tag_9\n              jump\t// in\n            tag_8:\n              0x20\n              mload(0x40)\n              dup1\n              dup4\n              sub\n              dup2\n              dup7\n              gas\n              staticcall\n              iszero\n              dup1\n              iszero\n              tag_11\n              jumpi\n              returndatasize\n              0x00\n              dup1\n              returndatacopy\n              revert(0x00, returndatasize)\n            tag_11:\n              pop\n              pop\n              pop\n              pop\n              mload(0x40)\n              returndatasize\n              not(0x1f)\n              0x1f\n              dup3\n              add\n              and\n              dup3\n              add\n              dup1\n              0x40\n              mstore\n              pop\n              dup2\n              add\n              swap1\n              tag_12\n              swap2\n              swap1\n              tag_13\n              jump\t// in\n            tag_12:\n                /* \"Manufacturer.sol\":2796:2842  _manufacturer.viewOwner(_productName) == owner */\n              0xffffffffffffffffffffffffffffffffffffffff\n              and\n              eq\n                /* \"Manufacturer.sol\":2788:2843  require(_manufacturer.viewOwner(_productName) == owner) */\n              tag_14\n              jumpi\n              0x00\n              dup1\n              revert\n            tag_14:\n                /* \"Manufacturer.sol\":2875:2888  _manufacturer */\n              dup2\n                /* \"Manufacturer.sol\":2875:2905  _manufacturer.viewProductPrice */\n              0xffffffffffffffffffffffffffffffffffffffff\n              and\n              0xfd01273b\n                /* \"Manufacturer.sol\":2906:2918  _productName */\n              dup3\n                /* \"Manufacturer.sol\":2875:2919  _manufacturer.viewProductPrice(_productName) */\n              mload(0x40)\n              dup3\n              0xffffffff\n              and\n              0xe0\n              shl\n              dup2\n              mstore\n              0x04\n              add\n              tag_15\n              swap2\n              swap1\n              tag_9\n              jump\t// in\n            tag_15:\n              0x20\n              mload(0x40)\n              dup1\n              dup4\n              sub\n              dup2\n              dup7\n              gas\n              staticcall\n              iszero\n              dup1\n              iszero\n              tag_17\n              jumpi\n              returndatasize\n              0x00\n              dup1\n              returndatacopy\n              revert(0x00, returndatasize)\n            tag_17:\n              pop\n              pop\n              pop\n              pop\n              mload(0x40)\n              returndatasize\n              not(0x1f)\n              0x1f\n              dup3\n              add\n              and\n              dup3\n              add\n              dup1\n              0x40\n              mstore\n              pop\n              dup2\n              add\n              swap1\n              tag_18\n              swap2\n              swap1\n              tag_19\n              jump\t// in\n            tag_18:\n                /* \"Manufacturer.sol\":2862:2871  msg.value */\n              callvalue\n                /* \"Manufacturer.sol\":2862:2919  msg.value >= _manufacturer.viewProductPrice(_productName) */\n              lt\n              iszero\n                /* \"Manufacturer.sol\":2854:2920  require(msg.value >= _manufacturer.viewProductPrice(_productName)) */\n              tag_20\n              jumpi\n              0x00\n              dup1\n              revert\n            tag_20:\n                /* \"Manufacturer.sol\":2931:2944  _manufacturer */\n              dup2\n                /* \"Manufacturer.sol\":2931:2963  _manufacturer.changeProductOwner */\n              0xffffffffffffffffffffffffffffffffffffffff\n              and\n              0x500ed75d\n                /* \"Manufacturer.sol\":2964:2976  _productName */\n              dup3\n                /* \"Manufacturer.sol\":2978:2983  owner */\n              0x00\n              dup1\n              sload\n              swap1\n              0x0100\n              exp\n              swap1\n              div\n              0xffffffffffffffffffffffffffffffffffffffff\n              and\n                /* \"Manufacturer.sol\":2985:2995  msg.sender */\n              caller\n                /* \"Manufacturer.sol\":2931:2996  _manufacturer.changeProductOwner(_productName, owner, msg.sender) */\n              mload(0x40)\n              dup5\n              0xffffffff\n              and\n              0xe0\n              shl\n              dup2\n              mstore\n              0x04\n              add\n              tag_21\n              swap4\n              swap3\n              swap2\n              swap1\n              tag_22\n              jump\t// in\n            tag_21:\n              0x00\n              mload(0x40)\n              dup1\n              dup4\n              sub\n              dup2\n              0x00\n              dup8\n              dup1\n              extcodesize\n              iszero\n              dup1\n              iszero\n              tag_23\n              jumpi\n              0x00\n              dup1\n              revert\n            tag_23:\n              pop\n              gas\n              call\n              iszero\n              dup1\n              iszero\n              tag_25\n              jumpi\n              returndatasize\n              0x00\n              dup1\n              returndatacopy\n              revert(0x00, returndatasize)\n            tag_25:\n              pop\n              pop\n              pop\n              pop\n                /* \"Manufacturer.sol\":2644:3004  function buyProductFromRetailStore(... */\n              pop\n              pop\n              jump\t// out\n                /* \"#utility.yul\":7:82   */\n            tag_26:\n                /* \"#utility.yul\":40:46   */\n              0x00\n                /* \"#utility.yul\":73:75   */\n              0x40\n                /* \"#utility.yul\":67:76   */\n              mload\n                /* \"#utility.yul\":57:76   */\n              swap1\n              pop\n                /* \"#utility.yul\":7:82   */\n              swap1\n              jump\t// out\n                /* \"#utility.yul\":88:205   */\n            tag_27:\n                /* \"#utility.yul\":197:198   */\n              0x00\n                /* \"#utility.yul\":194:195   */\n              dup1\n                /* \"#utility.yul\":187:199   */\n              revert\n                /* \"#utility.yul\":211:328   */\n            tag_28:\n                /* \"#utility.yul\":320:321   */\n              0x00\n                /* \"#utility.yul\":317:318   */\n              dup1\n                /* \"#utility.yul\":310:322   */\n              revert\n                /* \"#utility.yul\":334:460   */\n            tag_29:\n                /* \"#utility.yul\":371:378   */\n              0x00\n                /* \"#utility.yul\":411:453   */\n              0xffffffffffffffffffffffffffffffffffffffff\n                /* \"#utility.yul\":404:409   */\n              dup3\n                /* \"#utility.yul\":400:454   */\n              and\n                /* \"#utility.yul\":389:454   */\n              swap1\n              pop\n                /* \"#utility.yul\":334:460   */\n              swap2\n              swap1\n              pop\n              jump\t// out\n                /* \"#utility.yul\":466:562   */\n            tag_30:\n                /* \"#utility.yul\":503:510   */\n              0x00\n                /* \"#utility.yul\":532:556   */\n              tag_60\n                /* \"#utility.yul\":550:555   */\n              dup3\n                /* \"#utility.yul\":532:556   */\n              tag_29\n              jump\t// in\n            tag_60:\n                /* \"#utility.yul\":521:556   */\n              swap1\n              pop\n                /* \"#utility.yul\":466:562   */\n              swap2\n              swap1\n              pop\n              jump\t// out\n                /* \"#utility.yul\":568:684   */\n            tag_31:\n                /* \"#utility.yul\":625:632   */\n              0x00\n                /* \"#utility.yul\":654:678   */\n              tag_62\n                /* \"#utility.yul\":672:677   */\n              dup3\n                /* \"#utility.yul\":654:678   */\n              tag_30\n              jump\t// in\n            tag_62:\n                /* \"#utility.yul\":643:678   */\n              swap1\n              pop\n                /* \"#utility.yul\":568:684   */\n              swap2\n              swap1\n              pop\n              jump\t// out\n                /* \"#utility.yul\":690:852   */\n            tag_32:\n                /* \"#utility.yul\":783:827   */\n              tag_64\n                /* \"#utility.yul\":821:826   */\n              dup2\n                /* \"#utility.yul\":783:827   */\n              tag_31\n              jump\t// in\n            tag_64:\n                /* \"#utility.yul\":776:781   */\n              dup2\n                /* \"#utility.yul\":773:828   */\n              eq\n                /* \"#utility.yul\":763:846   */\n              tag_65\n              jumpi\n                /* \"#utility.yul\":842:843   */\n              0x00\n                /* \"#utility.yul\":839:840   */\n              dup1\n                /* \"#utility.yul\":832:844   */\n              revert\n                /* \"#utility.yul\":763:846   */\n            tag_65:\n                /* \"#utility.yul\":690:852   */\n              pop\n              jump\t// out\n                /* \"#utility.yul\":858:1037   */\n            tag_33:\n                /* \"#utility.yul\":924:929   */\n              0x00\n                /* \"#utility.yul\":962:968   */\n              dup2\n                /* \"#utility.yul\":949:969   */\n              calldataload\n                /* \"#utility.yul\":940:969   */\n              swap1\n              pop\n                /* \"#utility.yul\":978:1031   */\n              tag_67\n                /* \"#utility.yul\":1025:1030   */\n              dup2\n                /* \"#utility.yul\":978:1031   */\n              tag_32\n              jump\t// in\n            tag_67:\n                /* \"#utility.yul\":858:1037   */\n              swap3\n              swap2\n              pop\n              pop\n              jump\t// out\n                /* \"#utility.yul\":1043:1160   */\n            tag_34:\n                /* \"#utility.yul\":1152:1153   */\n              0x00\n                /* \"#utility.yul\":1149:1150   */\n              dup1\n                /* \"#utility.yul\":1142:1154   */\n              revert\n                /* \"#utility.yul\":1166:1283   */\n            tag_35:\n                /* \"#utility.yul\":1275:1276   */\n              0x00\n                /* \"#utility.yul\":1272:1273   */\n              dup1\n                /* \"#utility.yul\":1265:1277   */\n              revert\n                /* \"#utility.yul\":1289:1391   */\n            tag_36:\n                /* \"#utility.yul\":1330:1336   */\n              0x00\n                /* \"#utility.yul\":1381:1383   */\n              0x1f\n                /* \"#utility.yul\":1377:1384   */\n              not\n                /* \"#utility.yul\":1372:1374   */\n              0x1f\n                /* \"#utility.yul\":1365:1370   */\n              dup4\n                /* \"#utility.yul\":1361:1375   */\n              add\n                /* \"#utility.yul\":1357:1385   */\n              and\n                /* \"#utility.yul\":1347:1385   */\n              swap1\n              pop\n                /* \"#utility.yul\":1289:1391   */\n              swap2\n              swap1\n              pop\n              jump\t// out\n                /* \"#utility.yul\":1397:1577   */\n            tag_37:\n                /* \"#utility.yul\":1445:1522   */\n              0x4e487b7100000000000000000000000000000000000000000000000000000000\n                /* \"#utility.yul\":1442:1443   */\n              0x00\n                /* \"#utility.yul\":1435:1523   */\n              mstore\n                /* \"#utility.yul\":1542:1546   */\n              0x41\n                /* \"#utility.yul\":1539:1540   */\n              0x04\n                /* \"#utility.yul\":1532:1547   */\n              mstore\n                /* \"#utility.yul\":1566:1570   */\n              0x24\n                /* \"#utility.yul\":1563:1564   */\n              0x00\n                /* \"#utility.yul\":1556:1571   */\n              revert\n                /* \"#utility.yul\":1583:1864   */\n            tag_38:\n                /* \"#utility.yul\":1666:1693   */\n              tag_73\n                /* \"#utility.yul\":1688:1692   */\n              dup3\n                /* \"#utility.yul\":1666:1693   */\n              tag_36\n              jump\t// in\n            tag_73:\n                /* \"#utility.yul\":1658:1664   */\n              dup2\n                /* \"#utility.yul\":1654:1694   */\n              add\n                /* \"#utility.yul\":1796:1802   */\n              dup2\n                /* \"#utility.yul\":1784:1794   */\n              dup2\n                /* \"#utility.yul\":1781:1803   */\n              lt\n                /* \"#utility.yul\":1760:1778   */\n              0xffffffffffffffff\n                /* \"#utility.yul\":1748:1758   */\n              dup3\n                /* \"#utility.yul\":1745:1779   */\n              gt\n                /* \"#utility.yul\":1742:1804   */\n              or\n                /* \"#utility.yul\":1739:1827   */\n              iszero\n              tag_74\n              jumpi\n                /* \"#utility.yul\":1807:1825   */\n              tag_75\n              tag_37\n              jump\t// in\n            tag_75:\n                /* \"#utility.yul\":1739:1827   */\n            tag_74:\n                /* \"#utility.yul\":1847:1857   */\n              dup1\n                /* \"#utility.yul\":1843:1845   */\n              0x40\n                /* \"#utility.yul\":1836:1858   */\n              mstore\n                /* \"#utility.yul\":1626:1864   */\n              pop\n                /* \"#utility.yul\":1583:1864   */\n              pop\n              pop\n              jump\t// out\n                /* \"#utility.yul\":1870:1999   */\n            tag_39:\n                /* \"#utility.yul\":1904:1910   */\n              0x00\n                /* \"#utility.yul\":1931:1951   */\n              tag_77\n              tag_26\n              jump\t// in\n            tag_77:\n                /* \"#utility.yul\":1921:1951   */\n              swap1\n              pop\n                /* \"#utility.yul\":1960:1993   */\n              tag_78\n                /* \"#utility.yul\":1988:1992   */\n              dup3\n                /* \"#utility.yul\":1980:1986   */\n              dup3\n                /* \"#utility.yul\":1960:1993   */\n              tag_38\n              jump\t// in\n            tag_78:\n                /* \"#utility.yul\":1870:1999   */\n              swap2\n              swap1\n              pop\n              jump\t// out\n                /* \"#utility.yul\":2005:2313   */\n            tag_40:\n                /* \"#utility.yul\":2067:2071   */\n              0x00\n                /* \"#utility.yul\":2157:2175   */\n              0xffffffffffffffff\n                /* \"#utility.yul\":2149:2155   */\n              dup3\n                /* \"#utility.yul\":2146:2176   */\n              gt\n                /* \"#utility.yul\":2143:2199   */\n              iszero\n              tag_80\n              jumpi\n                /* \"#utility.yul\":2179:2197   */\n              tag_81\n              tag_37\n              jump\t// in\n            tag_81:\n                /* \"#utility.yul\":2143:2199   */\n            tag_80:\n                /* \"#utility.yul\":2217:2246   */\n              tag_82\n                /* \"#utility.yul\":2239:2245   */\n              dup3\n                /* \"#utility.yul\":2217:2246   */\n              tag_36\n              jump\t// in\n            tag_82:\n                /* \"#utility.yul\":2209:2246   */\n              swap1\n              pop\n                /* \"#utility.yul\":2301:2305   */\n              0x20\n                /* \"#utility.yul\":2295:2299   */\n              dup2\n                /* \"#utility.yul\":2291:2306   */\n              add\n                /* \"#utility.yul\":2283:2306   */\n              swap1\n              pop\n                /* \"#utility.yul\":2005:2313   */\n              swap2\n              swap1\n              pop\n              jump\t// out\n                /* \"#utility.yul\":2319:2473   */\n            tag_41:\n                /* \"#utility.yul\":2403:2409   */\n              dup3\n                /* \"#utility.yul\":2398:2401   */\n              dup2\n                /* \"#utility.yul\":2393:2396   */\n              dup4\n                /* \"#utility.yul\":2380:2410   */\n              calldatacopy\n                /* \"#utility.yul\":2465:2466   */\n              0x00\n                /* \"#utility.yul\":2456:2462   */\n              dup4\n                /* \"#utility.yul\":2451:2454   */\n              dup4\n                /* \"#utility.yul\":2447:2463   */\n              add\n                /* \"#utility.yul\":2440:2467   */\n              mstore\n                /* \"#utility.yul\":2319:2473   */\n              pop\n              pop\n              pop\n              jump\t// out\n                /* \"#utility.yul\":2479:2891   */\n            tag_42:\n                /* \"#utility.yul\":2557:2562   */\n              0x00\n                /* \"#utility.yul\":2582:2648   */\n              tag_85\n                /* \"#utility.yul\":2598:2647   */\n              tag_86\n                /* \"#utility.yul\":2640:2646   */\n              dup5\n                /* \"#utility.yul\":2598:2647   */\n              tag_40\n              jump\t// in\n            tag_86:\n                /* \"#utility.yul\":2582:2648   */\n              tag_39\n              jump\t// in\n            tag_85:\n                /* \"#utility.yul\":2573:2648   */\n              swap1\n              pop\n                /* \"#utility.yul\":2671:2677   */\n              dup3\n                /* \"#utility.yul\":2664:2669   */\n              dup2\n                /* \"#utility.yul\":2657:2678   */\n              mstore\n                /* \"#utility.yul\":2709:2713   */\n              0x20\n                /* \"#utility.yul\":2702:2707   */\n              dup2\n                /* \"#utility.yul\":2698:2714   */\n              add\n                /* \"#utility.yul\":2747:2750   */\n              dup5\n                /* \"#utility.yul\":2738:2744   */\n              dup5\n                /* \"#utility.yul\":2733:2736   */\n              dup5\n                /* \"#utility.yul\":2729:2745   */\n              add\n                /* \"#utility.yul\":2726:2751   */\n              gt\n                /* \"#utility.yul\":2723:2835   */\n              iszero\n              tag_87\n              jumpi\n                /* \"#utility.yul\":2754:2833   */\n              tag_88\n              tag_35\n              jump\t// in\n            tag_88:\n                /* \"#utility.yul\":2723:2835   */\n            tag_87:\n                /* \"#utility.yul\":2844:2885   */\n              tag_89\n                /* \"#utility.yul\":2878:2884   */\n              dup5\n                /* \"#utility.yul\":2873:2876   */\n              dup3\n                /* \"#utility.yul\":2868:2871   */\n              dup6\n                /* \"#utility.yul\":2844:2885   */\n              tag_41\n              jump\t// in\n            tag_89:\n                /* \"#utility.yul\":2563:2891   */\n              pop\n                /* \"#utility.yul\":2479:2891   */\n              swap4\n              swap3\n              pop\n              pop\n              pop\n              jump\t// out\n                /* \"#utility.yul\":2911:3251   */\n            tag_43:\n                /* \"#utility.yul\":2967:2972   */\n              0x00\n                /* \"#utility.yul\":3016:3019   */\n              dup3\n                /* \"#utility.yul\":3009:3013   */\n              0x1f\n                /* \"#utility.yul\":3001:3007   */\n              dup4\n                /* \"#utility.yul\":2997:3014   */\n              add\n                /* \"#utility.yul\":2993:3020   */\n              slt\n                /* \"#utility.yul\":2983:3105   */\n              tag_91\n              jumpi\n                /* \"#utility.yul\":3024:3103   */\n              tag_92\n              tag_34\n              jump\t// in\n            tag_92:\n                /* \"#utility.yul\":2983:3105   */\n            tag_91:\n                /* \"#utility.yul\":3141:3147   */\n              dup2\n                /* \"#utility.yul\":3128:3148   */\n              calldataload\n                /* \"#utility.yul\":3166:3245   */\n              tag_93\n                /* \"#utility.yul\":3241:3244   */\n              dup5\n                /* \"#utility.yul\":3233:3239   */\n              dup3\n                /* \"#utility.yul\":3226:3230   */\n              0x20\n                /* \"#utility.yul\":3218:3224   */\n              dup7\n                /* \"#utility.yul\":3214:3231   */\n              add\n                /* \"#utility.yul\":3166:3245   */\n              tag_42\n              jump\t// in\n            tag_93:\n                /* \"#utility.yul\":3157:3245   */\n              swap2\n              pop\n                /* \"#utility.yul\":2973:3251   */\n              pop\n                /* \"#utility.yul\":2911:3251   */\n              swap3\n              swap2\n              pop\n              pop\n              jump\t// out\n                /* \"#utility.yul\":3257:3951   */\n            tag_5:\n                /* \"#utility.yul\":3355:3361   */\n              0x00\n                /* \"#utility.yul\":3363:3369   */\n              dup1\n                /* \"#utility.yul\":3412:3414   */\n              0x40\n                /* \"#utility.yul\":3400:3409   */\n              dup4\n                /* \"#utility.yul\":3391:3398   */\n              dup6\n                /* \"#utility.yul\":3387:3410   */\n              sub\n                /* \"#utility.yul\":3383:3415   */\n              slt\n                /* \"#utility.yul\":3380:3499   */\n              iszero\n              tag_95\n              jumpi\n                /* \"#utility.yul\":3418:3497   */\n              tag_96\n              tag_27\n              jump\t// in\n            tag_96:\n                /* \"#utility.yul\":3380:3499   */\n            tag_95:\n                /* \"#utility.yul\":3538:3539   */\n              0x00\n                /* \"#utility.yul\":3563:3636   */\n              tag_97\n                /* \"#utility.yul\":3628:3635   */\n              dup6\n                /* \"#utility.yul\":3619:3625   */\n              dup3\n                /* \"#utility.yul\":3608:3617   */\n              dup7\n                /* \"#utility.yul\":3604:3626   */\n              add\n                /* \"#utility.yul\":3563:3636   */\n              tag_33\n              jump\t// in\n            tag_97:\n                /* \"#utility.yul\":3553:3636   */\n              swap3\n              pop\n                /* \"#utility.yul\":3509:3646   */\n              pop\n                /* \"#utility.yul\":3713:3715   */\n              0x20\n                /* \"#utility.yul\":3702:3711   */\n              dup4\n                /* \"#utility.yul\":3698:3716   */\n              add\n                /* \"#utility.yul\":3685:3717   */\n              calldataload\n                /* \"#utility.yul\":3744:3762   */\n              0xffffffffffffffff\n                /* \"#utility.yul\":3736:3742   */\n              dup2\n                /* \"#utility.yul\":3733:3763   */\n              gt\n                /* \"#utility.yul\":3730:3847   */\n              iszero\n              tag_98\n              jumpi\n                /* \"#utility.yul\":3766:3845   */\n              tag_99\n              tag_28\n              jump\t// in\n            tag_99:\n                /* \"#utility.yul\":3730:3847   */\n            tag_98:\n                /* \"#utility.yul\":3871:3934   */\n              tag_100\n                /* \"#utility.yul\":3926:3933   */\n              dup6\n                /* \"#utility.yul\":3917:3923   */\n              dup3\n                /* \"#utility.yul\":3906:3915   */\n              dup7\n                /* \"#utility.yul\":3902:3924   */\n              add\n                /* \"#utility.yul\":3871:3934   */\n              tag_43\n              jump\t// in\n            tag_100:\n                /* \"#utility.yul\":3861:3934   */\n              swap2\n              pop\n                /* \"#utility.yul\":3656:3944   */\n              pop\n                /* \"#utility.yul\":3257:3951   */\n              swap3\n              pop\n              swap3\n              swap1\n              pop\n              jump\t// out\n                /* \"#utility.yul\":3957:4056   */\n            tag_44:\n                /* \"#utility.yul\":4009:4015   */\n              0x00\n                /* \"#utility.yul\":4043:4048   */\n              dup2\n                /* \"#utility.yul\":4037:4049   */\n              mload\n                /* \"#utility.yul\":4027:4049   */\n              swap1\n              pop\n                /* \"#utility.yul\":3957:4056   */\n              swap2\n              swap1\n              pop\n              jump\t// out\n                /* \"#utility.yul\":4062:4231   */\n            tag_45:\n                /* \"#utility.yul\":4146:4157   */\n              0x00\n                /* \"#utility.yul\":4180:4186   */\n              dup3\n                /* \"#utility.yul\":4175:4178   */\n              dup3\n                /* \"#utility.yul\":4168:4187   */\n              mstore\n                /* \"#utility.yul\":4220:4224   */\n              0x20\n                /* \"#utility.yul\":4215:4218   */\n              dup3\n                /* \"#utility.yul\":4211:4225   */\n              add\n                /* \"#utility.yul\":4196:4225   */\n              swap1\n              pop\n                /* \"#utility.yul\":4062:4231   */\n              swap3\n              swap2\n              pop\n              pop\n              jump\t// out\n                /* \"#utility.yul\":4237:4544   */\n            tag_46:\n                /* \"#utility.yul\":4305:4306   */\n              0x00\n                /* \"#utility.yul\":4315:4428   */\n            tag_104:\n                /* \"#utility.yul\":4329:4335   */\n              dup4\n                /* \"#utility.yul\":4326:4327   */\n              dup2\n                /* \"#utility.yul\":4323:4336   */\n              lt\n                /* \"#utility.yul\":4315:4428   */\n              iszero\n              tag_106\n              jumpi\n                /* \"#utility.yul\":4414:4415   */\n              dup1\n                /* \"#utility.yul\":4409:4412   */\n              dup3\n                /* \"#utility.yul\":4405:4416   */\n              add\n                /* \"#utility.yul\":4399:4417   */\n              mload\n                /* \"#utility.yul\":4395:4396   */\n              dup2\n                /* \"#utility.yul\":4390:4393   */\n              dup5\n                /* \"#utility.yul\":4386:4397   */\n              add\n                /* \"#utility.yul\":4379:4418   */\n              mstore\n                /* \"#utility.yul\":4351:4353   */\n              0x20\n                /* \"#utility.yul\":4348:4349   */\n              dup2\n                /* \"#utility.yul\":4344:4354   */\n              add\n                /* \"#utility.yul\":4339:4354   */\n              swap1\n              pop\n                /* \"#utility.yul\":4315:4428   */\n              jump(tag_104)\n            tag_106:\n                /* \"#utility.yul\":4446:4452   */\n              dup4\n                /* \"#utility.yul\":4443:4444   */\n              dup2\n                /* \"#utility.yul\":4440:4453   */\n              gt\n                /* \"#utility.yul\":4437:4538   */\n              iszero\n              tag_107\n              jumpi\n                /* \"#utility.yul\":4526:4527   */\n              0x00\n                /* \"#utility.yul\":4517:4523   */\n              dup5\n                /* \"#utility.yul\":4512:4515   */\n              dup5\n                /* \"#utility.yul\":4508:4524   */\n              add\n                /* \"#utility.yul\":4501:4528   */\n              mstore\n                /* \"#utility.yul\":4437:4538   */\n            tag_107:\n                /* \"#utility.yul\":4286:4544   */\n              pop\n                /* \"#utility.yul\":4237:4544   */\n              pop\n              pop\n              pop\n              jump\t// out\n                /* \"#utility.yul\":4550:4914   */\n            tag_47:\n                /* \"#utility.yul\":4638:4641   */\n              0x00\n                /* \"#utility.yul\":4666:4705   */\n              tag_109\n                /* \"#utility.yul\":4699:4704   */\n              dup3\n                /* \"#utility.yul\":4666:4705   */\n              tag_44\n              jump\t// in\n            tag_109:\n                /* \"#utility.yul\":4721:4792   */\n              tag_110\n                /* \"#utility.yul\":4785:4791   */\n              dup2\n                /* \"#utility.yul\":4780:4783   */\n              dup6\n                /* \"#utility.yul\":4721:4792   */\n              tag_45\n              jump\t// in\n            tag_110:\n                /* \"#utility.yul\":4714:4792   */\n              swap4\n              pop\n                /* \"#utility.yul\":4801:4853   */\n              tag_111\n                /* \"#utility.yul\":4846:4852   */\n              dup2\n                /* \"#utility.yul\":4841:4844   */\n              dup6\n                /* \"#utility.yul\":4834:4838   */\n              0x20\n                /* \"#utility.yul\":4827:4832   */\n              dup7\n                /* \"#utility.yul\":4823:4839   */\n              add\n                /* \"#utility.yul\":4801:4853   */\n              tag_46\n              jump\t// in\n            tag_111:\n                /* \"#utility.yul\":4878:4907   */\n              tag_112\n                /* \"#utility.yul\":4900:4906   */\n              dup2\n                /* \"#utility.yul\":4878:4907   */\n              tag_36\n              jump\t// in\n            tag_112:\n                /* \"#utility.yul\":4873:4876   */\n              dup5\n                /* \"#utility.yul\":4869:4908   */\n              add\n                /* \"#utility.yul\":4862:4908   */\n              swap2\n              pop\n                /* \"#utility.yul\":4642:4914   */\n              pop\n                /* \"#utility.yul\":4550:4914   */\n              swap3\n              swap2\n              pop\n              pop\n              jump\t// out\n                /* \"#utility.yul\":4920:5233   */\n            tag_9:\n                /* \"#utility.yul\":5033:5037   */\n              0x00\n                /* \"#utility.yul\":5071:5073   */\n              0x20\n                /* \"#utility.yul\":5060:5069   */\n              dup3\n                /* \"#utility.yul\":5056:5074   */\n              add\n                /* \"#utility.yul\":5048:5074   */\n              swap1\n              pop\n                /* \"#utility.yul\":5120:5129   */\n              dup2\n                /* \"#utility.yul\":5114:5118   */\n              dup2\n                /* \"#utility.yul\":5110:5130   */\n              sub\n                /* \"#utility.yul\":5106:5107   */\n              0x00\n                /* \"#utility.yul\":5095:5104   */\n              dup4\n                /* \"#utility.yul\":5091:5108   */\n              add\n                /* \"#utility.yul\":5084:5131   */\n              mstore\n                /* \"#utility.yul\":5148:5226   */\n              tag_114\n                /* \"#utility.yul\":5221:5225   */\n              dup2\n                /* \"#utility.yul\":5212:5218   */\n              dup5\n                /* \"#utility.yul\":5148:5226   */\n              tag_47\n              jump\t// in\n            tag_114:\n                /* \"#utility.yul\":5140:5226   */\n              swap1\n              pop\n                /* \"#utility.yul\":4920:5233   */\n              swap3\n              swap2\n              pop\n              pop\n              jump\t// out\n                /* \"#utility.yul\":5239:5361   */\n            tag_48:\n                /* \"#utility.yul\":5312:5336   */\n              tag_116\n                /* \"#utility.yul\":5330:5335   */\n              dup2\n                /* \"#utility.yul\":5312:5336   */\n              tag_30\n              jump\t// in\n            tag_116:\n                /* \"#utility.yul\":5305:5310   */\n              dup2\n                /* \"#utility.yul\":5302:5337   */\n              eq\n                /* \"#utility.yul\":5292:5355   */\n              tag_117\n              jumpi\n                /* \"#utility.yul\":5351:5352   */\n              0x00\n                /* \"#utility.yul\":5348:5349   */\n              dup1\n                /* \"#utility.yul\":5341:5353   */\n              revert\n                /* \"#utility.yul\":5292:5355   */\n            tag_117:\n                /* \"#utility.yul\":5239:5361   */\n              pop\n              jump\t// out\n                /* \"#utility.yul\":5367:5510   */\n            tag_49:\n                /* \"#utility.yul\":5424:5429   */\n              0x00\n                /* \"#utility.yul\":5455:5461   */\n              dup2\n                /* \"#utility.yul\":5449:5462   */\n              mload\n                /* \"#utility.yul\":5440:5462   */\n              swap1\n              pop\n                /* \"#utility.yul\":5471:5504   */\n              tag_119\n                /* \"#utility.yul\":5498:5503   */\n              dup2\n                /* \"#utility.yul\":5471:5504   */\n              tag_48\n              jump\t// in\n            tag_119:\n                /* \"#utility.yul\":5367:5510   */\n              swap3\n              swap2\n              pop\n              pop\n              jump\t// out\n                /* \"#utility.yul\":5516:5867   */\n            tag_13:\n                /* \"#utility.yul\":5586:5592   */\n              0x00\n                /* \"#utility.yul\":5635:5637   */\n              0x20\n                /* \"#utility.yul\":5623:5632   */\n              dup3\n                /* \"#utility.yul\":5614:5621   */\n              dup5\n                /* \"#utility.yul\":5610:5633   */\n              sub\n                /* \"#utility.yul\":5606:5638   */\n              slt\n                /* \"#utility.yul\":5603:5722   */\n              iszero\n              tag_121\n              jumpi\n                /* \"#utility.yul\":5641:5720   */\n              tag_122\n              tag_27\n              jump\t// in\n            tag_122:\n                /* \"#utility.yul\":5603:5722   */\n            tag_121:\n                /* \"#utility.yul\":5761:5762   */\n              0x00\n                /* \"#utility.yul\":5786:5850   */\n              tag_123\n                /* \"#utility.yul\":5842:5849   */\n              dup5\n                /* \"#utility.yul\":5833:5839   */\n              dup3\n                /* \"#utility.yul\":5822:5831   */\n              dup6\n                /* \"#utility.yul\":5818:5840   */\n              add\n                /* \"#utility.yul\":5786:5850   */\n              tag_49\n              jump\t// in\n            tag_123:\n                /* \"#utility.yul\":5776:5850   */\n              swap2\n              pop\n                /* \"#utility.yul\":5732:5860   */\n              pop\n                /* \"#utility.yul\":5516:5867   */\n              swap3\n              swap2\n              pop\n              pop\n              jump\t// out\n                /* \"#utility.yul\":5873:5950   */\n            tag_50:\n                /* \"#utility.yul\":5910:5917   */\n              0x00\n                /* \"#utility.yul\":5939:5944   */\n              dup2\n                /* \"#utility.yul\":5928:5944   */\n              swap1\n              pop\n                /* \"#utility.yul\":5873:5950   */\n              swap2\n              swap1\n              pop\n              jump\t// out\n                /* \"#utility.yul\":5956:6078   */\n            tag_51:\n                /* \"#utility.yul\":6029:6053   */\n              tag_126\n                /* \"#utility.yul\":6047:6052   */\n              dup2\n                /* \"#utility.yul\":6029:6053   */\n              tag_50\n              jump\t// in\n            tag_126:\n                /* \"#utility.yul\":6022:6027   */\n              dup2\n                /* \"#utility.yul\":6019:6054   */\n              eq\n                /* \"#utility.yul\":6009:6072   */\n              tag_127\n              jumpi\n                /* \"#utility.yul\":6068:6069   */\n              0x00\n                /* \"#utility.yul\":6065:6066   */\n              dup1\n                /* \"#utility.yul\":6058:6070   */\n              revert\n                /* \"#utility.yul\":6009:6072   */\n            tag_127:\n                /* \"#utility.yul\":5956:6078   */\n              pop\n              jump\t// out\n                /* \"#utility.yul\":6084:6227   */\n            tag_52:\n                /* \"#utility.yul\":6141:6146   */\n              0x00\n                /* \"#utility.yul\":6172:6178   */\n              dup2\n                /* \"#utility.yul\":6166:6179   */\n              mload\n                /* \"#utility.yul\":6157:6179   */\n              swap1\n              pop\n                /* \"#utility.yul\":6188:6221   */\n              tag_129\n                /* \"#utility.yul\":6215:6220   */\n              dup2\n                /* \"#utility.yul\":6188:6221   */\n              tag_51\n              jump\t// in\n            tag_129:\n                /* \"#utility.yul\":6084:6227   */\n              swap3\n              swap2\n              pop\n              pop\n              jump\t// out\n                /* \"#utility.yul\":6233:6584   */\n            tag_19:\n                /* \"#utility.yul\":6303:6309   */\n              0x00\n                /* \"#utility.yul\":6352:6354   */\n              0x20\n                /* \"#utility.yul\":6340:6349   */\n              dup3\n                /* \"#utility.yul\":6331:6338   */\n              dup5\n                /* \"#utility.yul\":6327:6350   */\n              sub\n                /* \"#utility.yul\":6323:6355   */\n              slt\n                /* \"#utility.yul\":6320:6439   */\n              iszero\n              tag_131\n              jumpi\n                /* \"#utility.yul\":6358:6437   */\n              tag_132\n              tag_27\n              jump\t// in\n            tag_132:\n                /* \"#utility.yul\":6320:6439   */\n            tag_131:\n                /* \"#utility.yul\":6478:6479   */\n              0x00\n                /* \"#utility.yul\":6503:6567   */\n              tag_133\n                /* \"#utility.yul\":6559:6566   */\n              dup5\n                /* \"#utility.yul\":6550:6556   */\n              dup3\n                /* \"#utility.yul\":6539:6548   */\n              dup6\n                /* \"#utility.yul\":6535:6557   */\n              add\n                /* \"#utility.yul\":6503:6567   */\n              tag_52\n              jump\t// in\n            tag_133:\n                /* \"#utility.yul\":6493:6567   */\n              swap2\n              pop\n                /* \"#utility.yul\":6449:6577   */\n              pop\n                /* \"#utility.yul\":6233:6584   */\n              swap3\n              swap2\n              pop\n              pop\n              jump\t// out\n                /* \"#utility.yul\":6590:6708   */\n            tag_53:\n                /* \"#utility.yul\":6677:6701   */\n              tag_135\n                /* \"#utility.yul\":6695:6700   */\n              dup2\n                /* \"#utility.yul\":6677:6701   */\n              tag_30\n              jump\t// in\n            tag_135:\n                /* \"#utility.yul\":6672:6675   */\n              dup3\n                /* \"#utility.yul\":6665:6702   */\n              mstore\n                /* \"#utility.yul\":6590:6708   */\n              pop\n              pop\n              jump\t// out\n                /* \"#utility.yul\":6714:7247   */\n            tag_22:\n                /* \"#utility.yul\":6883:6887   */\n              0x00\n                /* \"#utility.yul\":6921:6923   */\n              0x60\n                /* \"#utility.yul\":6910:6919   */\n              dup3\n                /* \"#utility.yul\":6906:6924   */\n              add\n                /* \"#utility.yul\":6898:6924   */\n              swap1\n              pop\n                /* \"#utility.yul\":6970:6979   */\n              dup2\n                /* \"#utility.yul\":6964:6968   */\n              dup2\n                /* \"#utility.yul\":6960:6980   */\n              sub\n                /* \"#utility.yul\":6956:6957   */\n              0x00\n                /* \"#utility.yul\":6945:6954   */\n              dup4\n                /* \"#utility.yul\":6941:6958   */\n              add\n                /* \"#utility.yul\":6934:6981   */\n              mstore\n                /* \"#utility.yul\":6998:7076   */\n              tag_137\n                /* \"#utility.yul\":7071:7075   */\n              dup2\n                /* \"#utility.yul\":7062:7068   */\n              dup7\n                /* \"#utility.yul\":6998:7076   */\n              tag_47\n              jump\t// in\n            tag_137:\n                /* \"#utility.yul\":6990:7076   */\n              swap1\n              pop\n                /* \"#utility.yul\":7086:7158   */\n              tag_138\n                /* \"#utility.yul\":7154:7156   */\n              0x20\n                /* \"#utility.yul\":7143:7152   */\n              dup4\n                /* \"#utility.yul\":7139:7157   */\n              add\n                /* \"#utility.yul\":7130:7136   */\n              dup6\n                /* \"#utility.yul\":7086:7158   */\n              tag_53\n              jump\t// in\n            tag_138:\n                /* \"#utility.yul\":7168:7240   */\n              tag_139\n                /* \"#utility.yul\":7236:7238   */\n              0x40\n                /* \"#utility.yul\":7225:7234   */\n              dup4\n                /* \"#utility.yul\":7221:7239   */\n              add\n                /* \"#utility.yul\":7212:7218   */\n              dup5\n                /* \"#utility.yul\":7168:7240   */\n              tag_53\n              jump\t// in\n            tag_139:\n                /* \"#utility.yul\":6714:7247   */\n              swap5\n              swap4\n              pop\n              pop\n              pop\n              pop\n              jump\t// out\n\n            auxdata: 0xa264697066735822122096e18f87c35b5aa485072d1a558a12d0ac78ffbc98e5f197e7a524221b7ecf4b64736f6c634300080a0033\n        }\n    }\n\n    auxdata: 0xa26469706673582212204b77dd25202e35de2e7227789ff976ab40e1fb6a9ed1a47104e1f9ed317ed4bf64736f6c634300080a0033\n}\n","bytecode":{"linkReferences":{},"object":"60806040523480156200001157600080fd5b5060405162001e3938038062001e3983398181016040528101906200003791906200058b565b336000806101000a81548173ffffffffffffffffffffffffffffffffffffffff021916908373ffffffffffffffffffffffffffffffffffffffff16021790555080600190805190602001906200008f92919062000185565b5060005b825181101562000147576000620000d1848381518110620000b957620000b862000610565b5b6020026020010151600001516200015060201b60201c565b9050838281518110620000e957620000e862000610565b5b60200260200101516003600083815260200190815260200160002060008201518160000190805190602001906200012292919062000185565b50602082015181600101559050505080806200013e906200066e565b91505062000093565b5050506200085a565b6000816001604051602001620001689291906200081f565b604051602081830303815290604052805190602001209050919050565b828054620001939062000748565b90600052602060002090601f016020900481019282620001b7576000855562000203565b82601f10620001d257805160ff191683800117855562000203565b8280016001018555821562000203579182015b8281111562000202578251825591602001919060010190620001e5565b5b50905062000212919062000216565b5090565b5b808211156200023157600081600090555060010162000217565b5090565b6000604051905090565b600080fd5b600080fd5b600080fd5b6000601f19601f8301169050919050565b7f4e487b7100000000000000000000000000000000000000000000000000000000600052604160045260246000fd5b62000299826200024e565b810181811067ffffffffffffffff82111715620002bb57620002ba6200025f565b5b80604052505050565b6000620002d062000235565b9050620002de82826200028e565b919050565b600067ffffffffffffffff8211156200030157620003006200025f565b5b602082029050602081019050919050565b600080fd5b600080fd5b600080fd5b600080fd5b600067ffffffffffffffff8211156200034457620003436200025f565b5b6200034f826200024e565b9050602081019050919050565b60005b838110156200037c5780820151818401526020810190506200035f565b838111156200038c576000848401525b50505050565b6000620003a9620003a38462000326565b620002c4565b905082815260208101848484011115620003c857620003c762000321565b5b620003d58482856200035c565b509392505050565b600082601f830112620003f557620003f462000249565b5b81516200040784826020860162000392565b91505092915050565b6000819050919050565b620004258162000410565b81146200043157600080fd5b50565b60008151905062000445816200041a565b92915050565b60006040828403121562000464576200046362000317565b5b620004706040620002c4565b9050600082015167ffffffffffffffff8111156200049357620004926200031c565b5b620004a184828501620003dd565b6000830152506020620004b78482850162000434565b60208301525092915050565b6000620004da620004d484620002e3565b620002c4565b905080838252602082019050602084028301858111156200050057620004ff62000312565b5b835b818110156200054e57805167ffffffffffffffff81111562000529576200052862000249565b5b8086016200053889826200044b565b8552602085019450505060208101905062000502565b5050509392505050565b600082601f83011262000570576200056f62000249565b5b815162000582848260208601620004c3565b91505092915050565b60008060408385031215620005a557620005a46200023f565b5b600083015167ffffffffffffffff811115620005c657620005c562000244565b5b620005d48582860162000558565b925050602083015167ffffffffffffffff811115620005f857620005f762000244565b5b6200060685828601620003dd565b9150509250929050565b7f4e487b7100000000000000000000000000000000000000000000000000000000600052603260045260246000fd5b7f4e487b7100000000000000000000000000000000000000000000000000000000600052601160045260246000fd5b60006200067b8262000410565b91507fffffffffffffffffffffffffffffffffffffffffffffffffffffffffffffffff821415620006b157620006b06200063f565b5b600182019050919050565b600081519050919050565b600082825260208201905092915050565b6000620006e582620006bc565b620006f18185620006c7565b9350620007038185602086016200035c565b6200070e816200024e565b840191505092915050565b7f4e487b7100000000000000000000000000000000000000000000000000000000600052602260045260246000fd5b600060028204905060018216806200076157607f821691505b6020821081141562000778576200077762000719565b5b50919050565b60008190508160005260206000209050919050565b60008154620007a28162000748565b620007ae8186620006c7565b94506001821660008114620007cc5760018114620007df5762000816565b60ff198316865260208601935062000816565b620007ea856200077e565b60005b838110156200080e57815481890152600182019150602081019050620007ed565b808801955050505b50505092915050565b600060408201905081810360008301526200083b8185620006d8565b9050818103602083015262000851818462000793565b90509392505050565b6115cf806200086a6000396000f3fe608060405260043610620000925760003560e01c806387458b5a116200006157806387458b5a146200016a578063c7452851146200018a578063cb373a8814620001ce578063ddf88dfc14620001e8578063fd01273b146200022c5762000092565b806337911c2a1462000097578063500ed75d14620000c75780637475428214620000f5578063790543911462000125575b600080fd5b348015620000a457600080fd5b50620000af62000270565b604051620000be919062000896565b60405180910390f35b348015620000d457600080fd5b50620000f36004803603810190620000ed919062000a75565b62000306565b005b3480156200010257600080fd5b506200010d620003dd565b6040516200011c919062000b01565b60405180910390f35b3480156200013257600080fd5b506200015160048036038101906200014b919062000b59565b62000401565b6040516200016192919062000c39565b60405180910390f35b62000188600480360381019062000182919062000c6d565b620004b5565b005b3480156200019757600080fd5b50620001b66004803603810190620001b0919062000c6d565b620005fd565b604051620001c5919062000ccf565b60405180910390f35b348015620001db57600080fd5b50620001e662000632565b005b348015620001f557600080fd5b506200021460048036038101906200020e919062000c6d565b620006cf565b60405162000223919062000b01565b60405180910390f35b3480156200023957600080fd5b5062000258600480360381019062000252919062000c6d565b62000716565b60405162000267919062000cec565b60405180910390f35b606060006002805480602002602001604051908101604052809291908181526020018280548015620002f857602002820191906000526020600020905b8160009054906101000a900473ffffffffffffffffffffffffffffffffffffffff1673ffffffffffffffffffffffffffffffffffffffff1681526020019060010190808311620002ad575b505050505090508091505090565b600460006200031585620005fd565b815260200190815260200160002060009054906101000a900473ffffffffffffffffffffffffffffffffffffffff1673ffffffffffffffffffffffffffffffffffffffff168273ffffffffffffffffffffffffffffffffffffffff16146200037c57600080fd5b80600460006200038c86620005fd565b815260200190815260200160002060006101000a81548173ffffffffffffffffffffffffffffffffffffffff021916908373ffffffffffffffffffffffffffffffffffffffff160217905550505050565b60008054906101000a900473ffffffffffffffffffffffffffffffffffffffff1681565b6003602052806000526040600020600091509050806000018054620004269062000d38565b80601f0160208091040260200160405190810160405280929190818152602001828054620004549062000d38565b8015620004a55780601f106200047957610100808354040283529160200191620004a5565b820191906000526020600020905b8154815290600101906020018083116200048757829003601f168201915b5050505050908060010154905082565b600060036000620004c684620005fd565b8152602001908152602001600020604051806040016040529081600082018054620004f19062000d38565b80601f01602080910402602001604051908101604052809291908181526020018280546200051f9062000d38565b8015620005705780601f10620005445761010080835404028352916020019162000570565b820191906000526020600020905b8154815290600101906020018083116200055257829003601f168201915b505050505081526020016001820154815250509050600081602001519050803410156200059c57600080fd5b3360046000620005ac86620005fd565b815260200190815260200160002060006101000a81548173ffffffffffffffffffffffffffffffffffffffff021916908373ffffffffffffffffffffffffffffffffffffffff160217905550505050565b60008160016040516020016200061592919062000e0f565b604051602081830303815290604052805190602001209050919050565b600233604051620006439062000740565b6200064f919062000b01565b604051809103906000f0801580156200066c573d6000803e3d6000fd5b509080600181540180825580915050600190039060005260206000200160009091909190916101000a81548173ffffffffffffffffffffffffffffffffffffffff021916908373ffffffffffffffffffffffffffffffffffffffff160217905550565b600060046000620006e084620005fd565b815260200190815260200160002060009054906101000a900473ffffffffffffffffffffffffffffffffffffffff169050919050565b6000600360006200072784620005fd565b8152602001908152602001600020600101549050919050565b61074f8062000e4b83390190565b600081519050919050565b600082825260208201905092915050565b6000819050602082019050919050565b600073ffffffffffffffffffffffffffffffffffffffff82169050919050565b6000819050919050565b6000620007c5620007bf620007b9846200077a565b6200079a565b6200077a565b9050919050565b6000620007d982620007a4565b9050919050565b6000620007ed82620007cc565b9050919050565b620007ff81620007e0565b82525050565b6000620008138383620007f4565b60208301905092915050565b6000602082019050919050565b600062000839826200074e565b62000845818562000759565b935062000852836200076a565b8060005b83811015620008895781516200086d888262000805565b97506200087a836200081f565b92505060018101905062000856565b5085935050505092915050565b60006020820190508181036000830152620008b281846200082c565b905092915050565b6000604051905090565b600080fd5b600080fd5b600080fd5b600080fd5b6000601f19601f8301169050919050565b7f4e487b7100000000000000000000000000000000000000000000000000000000600052604160045260246000fd5b6200092382620008d8565b810181811067ffffffffffffffff82111715620009455762000944620008e9565b5b80604052505050565b60006200095a620008ba565b905062000968828262000918565b919050565b600067ffffffffffffffff8211156200098b576200098a620008e9565b5b6200099682620008d8565b9050602081019050919050565b82818337600083830152505050565b6000620009c9620009c3846200096d565b6200094e565b905082815260208101848484011115620009e857620009e7620008d3565b5b620009f5848285620009a3565b509392505050565b600082601f83011262000a155762000a14620008ce565b5b813562000a27848260208601620009b2565b91505092915050565b600062000a3d826200077a565b9050919050565b62000a4f8162000a30565b811462000a5b57600080fd5b50565b60008135905062000a6f8162000a44565b92915050565b60008060006060848603121562000a915762000a90620008c4565b5b600084013567ffffffffffffffff81111562000ab25762000ab1620008c9565b5b62000ac086828701620009fd565b935050602062000ad38682870162000a5e565b925050604062000ae68682870162000a5e565b9150509250925092565b62000afb8162000a30565b82525050565b600060208201905062000b18600083018462000af0565b92915050565b6000819050919050565b62000b338162000b1e565b811462000b3f57600080fd5b50565b60008135905062000b538162000b28565b92915050565b60006020828403121562000b725762000b71620008c4565b5b600062000b828482850162000b42565b91505092915050565b600081519050919050565b600082825260208201905092915050565b60005b8381101562000bc757808201518184015260208101905062000baa565b8381111562000bd7576000848401525b50505050565b600062000bea8262000b8b565b62000bf6818562000b96565b935062000c0881856020860162000ba7565b62000c1381620008d8565b840191505092915050565b6000819050919050565b62000c338162000c1e565b82525050565b6000604082019050818103600083015262000c55818562000bdd565b905062000c66602083018462000c28565b9392505050565b60006020828403121562000c865762000c85620008c4565b5b600082013567ffffffffffffffff81111562000ca75762000ca6620008c9565b5b62000cb584828501620009fd565b91505092915050565b62000cc98162000b1e565b82525050565b600060208201905062000ce6600083018462000cbe565b92915050565b600060208201905062000d03600083018462000c28565b92915050565b7f4e487b7100000000000000000000000000000000000000000000000000000000600052602260045260246000fd5b6000600282049050600182168062000d5157607f821691505b6020821081141562000d685762000d6762000d09565b5b50919050565b60008190508160005260206000209050919050565b6000815462000d928162000d38565b62000d9e818662000b96565b9450600182166000811462000dbc576001811462000dcf5762000e06565b60ff198316865260208601935062000e06565b62000dda8562000d6e565b60005b8381101562000dfe5781548189015260018201915060208101905062000ddd565b808801955050505b50505092915050565b6000604082019050818103600083015262000e2b818562000bdd565b9050818103602083015262000e41818462000d83565b9050939250505056fe608060405234801561001057600080fd5b5060405161074f38038061074f833981810160405281019061003291906100db565b806000806101000a81548173ffffffffffffffffffffffffffffffffffffffff021916908373ffffffffffffffffffffffffffffffffffffffff16021790555050610108565b600080fd5b600073ffffffffffffffffffffffffffffffffffffffff82169050919050565b60006100a88261007d565b9050919050565b6100b88161009d565b81146100c357600080fd5b50565b6000815190506100d5816100af565b92915050565b6000602082840312156100f1576100f0610078565b5b60006100ff848285016100c6565b91505092915050565b610638806101176000396000f3fe60806040526004361061001e5760003560e01c8063e38abb4814610023575b600080fd5b61003d600480360381019061003891906103f3565b61003f565b005b60008054906101000a900473ffffffffffffffffffffffffffffffffffffffff1673ffffffffffffffffffffffffffffffffffffffff168273ffffffffffffffffffffffffffffffffffffffff1663ddf88dfc836040518263ffffffff1660e01b81526004016100af91906104d7565b602060405180830381865afa1580156100cc573d6000803e3d6000fd5b505050506040513d601f19601f820116820180604052508101906100f09190610525565b73ffffffffffffffffffffffffffffffffffffffff161461011057600080fd5b8173ffffffffffffffffffffffffffffffffffffffff1663fd01273b826040518263ffffffff1660e01b815260040161014991906104d7565b602060405180830381865afa158015610166573d6000803e3d6000fd5b505050506040513d601f19601f8201168201806040525081019061018a9190610588565b34101561019657600080fd5b8173ffffffffffffffffffffffffffffffffffffffff1663500ed75d8260008054906101000a900473ffffffffffffffffffffffffffffffffffffffff16336040518463ffffffff1660e01b81526004016101f3939291906105c4565b600060405180830381600087803b15801561020d57600080fd5b505af1158015610221573d6000803e3d6000fd5b505050505050565b6000604051905090565b600080fd5b600080fd5b600073ffffffffffffffffffffffffffffffffffffffff82169050919050565b60006102688261023d565b9050919050565b600061027a8261025d565b9050919050565b61028a8161026f565b811461029557600080fd5b50565b6000813590506102a781610281565b92915050565b600080fd5b600080fd5b6000601f19601f8301169050919050565b7f4e487b7100000000000000000000000000000000000000000000000000000000600052604160045260246000fd5b610300826102b7565b810181811067ffffffffffffffff8211171561031f5761031e6102c8565b5b80604052505050565b6000610332610229565b905061033e82826102f7565b919050565b600067ffffffffffffffff82111561035e5761035d6102c8565b5b610367826102b7565b9050602081019050919050565b82818337600083830152505050565b600061039661039184610343565b610328565b9050828152602081018484840111156103b2576103b16102b2565b5b6103bd848285610374565b509392505050565b600082601f8301126103da576103d96102ad565b5b81356103ea848260208601610383565b91505092915050565b6000806040838503121561040a57610409610233565b5b600061041885828601610298565b925050602083013567ffffffffffffffff81111561043957610438610238565b5b610445858286016103c5565b9150509250929050565b600081519050919050565b600082825260208201905092915050565b60005b8381101561048957808201518184015260208101905061046e565b83811115610498576000848401525b50505050565b60006104a98261044f565b6104b3818561045a565b93506104c381856020860161046b565b6104cc816102b7565b840191505092915050565b600060208201905081810360008301526104f1818461049e565b905092915050565b6105028161025d565b811461050d57600080fd5b50565b60008151905061051f816104f9565b92915050565b60006020828403121561053b5761053a610233565b5b600061054984828501610510565b91505092915050565b6000819050919050565b61056581610552565b811461057057600080fd5b50565b6000815190506105828161055c565b92915050565b60006020828403121561059e5761059d610233565b5b60006105ac84828501610573565b91505092915050565b6105be8161025d565b82525050565b600060608201905081810360008301526105de818661049e565b90506105ed60208301856105b5565b6105fa60408301846105b5565b94935050505056fea264697066735822122096e18f87c35b5aa485072d1a558a12d0ac78ffbc98e5f197e7a524221b7ecf4b64736f6c634300080a0033a26469706673582212204b77dd25202e35de2e7227789ff976ab40e1fb6a9ed1a47104e1f9ed317ed4bf64736f6c634300080a0033","opcodes":"PUSH1 0x80 PUSH1 0x40 MSTORE CALLVALUE DUP1 ISZERO PUSH3 0x11 JUMPI PUSH1 0x0 DUP1 REVERT JUMPDEST POP PUSH1 0x40 MLOAD PUSH3 0x1E39 CODESIZE SUB DUP1 PUSH3 0x1E39 DUP4 CODECOPY DUP2 DUP2 ADD PUSH1 0x40 MSTORE DUP2 ADD SWAP1 PUSH3 0x37 SWAP2 SWAP1 PUSH3 0x58B JUMP JUMPDEST CALLER PUSH1 0x0 DUP1 PUSH2 0x100 EXP DUP2 SLOAD DUP2 PUSH20 0xFFFFFFFFFFFFFFFFFFFFFFFFFFFFFFFFFFFFFFFF MUL NOT AND SWAP1 DUP4 PUSH20 0xFFFFFFFFFFFFFFFFFFFFFFFFFFFFFFFFFFFFFFFF AND MUL OR SWAP1 SSTORE POP DUP1 PUSH1 0x1 SWAP1 DUP1 MLOAD SWAP1 PUSH1 0x20 ADD SWAP1 PUSH3 0x8F SWAP3 SWAP2 SWAP1 PUSH3 0x185 JUMP JUMPDEST POP PUSH1 0x0 JUMPDEST DUP3 MLOAD DUP2 LT ISZERO PUSH3 0x147 JUMPI PUSH1 0x0 PUSH3 0xD1 DUP5 DUP4 DUP2 MLOAD DUP2 LT PUSH3 0xB9 JUMPI PUSH3 0xB8 PUSH3 0x610 JUMP JUMPDEST JUMPDEST PUSH1 0x20 MUL PUSH1 0x20 ADD ADD MLOAD PUSH1 0x0 ADD MLOAD PUSH3 0x150 PUSH1 0x20 SHL PUSH1 0x20 SHR JUMP JUMPDEST SWAP1 POP DUP4 DUP3 DUP2 MLOAD DUP2 LT PUSH3 0xE9 JUMPI PUSH3 0xE8 PUSH3 0x610 JUMP JUMPDEST JUMPDEST PUSH1 0x20 MUL PUSH1 0x20 ADD ADD MLOAD PUSH1 0x3 PUSH1 0x0 DUP4 DUP2 MSTORE PUSH1 0x20 ADD SWAP1 DUP2 MSTORE PUSH1 0x20 ADD PUSH1 0x0 KECCAK256 PUSH1 0x0 DUP3 ADD MLOAD DUP2 PUSH1 0x0 ADD SWAP1 DUP1 MLOAD SWAP1 PUSH1 0x20 ADD SWAP1 PUSH3 0x122 SWAP3 SWAP2 SWAP1 PUSH3 0x185 JUMP JUMPDEST POP PUSH1 0x20 DUP3 ADD MLOAD DUP2 PUSH1 0x1 ADD SSTORE SWAP1 POP POP POP DUP1 DUP1 PUSH3 0x13E SWAP1 PUSH3 0x66E JUMP JUMPDEST SWAP2 POP POP PUSH3 0x93 JUMP JUMPDEST POP POP POP PUSH3 0x85A JUMP JUMPDEST PUSH1 0x0 DUP2 PUSH1 0x1 PUSH1 0x40 MLOAD PUSH1 0x20 ADD PUSH3 0x168 SWAP3 SWAP2 SWAP1 PUSH3 0x81F JUMP JUMPDEST PUSH1 0x40 MLOAD PUSH1 0x20 DUP2 DUP4 SUB SUB DUP2 MSTORE SWAP1 PUSH1 0x40 MSTORE DUP1 MLOAD SWAP1 PUSH1 0x20 ADD KECCAK256 SWAP1 POP SWAP2 SWAP1 POP JUMP JUMPDEST DUP3 DUP1 SLOAD PUSH3 0x193 SWAP1 PUSH3 0x748 JUMP JUMPDEST SWAP1 PUSH1 0x0 MSTORE PUSH1 0x20 PUSH1 0x0 KECCAK256 SWAP1 PUSH1 0x1F ADD PUSH1 0x20 SWAP1 DIV DUP2 ADD SWAP3 DUP3 PUSH3 0x1B7 JUMPI PUSH1 0x0 DUP6 SSTORE PUSH3 0x203 JUMP JUMPDEST DUP3 PUSH1 0x1F LT PUSH3 0x1D2 JUMPI DUP1 MLOAD PUSH1 0xFF NOT AND DUP4 DUP1 ADD OR DUP6 SSTORE PUSH3 0x203 JUMP JUMPDEST DUP3 DUP1 ADD PUSH1 0x1 ADD DUP6 SSTORE DUP3 ISZERO PUSH3 0x203 JUMPI SWAP2 DUP3 ADD JUMPDEST DUP3 DUP2 GT ISZERO PUSH3 0x202 JUMPI DUP3 MLOAD DUP3 SSTORE SWAP2 PUSH1 0x20 ADD SWAP2 SWAP1 PUSH1 0x1 ADD SWAP1 PUSH3 0x1E5 JUMP JUMPDEST JUMPDEST POP SWAP1 POP PUSH3 0x212 SWAP2 SWAP1 PUSH3 0x216 JUMP JUMPDEST POP SWAP1 JUMP JUMPDEST JUMPDEST DUP1 DUP3 GT ISZERO PUSH3 0x231 JUMPI PUSH1 0x0 DUP2 PUSH1 0x0 SWAP1 SSTORE POP PUSH1 0x1 ADD PUSH3 0x217 JUMP JUMPDEST POP SWAP1 JUMP JUMPDEST PUSH1 0x0 PUSH1 0x40 MLOAD SWAP1 POP SWAP1 JUMP JUMPDEST PUSH1 0x0 DUP1 REVERT JUMPDEST PUSH1 0x0 DUP1 REVERT JUMPDEST PUSH1 0x0 DUP1 REVERT JUMPDEST PUSH1 0x0 PUSH1 0x1F NOT PUSH1 0x1F DUP4 ADD AND SWAP1 POP SWAP2 SWAP1 POP JUMP JUMPDEST PUSH32 0x4E487B7100000000000000000000000000000000000000000000000000000000 PUSH1 0x0 MSTORE PUSH1 0x41 PUSH1 0x4 MSTORE PUSH1 0x24 PUSH1 0x0 REVERT JUMPDEST PUSH3 0x299 DUP3 PUSH3 0x24E JUMP JUMPDEST DUP2 ADD DUP2 DUP2 LT PUSH8 0xFFFFFFFFFFFFFFFF DUP3 GT OR ISZERO PUSH3 0x2BB JUMPI PUSH3 0x2BA PUSH3 0x25F JUMP JUMPDEST JUMPDEST DUP1 PUSH1 0x40 MSTORE POP POP POP JUMP JUMPDEST PUSH1 0x0 PUSH3 0x2D0 PUSH3 0x235 JUMP JUMPDEST SWAP1 POP PUSH3 0x2DE DUP3 DUP3 PUSH3 0x28E JUMP JUMPDEST SWAP2 SWAP1 POP JUMP JUMPDEST PUSH1 0x0 PUSH8 0xFFFFFFFFFFFFFFFF DUP3 GT ISZERO PUSH3 0x301 JUMPI PUSH3 0x300 PUSH3 0x25F JUMP JUMPDEST JUMPDEST PUSH1 0x20 DUP3 MUL SWAP1 POP PUSH1 0x20 DUP2 ADD SWAP1 POP SWAP2 SWAP1 POP JUMP JUMPDEST PUSH1 0x0 DUP1 REVERT JUMPDEST PUSH1 0x0 DUP1 REVERT JUMPDEST PUSH1 0x0 DUP1 REVERT JUMPDEST PUSH1 0x0 DUP1 REVERT JUMPDEST PUSH1 0x0 PUSH8 0xFFFFFFFFFFFFFFFF DUP3 GT ISZERO PUSH3 0x344 JUMPI PUSH3 0x343 PUSH3 0x25F JUMP JUMPDEST JUMPDEST PUSH3 0x34F DUP3 PUSH3 0x24E JUMP JUMPDEST SWAP1 POP PUSH1 0x20 DUP2 ADD SWAP1 POP SWAP2 SWAP1 POP JUMP JUMPDEST PUSH1 0x0 JUMPDEST DUP4 DUP2 LT ISZERO PUSH3 0x37C JUMPI DUP1 DUP3 ADD MLOAD DUP2 DUP5 ADD MSTORE PUSH1 0x20 DUP2 ADD SWAP1 POP PUSH3 0x35F JUMP JUMPDEST DUP4 DUP2 GT ISZERO PUSH3 0x38C JUMPI PUSH1 0x0 DUP5 DUP5 ADD MSTORE JUMPDEST POP POP POP POP JUMP JUMPDEST PUSH1 0x0 PUSH3 0x3A9 PUSH3 0x3A3 DUP5 PUSH3 0x326 JUMP JUMPDEST PUSH3 0x2C4 JUMP JUMPDEST SWAP1 POP DUP3 DUP2 MSTORE PUSH1 0x20 DUP2 ADD DUP5 DUP5 DUP5 ADD GT ISZERO PUSH3 0x3C8 JUMPI PUSH3 0x3C7 PUSH3 0x321 JUMP JUMPDEST JUMPDEST PUSH3 0x3D5 DUP5 DUP3 DUP6 PUSH3 0x35C JUMP JUMPDEST POP SWAP4 SWAP3 POP POP POP JUMP JUMPDEST PUSH1 0x0 DUP3 PUSH1 0x1F DUP4 ADD SLT PUSH3 0x3F5 JUMPI PUSH3 0x3F4 PUSH3 0x249 JUMP JUMPDEST JUMPDEST DUP2 MLOAD PUSH3 0x407 DUP5 DUP3 PUSH1 0x20 DUP7 ADD PUSH3 0x392 JUMP JUMPDEST SWAP2 POP POP SWAP3 SWAP2 POP POP JUMP JUMPDEST PUSH1 0x0 DUP2 SWAP1 POP SWAP2 SWAP1 POP JUMP JUMPDEST PUSH3 0x425 DUP2 PUSH3 0x410 JUMP JUMPDEST DUP2 EQ PUSH3 0x431 JUMPI PUSH1 0x0 DUP1 REVERT JUMPDEST POP JUMP JUMPDEST PUSH1 0x0 DUP2 MLOAD SWAP1 POP PUSH3 0x445 DUP2 PUSH3 0x41A JUMP JUMPDEST SWAP3 SWAP2 POP POP JUMP JUMPDEST PUSH1 0x0 PUSH1 0x40 DUP3 DUP5 SUB SLT ISZERO PUSH3 0x464 JUMPI PUSH3 0x463 PUSH3 0x317 JUMP JUMPDEST JUMPDEST PUSH3 0x470 PUSH1 0x40 PUSH3 0x2C4 JUMP JUMPDEST SWAP1 POP PUSH1 0x0 DUP3 ADD MLOAD PUSH8 0xFFFFFFFFFFFFFFFF DUP2 GT ISZERO PUSH3 0x493 JUMPI PUSH3 0x492 PUSH3 0x31C JUMP JUMPDEST JUMPDEST PUSH3 0x4A1 DUP5 DUP3 DUP6 ADD PUSH3 0x3DD JUMP JUMPDEST PUSH1 0x0 DUP4 ADD MSTORE POP PUSH1 0x20 PUSH3 0x4B7 DUP5 DUP3 DUP6 ADD PUSH3 0x434 JUMP JUMPDEST PUSH1 0x20 DUP4 ADD MSTORE POP SWAP3 SWAP2 POP POP JUMP JUMPDEST PUSH1 0x0 PUSH3 0x4DA PUSH3 0x4D4 DUP5 PUSH3 0x2E3 JUMP JUMPDEST PUSH3 0x2C4 JUMP JUMPDEST SWAP1 POP DUP1 DUP4 DUP3 MSTORE PUSH1 0x20 DUP3 ADD SWAP1 POP PUSH1 0x20 DUP5 MUL DUP4 ADD DUP6 DUP2 GT ISZERO PUSH3 0x500 JUMPI PUSH3 0x4FF PUSH3 0x312 JUMP JUMPDEST JUMPDEST DUP4 JUMPDEST DUP2 DUP2 LT ISZERO PUSH3 0x54E JUMPI DUP1 MLOAD PUSH8 0xFFFFFFFFFFFFFFFF DUP2 GT ISZERO PUSH3 0x529 JUMPI PUSH3 0x528 PUSH3 0x249 JUMP JUMPDEST JUMPDEST DUP1 DUP7 ADD PUSH3 0x538 DUP10 DUP3 PUSH3 0x44B JUMP JUMPDEST DUP6 MSTORE PUSH1 0x20 DUP6 ADD SWAP5 POP POP POP PUSH1 0x20 DUP2 ADD SWAP1 POP PUSH3 0x502 JUMP JUMPDEST POP POP POP SWAP4 SWAP3 POP POP POP JUMP JUMPDEST PUSH1 0x0 DUP3 PUSH1 0x1F DUP4 ADD SLT PUSH3 0x570 JUMPI PUSH3 0x56F PUSH3 0x249 JUMP JUMPDEST JUMPDEST DUP2 MLOAD PUSH3 0x582 DUP5 DUP3 PUSH1 0x20 DUP7 ADD PUSH3 0x4C3 JUMP JUMPDEST SWAP2 POP POP SWAP3 SWAP2 POP POP JUMP JUMPDEST PUSH1 0x0 DUP1 PUSH1 0x40 DUP4 DUP6 SUB SLT ISZERO PUSH3 0x5A5 JUMPI PUSH3 0x5A4 PUSH3 0x23F JUMP JUMPDEST JUMPDEST PUSH1 0x0 DUP4 ADD MLOAD PUSH8 0xFFFFFFFFFFFFFFFF DUP2 GT ISZERO PUSH3 0x5C6 JUMPI PUSH3 0x5C5 PUSH3 0x244 JUMP JUMPDEST JUMPDEST PUSH3 0x5D4 DUP6 DUP3 DUP7 ADD PUSH3 0x558 JUMP JUMPDEST SWAP3 POP POP PUSH1 0x20 DUP4 ADD MLOAD PUSH8 0xFFFFFFFFFFFFFFFF DUP2 GT ISZERO PUSH3 0x5F8 JUMPI PUSH3 0x5F7 PUSH3 0x244 JUMP JUMPDEST JUMPDEST PUSH3 0x606 DUP6 DUP3 DUP7 ADD PUSH3 0x3DD JUMP JUMPDEST SWAP2 POP POP SWAP3 POP SWAP3 SWAP1 POP JUMP JUMPDEST PUSH32 0x4E487B7100000000000000000000000000000000000000000000000000000000 PUSH1 0x0 MSTORE PUSH1 0x32 PUSH1 0x4 MSTORE PUSH1 0x24 PUSH1 0x0 REVERT JUMPDEST PUSH32 0x4E487B7100000000000000000000000000000000000000000000000000000000 PUSH1 0x0 MSTORE PUSH1 0x11 PUSH1 0x4 MSTORE PUSH1 0x24 PUSH1 0x0 REVERT JUMPDEST PUSH1 0x0 PUSH3 0x67B DUP3 PUSH3 0x410 JUMP JUMPDEST SWAP2 POP PUSH32 0xFFFFFFFFFFFFFFFFFFFFFFFFFFFFFFFFFFFFFFFFFFFFFFFFFFFFFFFFFFFFFFFF DUP3 EQ ISZERO PUSH3 0x6B1 JUMPI PUSH3 0x6B0 PUSH3 0x63F JUMP JUMPDEST JUMPDEST PUSH1 0x1 DUP3 ADD SWAP1 POP SWAP2 SWAP1 POP JUMP JUMPDEST PUSH1 0x0 DUP2 MLOAD SWAP1 POP SWAP2 SWAP1 POP JUMP JUMPDEST PUSH1 0x0 DUP3 DUP3 MSTORE PUSH1 0x20 DUP3 ADD SWAP1 POP SWAP3 SWAP2 POP POP JUMP JUMPDEST PUSH1 0x0 PUSH3 0x6E5 DUP3 PUSH3 0x6BC JUMP JUMPDEST PUSH3 0x6F1 DUP2 DUP6 PUSH3 0x6C7 JUMP JUMPDEST SWAP4 POP PUSH3 0x703 DUP2 DUP6 PUSH1 0x20 DUP7 ADD PUSH3 0x35C JUMP JUMPDEST PUSH3 0x70E DUP2 PUSH3 0x24E JUMP JUMPDEST DUP5 ADD SWAP2 POP POP SWAP3 SWAP2 POP POP JUMP JUMPDEST PUSH32 0x4E487B7100000000000000000000000000000000000000000000000000000000 PUSH1 0x0 MSTORE PUSH1 0x22 PUSH1 0x4 MSTORE PUSH1 0x24 PUSH1 0x0 REVERT JUMPDEST PUSH1 0x0 PUSH1 0x2 DUP3 DIV SWAP1 POP PUSH1 0x1 DUP3 AND DUP1 PUSH3 0x761 JUMPI PUSH1 0x7F DUP3 AND SWAP2 POP JUMPDEST PUSH1 0x20 DUP3 LT DUP2 EQ ISZERO PUSH3 0x778 JUMPI PUSH3 0x777 PUSH3 0x719 JUMP JUMPDEST JUMPDEST POP SWAP2 SWAP1 POP JUMP JUMPDEST PUSH1 0x0 DUP2 SWAP1 POP DUP2 PUSH1 0x0 MSTORE PUSH1 0x20 PUSH1 0x0 KECCAK256 SWAP1 POP SWAP2 SWAP1 POP JUMP JUMPDEST PUSH1 0x0 DUP2 SLOAD PUSH3 0x7A2 DUP2 PUSH3 0x748 JUMP JUMPDEST PUSH3 0x7AE DUP2 DUP7 PUSH3 0x6C7 JUMP JUMPDEST SWAP5 POP PUSH1 0x1 DUP3 AND PUSH1 0x0 DUP2 EQ PUSH3 0x7CC JUMPI PUSH1 0x1 DUP2 EQ PUSH3 0x7DF JUMPI PUSH3 0x816 JUMP JUMPDEST PUSH1 0xFF NOT DUP4 AND DUP7 MSTORE PUSH1 0x20 DUP7 ADD SWAP4 POP PUSH3 0x816 JUMP JUMPDEST PUSH3 0x7EA DUP6 PUSH3 0x77E JUMP JUMPDEST PUSH1 0x0 JUMPDEST DUP4 DUP2 LT ISZERO PUSH3 0x80E JUMPI DUP2 SLOAD DUP2 DUP10 ADD MSTORE PUSH1 0x1 DUP3 ADD SWAP2 POP PUSH1 0x20 DUP2 ADD SWAP1 POP PUSH3 0x7ED JUMP JUMPDEST DUP1 DUP9 ADD SWAP6 POP POP POP JUMPDEST POP POP POP SWAP3 SWAP2 POP POP JUMP JUMPDEST PUSH1 0x0 PUSH1 0x40 DUP3 ADD SWAP1 POP DUP2 DUP2 SUB PUSH1 0x0 DUP4 ADD MSTORE PUSH3 0x83B DUP2 DUP6 PUSH3 0x6D8 JUMP JUMPDEST SWAP1 POP DUP2 DUP2 SUB PUSH1 0x20 DUP4 ADD MSTORE PUSH3 0x851 DUP2 DUP5 PUSH3 0x793 JUMP JUMPDEST SWAP1 POP SWAP4 SWAP3 POP POP POP JUMP JUMPDEST PUSH2 0x15CF DUP1 PUSH3 0x86A PUSH1 0x0 CODECOPY PUSH1 0x0 RETURN INVALID PUSH1 0x80 PUSH1 0x40 MSTORE PUSH1 0x4 CALLDATASIZE LT PUSH3 0x92 JUMPI PUSH1 0x0 CALLDATALOAD PUSH1 0xE0 SHR DUP1 PUSH4 0x87458B5A GT PUSH3 0x61 JUMPI DUP1 PUSH4 0x87458B5A EQ PUSH3 0x16A JUMPI DUP1 PUSH4 0xC7452851 EQ PUSH3 0x18A JUMPI DUP1 PUSH4 0xCB373A88 EQ PUSH3 0x1CE JUMPI DUP1 PUSH4 0xDDF88DFC EQ PUSH3 0x1E8 JUMPI DUP1 PUSH4 0xFD01273B EQ PUSH3 0x22C JUMPI PUSH3 0x92 JUMP JUMPDEST DUP1 PUSH4 0x37911C2A EQ PUSH3 0x97 JUMPI DUP1 PUSH4 0x500ED75D EQ PUSH3 0xC7 JUMPI DUP1 PUSH4 0x74754282 EQ PUSH3 0xF5 JUMPI DUP1 PUSH4 0x79054391 EQ PUSH3 0x125 JUMPI JUMPDEST PUSH1 0x0 DUP1 REVERT JUMPDEST CALLVALUE DUP1 ISZERO PUSH3 0xA4 JUMPI PUSH1 0x0 DUP1 REVERT JUMPDEST POP PUSH3 0xAF PUSH3 0x270 JUMP JUMPDEST PUSH1 0x40 MLOAD PUSH3 0xBE SWAP2 SWAP1 PUSH3 0x896 JUMP JUMPDEST PUSH1 0x40 MLOAD DUP1 SWAP2 SUB SWAP1 RETURN JUMPDEST CALLVALUE DUP1 ISZERO PUSH3 0xD4 JUMPI PUSH1 0x0 DUP1 REVERT JUMPDEST POP PUSH3 0xF3 PUSH1 0x4 DUP1 CALLDATASIZE SUB DUP2 ADD SWAP1 PUSH3 0xED SWAP2 SWAP1 PUSH3 0xA75 JUMP JUMPDEST PUSH3 0x306 JUMP JUMPDEST STOP JUMPDEST CALLVALUE DUP1 ISZERO PUSH3 0x102 JUMPI PUSH1 0x0 DUP1 REVERT JUMPDEST POP PUSH3 0x10D PUSH3 0x3DD JUMP JUMPDEST PUSH1 0x40 MLOAD PUSH3 0x11C SWAP2 SWAP1 PUSH3 0xB01 JUMP JUMPDEST PUSH1 0x40 MLOAD DUP1 SWAP2 SUB SWAP1 RETURN JUMPDEST CALLVALUE DUP1 ISZERO PUSH3 0x132 JUMPI PUSH1 0x0 DUP1 REVERT JUMPDEST POP PUSH3 0x151 PUSH1 0x4 DUP1 CALLDATASIZE SUB DUP2 ADD SWAP1 PUSH3 0x14B SWAP2 SWAP1 PUSH3 0xB59 JUMP JUMPDEST PUSH3 0x401 JUMP JUMPDEST PUSH1 0x40 MLOAD PUSH3 0x161 SWAP3 SWAP2 SWAP1 PUSH3 0xC39 JUMP JUMPDEST PUSH1 0x40 MLOAD DUP1 SWAP2 SUB SWAP1 RETURN JUMPDEST PUSH3 0x188 PUSH1 0x4 DUP1 CALLDATASIZE SUB DUP2 ADD SWAP1 PUSH3 0x182 SWAP2 SWAP1 PUSH3 0xC6D JUMP JUMPDEST PUSH3 0x4B5 JUMP JUMPDEST STOP JUMPDEST CALLVALUE DUP1 ISZERO PUSH3 0x197 JUMPI PUSH1 0x0 DUP1 REVERT JUMPDEST POP PUSH3 0x1B6 PUSH1 0x4 DUP1 CALLDATASIZE SUB DUP2 ADD SWAP1 PUSH3 0x1B0 SWAP2 SWAP1 PUSH3 0xC6D JUMP JUMPDEST PUSH3 0x5FD JUMP JUMPDEST PUSH1 0x40 MLOAD PUSH3 0x1C5 SWAP2 SWAP1 PUSH3 0xCCF JUMP JUMPDEST PUSH1 0x40 MLOAD DUP1 SWAP2 SUB SWAP1 RETURN JUMPDEST CALLVALUE DUP1 ISZERO PUSH3 0x1DB JUMPI PUSH1 0x0 DUP1 REVERT JUMPDEST POP PUSH3 0x1E6 PUSH3 0x632 JUMP JUMPDEST STOP JUMPDEST CALLVALUE DUP1 ISZERO PUSH3 0x1F5 JUMPI PUSH1 0x0 DUP1 REVERT JUMPDEST POP PUSH3 0x214 PUSH1 0x4 DUP1 CALLDATASIZE SUB DUP2 ADD SWAP1 PUSH3 0x20E SWAP2 SWAP1 PUSH3 0xC6D JUMP JUMPDEST PUSH3 0x6CF JUMP JUMPDEST PUSH1 0x40 MLOAD PUSH3 0x223 SWAP2 SWAP1 PUSH3 0xB01 JUMP JUMPDEST PUSH1 0x40 MLOAD DUP1 SWAP2 SUB SWAP1 RETURN JUMPDEST CALLVALUE DUP1 ISZERO PUSH3 0x239 JUMPI PUSH1 0x0 DUP1 REVERT JUMPDEST POP PUSH3 0x258 PUSH1 0x4 DUP1 CALLDATASIZE SUB DUP2 ADD SWAP1 PUSH3 0x252 SWAP2 SWAP1 PUSH3 0xC6D JUMP JUMPDEST PUSH3 0x716 JUMP JUMPDEST PUSH1 0x40 MLOAD PUSH3 0x267 SWAP2 SWAP1 PUSH3 0xCEC JUMP JUMPDEST PUSH1 0x40 MLOAD DUP1 SWAP2 SUB SWAP1 RETURN JUMPDEST PUSH1 0x60 PUSH1 0x0 PUSH1 0x2 DUP1 SLOAD DUP1 PUSH1 0x20 MUL PUSH1 0x20 ADD PUSH1 0x40 MLOAD SWAP1 DUP2 ADD PUSH1 0x40 MSTORE DUP1 SWAP3 SWAP2 SWAP1 DUP2 DUP2 MSTORE PUSH1 0x20 ADD DUP3 DUP1 SLOAD DUP1 ISZERO PUSH3 0x2F8 JUMPI PUSH1 0x20 MUL DUP3 ADD SWAP2 SWAP1 PUSH1 0x0 MSTORE PUSH1 0x20 PUSH1 0x0 KECCAK256 SWAP1 JUMPDEST DUP2 PUSH1 0x0 SWAP1 SLOAD SWAP1 PUSH2 0x100 EXP SWAP1 DIV PUSH20 0xFFFFFFFFFFFFFFFFFFFFFFFFFFFFFFFFFFFFFFFF AND PUSH20 0xFFFFFFFFFFFFFFFFFFFFFFFFFFFFFFFFFFFFFFFF AND DUP2 MSTORE PUSH1 0x20 ADD SWAP1 PUSH1 0x1 ADD SWAP1 DUP1 DUP4 GT PUSH3 0x2AD JUMPI JUMPDEST POP POP POP POP POP SWAP1 POP DUP1 SWAP2 POP POP SWAP1 JUMP JUMPDEST PUSH1 0x4 PUSH1 0x0 PUSH3 0x315 DUP6 PUSH3 0x5FD JUMP JUMPDEST DUP2 MSTORE PUSH1 0x20 ADD SWAP1 DUP2 MSTORE PUSH1 0x20 ADD PUSH1 0x0 KECCAK256 PUSH1 0x0 SWAP1 SLOAD SWAP1 PUSH2 0x100 EXP SWAP1 DIV PUSH20 0xFFFFFFFFFFFFFFFFFFFFFFFFFFFFFFFFFFFFFFFF AND PUSH20 0xFFFFFFFFFFFFFFFFFFFFFFFFFFFFFFFFFFFFFFFF AND DUP3 PUSH20 0xFFFFFFFFFFFFFFFFFFFFFFFFFFFFFFFFFFFFFFFF AND EQ PUSH3 0x37C JUMPI PUSH1 0x0 DUP1 REVERT JUMPDEST DUP1 PUSH1 0x4 PUSH1 0x0 PUSH3 0x38C DUP7 PUSH3 0x5FD JUMP JUMPDEST DUP2 MSTORE PUSH1 0x20 ADD SWAP1 DUP2 MSTORE PUSH1 0x20 ADD PUSH1 0x0 KECCAK256 PUSH1 0x0 PUSH2 0x100 EXP DUP2 SLOAD DUP2 PUSH20 0xFFFFFFFFFFFFFFFFFFFFFFFFFFFFFFFFFFFFFFFF MUL NOT AND SWAP1 DUP4 PUSH20 0xFFFFFFFFFFFFFFFFFFFFFFFFFFFFFFFFFFFFFFFF AND MUL OR SWAP1 SSTORE POP POP POP POP JUMP JUMPDEST PUSH1 0x0 DUP1 SLOAD SWAP1 PUSH2 0x100 EXP SWAP1 DIV PUSH20 0xFFFFFFFFFFFFFFFFFFFFFFFFFFFFFFFFFFFFFFFF AND DUP2 JUMP JUMPDEST PUSH1 0x3 PUSH1 0x20 MSTORE DUP1 PUSH1 0x0 MSTORE PUSH1 0x40 PUSH1 0x0 KECCAK256 PUSH1 0x0 SWAP2 POP SWAP1 POP DUP1 PUSH1 0x0 ADD DUP1 SLOAD PUSH3 0x426 SWAP1 PUSH3 0xD38 JUMP JUMPDEST DUP1 PUSH1 0x1F ADD PUSH1 0x20 DUP1 SWAP2 DIV MUL PUSH1 0x20 ADD PUSH1 0x40 MLOAD SWAP1 DUP2 ADD PUSH1 0x40 MSTORE DUP1 SWAP3 SWAP2 SWAP1 DUP2 DUP2 MSTORE PUSH1 0x20 ADD DUP3 DUP1 SLOAD PUSH3 0x454 SWAP1 PUSH3 0xD38 JUMP JUMPDEST DUP1 ISZERO PUSH3 0x4A5 JUMPI DUP1 PUSH1 0x1F LT PUSH3 0x479 JUMPI PUSH2 0x100 DUP1 DUP4 SLOAD DIV MUL DUP4 MSTORE SWAP2 PUSH1 0x20 ADD SWAP2 PUSH3 0x4A5 JUMP JUMPDEST DUP3 ADD SWAP2 SWAP1 PUSH1 0x0 MSTORE PUSH1 0x20 PUSH1 0x0 KECCAK256 SWAP1 JUMPDEST DUP2 SLOAD DUP2 MSTORE SWAP1 PUSH1 0x1 ADD SWAP1 PUSH1 0x20 ADD DUP1 DUP4 GT PUSH3 0x487 JUMPI DUP3 SWAP1 SUB PUSH1 0x1F AND DUP3 ADD SWAP2 JUMPDEST POP POP POP POP POP SWAP1 DUP1 PUSH1 0x1 ADD SLOAD SWAP1 POP DUP3 JUMP JUMPDEST PUSH1 0x0 PUSH1 0x3 PUSH1 0x0 PUSH3 0x4C6 DUP5 PUSH3 0x5FD JUMP JUMPDEST DUP2 MSTORE PUSH1 0x20 ADD SWAP1 DUP2 MSTORE PUSH1 0x20 ADD PUSH1 0x0 KECCAK256 PUSH1 0x40 MLOAD DUP1 PUSH1 0x40 ADD PUSH1 0x40 MSTORE SWAP1 DUP2 PUSH1 0x0 DUP3 ADD DUP1 SLOAD PUSH3 0x4F1 SWAP1 PUSH3 0xD38 JUMP JUMPDEST DUP1 PUSH1 0x1F ADD PUSH1 0x20 DUP1 SWAP2 DIV MUL PUSH1 0x20 ADD PUSH1 0x40 MLOAD SWAP1 DUP2 ADD PUSH1 0x40 MSTORE DUP1 SWAP3 SWAP2 SWAP1 DUP2 DUP2 MSTORE PUSH1 0x20 ADD DUP3 DUP1 SLOAD PUSH3 0x51F SWAP1 PUSH3 0xD38 JUMP JUMPDEST DUP1 ISZERO PUSH3 0x570 JUMPI DUP1 PUSH1 0x1F LT PUSH3 0x544 JUMPI PUSH2 0x100 DUP1 DUP4 SLOAD DIV MUL DUP4 MSTORE SWAP2 PUSH1 0x20 ADD SWAP2 PUSH3 0x570 JUMP JUMPDEST DUP3 ADD SWAP2 SWAP1 PUSH1 0x0 MSTORE PUSH1 0x20 PUSH1 0x0 KECCAK256 SWAP1 JUMPDEST DUP2 SLOAD DUP2 MSTORE SWAP1 PUSH1 0x1 ADD SWAP1 PUSH1 0x20 ADD DUP1 DUP4 GT PUSH3 0x552 JUMPI DUP3 SWAP1 SUB PUSH1 0x1F AND DUP3 ADD SWAP2 JUMPDEST POP POP POP POP POP DUP2 MSTORE PUSH1 0x20 ADD PUSH1 0x1 DUP3 ADD SLOAD DUP2 MSTORE POP POP SWAP1 POP PUSH1 0x0 DUP2 PUSH1 0x20 ADD MLOAD SWAP1 POP DUP1 CALLVALUE LT ISZERO PUSH3 0x59C JUMPI PUSH1 0x0 DUP1 REVERT JUMPDEST CALLER PUSH1 0x4 PUSH1 0x0 PUSH3 0x5AC DUP7 PUSH3 0x5FD JUMP JUMPDEST DUP2 MSTORE PUSH1 0x20 ADD SWAP1 DUP2 MSTORE PUSH1 0x20 ADD PUSH1 0x0 KECCAK256 PUSH1 0x0 PUSH2 0x100 EXP DUP2 SLOAD DUP2 PUSH20 0xFFFFFFFFFFFFFFFFFFFFFFFFFFFFFFFFFFFFFFFF MUL NOT AND SWAP1 DUP4 PUSH20 0xFFFFFFFFFFFFFFFFFFFFFFFFFFFFFFFFFFFFFFFF AND MUL OR SWAP1 SSTORE POP POP POP POP JUMP JUMPDEST PUSH1 0x0 DUP2 PUSH1 0x1 PUSH1 0x40 MLOAD PUSH1 0x20 ADD PUSH3 0x615 SWAP3 SWAP2 SWAP1 PUSH3 0xE0F JUMP JUMPDEST PUSH1 0x40 MLOAD PUSH1 0x20 DUP2 DUP4 SUB SUB DUP2 MSTORE SWAP1 PUSH1 0x40 MSTORE DUP1 MLOAD SWAP1 PUSH1 0x20 ADD KECCAK256 SWAP1 POP SWAP2 SWAP1 POP JUMP JUMPDEST PUSH1 0x2 CALLER PUSH1 0x40 MLOAD PUSH3 0x643 SWAP1 PUSH3 0x740 JUMP JUMPDEST PUSH3 0x64F SWAP2 SWAP1 PUSH3 0xB01 JUMP JUMPDEST PUSH1 0x40 MLOAD DUP1 SWAP2 SUB SWAP1 PUSH1 0x0 CREATE DUP1 ISZERO DUP1 ISZERO PUSH3 0x66C JUMPI RETURNDATASIZE PUSH1 0x0 DUP1 RETURNDATACOPY RETURNDATASIZE PUSH1 0x0 REVERT JUMPDEST POP SWAP1 DUP1 PUSH1 0x1 DUP2 SLOAD ADD DUP1 DUP3 SSTORE DUP1 SWAP2 POP POP PUSH1 0x1 SWAP1 SUB SWAP1 PUSH1 0x0 MSTORE PUSH1 0x20 PUSH1 0x0 KECCAK256 ADD PUSH1 0x0 SWAP1 SWAP2 SWAP1 SWAP2 SWAP1 SWAP2 PUSH2 0x100 EXP DUP2 SLOAD DUP2 PUSH20 0xFFFFFFFFFFFFFFFFFFFFFFFFFFFFFFFFFFFFFFFF MUL NOT AND SWAP1 DUP4 PUSH20 0xFFFFFFFFFFFFFFFFFFFFFFFFFFFFFFFFFFFFFFFF AND MUL OR SWAP1 SSTORE POP JUMP JUMPDEST PUSH1 0x0 PUSH1 0x4 PUSH1 0x0 PUSH3 0x6E0 DUP5 PUSH3 0x5FD JUMP JUMPDEST DUP2 MSTORE PUSH1 0x20 ADD SWAP1 DUP2 MSTORE PUSH1 0x20 ADD PUSH1 0x0 KECCAK256 PUSH1 0x0 SWAP1 SLOAD SWAP1 PUSH2 0x100 EXP SWAP1 DIV PUSH20 0xFFFFFFFFFFFFFFFFFFFFFFFFFFFFFFFFFFFFFFFF AND SWAP1 POP SWAP2 SWAP1 POP JUMP JUMPDEST PUSH1 0x0 PUSH1 0x3 PUSH1 0x0 PUSH3 0x727 DUP5 PUSH3 0x5FD JUMP JUMPDEST DUP2 MSTORE PUSH1 0x20 ADD SWAP1 DUP2 MSTORE PUSH1 0x20 ADD PUSH1 0x0 KECCAK256 PUSH1 0x1 ADD SLOAD SWAP1 POP SWAP2 SWAP1 POP JUMP JUMPDEST PUSH2 0x74F DUP1 PUSH3 0xE4B DUP4 CODECOPY ADD SWAP1 JUMP JUMPDEST PUSH1 0x0 DUP2 MLOAD SWAP1 POP SWAP2 SWAP1 POP JUMP JUMPDEST PUSH1 0x0 DUP3 DUP3 MSTORE PUSH1 0x20 DUP3 ADD SWAP1 POP SWAP3 SWAP2 POP POP JUMP JUMPDEST PUSH1 0x0 DUP2 SWAP1 POP PUSH1 0x20 DUP3 ADD SWAP1 POP SWAP2 SWAP1 POP JUMP JUMPDEST PUSH1 0x0 PUSH20 0xFFFFFFFFFFFFFFFFFFFFFFFFFFFFFFFFFFFFFFFF DUP3 AND SWAP1 POP SWAP2 SWAP1 POP JUMP JUMPDEST PUSH1 0x0 DUP2 SWAP1 POP SWAP2 SWAP1 POP JUMP JUMPDEST PUSH1 0x0 PUSH3 0x7C5 PUSH3 0x7BF PUSH3 0x7B9 DUP5 PUSH3 0x77A JUMP JUMPDEST PUSH3 0x79A JUMP JUMPDEST PUSH3 0x77A JUMP JUMPDEST SWAP1 POP SWAP2 SWAP1 POP JUMP JUMPDEST PUSH1 0x0 PUSH3 0x7D9 DUP3 PUSH3 0x7A4 JUMP JUMPDEST SWAP1 POP SWAP2 SWAP1 POP JUMP JUMPDEST PUSH1 0x0 PUSH3 0x7ED DUP3 PUSH3 0x7CC JUMP JUMPDEST SWAP1 POP SWAP2 SWAP1 POP JUMP JUMPDEST PUSH3 0x7FF DUP2 PUSH3 0x7E0 JUMP JUMPDEST DUP3 MSTORE POP POP JUMP JUMPDEST PUSH1 0x0 PUSH3 0x813 DUP4 DUP4 PUSH3 0x7F4 JUMP JUMPDEST PUSH1 0x20 DUP4 ADD SWAP1 POP SWAP3 SWAP2 POP POP JUMP JUMPDEST PUSH1 0x0 PUSH1 0x20 DUP3 ADD SWAP1 POP SWAP2 SWAP1 POP JUMP JUMPDEST PUSH1 0x0 PUSH3 0x839 DUP3 PUSH3 0x74E JUMP JUMPDEST PUSH3 0x845 DUP2 DUP6 PUSH3 0x759 JUMP JUMPDEST SWAP4 POP PUSH3 0x852 DUP4 PUSH3 0x76A JUMP JUMPDEST DUP1 PUSH1 0x0 JUMPDEST DUP4 DUP2 LT ISZERO PUSH3 0x889 JUMPI DUP2 MLOAD PUSH3 0x86D DUP9 DUP3 PUSH3 0x805 JUMP JUMPDEST SWAP8 POP PUSH3 0x87A DUP4 PUSH3 0x81F JUMP JUMPDEST SWAP3 POP POP PUSH1 0x1 DUP2 ADD SWAP1 POP PUSH3 0x856 JUMP JUMPDEST POP DUP6 SWAP4 POP POP POP POP SWAP3 SWAP2 POP POP JUMP JUMPDEST PUSH1 0x0 PUSH1 0x20 DUP3 ADD SWAP1 POP DUP2 DUP2 SUB PUSH1 0x0 DUP4 ADD MSTORE PUSH3 0x8B2 DUP2 DUP5 PUSH3 0x82C JUMP JUMPDEST SWAP1 POP SWAP3 SWAP2 POP POP JUMP JUMPDEST PUSH1 0x0 PUSH1 0x40 MLOAD SWAP1 POP SWAP1 JUMP JUMPDEST PUSH1 0x0 DUP1 REVERT JUMPDEST PUSH1 0x0 DUP1 REVERT JUMPDEST PUSH1 0x0 DUP1 REVERT JUMPDEST PUSH1 0x0 DUP1 REVERT JUMPDEST PUSH1 0x0 PUSH1 0x1F NOT PUSH1 0x1F DUP4 ADD AND SWAP1 POP SWAP2 SWAP1 POP JUMP JUMPDEST PUSH32 0x4E487B7100000000000000000000000000000000000000000000000000000000 PUSH1 0x0 MSTORE PUSH1 0x41 PUSH1 0x4 MSTORE PUSH1 0x24 PUSH1 0x0 REVERT JUMPDEST PUSH3 0x923 DUP3 PUSH3 0x8D8 JUMP JUMPDEST DUP2 ADD DUP2 DUP2 LT PUSH8 0xFFFFFFFFFFFFFFFF DUP3 GT OR ISZERO PUSH3 0x945 JUMPI PUSH3 0x944 PUSH3 0x8E9 JUMP JUMPDEST JUMPDEST DUP1 PUSH1 0x40 MSTORE POP POP POP JUMP JUMPDEST PUSH1 0x0 PUSH3 0x95A PUSH3 0x8BA JUMP JUMPDEST SWAP1 POP PUSH3 0x968 DUP3 DUP3 PUSH3 0x918 JUMP JUMPDEST SWAP2 SWAP1 POP JUMP JUMPDEST PUSH1 0x0 PUSH8 0xFFFFFFFFFFFFFFFF DUP3 GT ISZERO PUSH3 0x98B JUMPI PUSH3 0x98A PUSH3 0x8E9 JUMP JUMPDEST JUMPDEST PUSH3 0x996 DUP3 PUSH3 0x8D8 JUMP JUMPDEST SWAP1 POP PUSH1 0x20 DUP2 ADD SWAP1 POP SWAP2 SWAP1 POP JUMP JUMPDEST DUP3 DUP2 DUP4 CALLDATACOPY PUSH1 0x0 DUP4 DUP4 ADD MSTORE POP POP POP JUMP JUMPDEST PUSH1 0x0 PUSH3 0x9C9 PUSH3 0x9C3 DUP5 PUSH3 0x96D JUMP JUMPDEST PUSH3 0x94E JUMP JUMPDEST SWAP1 POP DUP3 DUP2 MSTORE PUSH1 0x20 DUP2 ADD DUP5 DUP5 DUP5 ADD GT ISZERO PUSH3 0x9E8 JUMPI PUSH3 0x9E7 PUSH3 0x8D3 JUMP JUMPDEST JUMPDEST PUSH3 0x9F5 DUP5 DUP3 DUP6 PUSH3 0x9A3 JUMP JUMPDEST POP SWAP4 SWAP3 POP POP POP JUMP JUMPDEST PUSH1 0x0 DUP3 PUSH1 0x1F DUP4 ADD SLT PUSH3 0xA15 JUMPI PUSH3 0xA14 PUSH3 0x8CE JUMP JUMPDEST JUMPDEST DUP2 CALLDATALOAD PUSH3 0xA27 DUP5 DUP3 PUSH1 0x20 DUP7 ADD PUSH3 0x9B2 JUMP JUMPDEST SWAP2 POP POP SWAP3 SWAP2 POP POP JUMP JUMPDEST PUSH1 0x0 PUSH3 0xA3D DUP3 PUSH3 0x77A JUMP JUMPDEST SWAP1 POP SWAP2 SWAP1 POP JUMP JUMPDEST PUSH3 0xA4F DUP2 PUSH3 0xA30 JUMP JUMPDEST DUP2 EQ PUSH3 0xA5B JUMPI PUSH1 0x0 DUP1 REVERT JUMPDEST POP JUMP JUMPDEST PUSH1 0x0 DUP2 CALLDATALOAD SWAP1 POP PUSH3 0xA6F DUP2 PUSH3 0xA44 JUMP JUMPDEST SWAP3 SWAP2 POP POP JUMP JUMPDEST PUSH1 0x0 DUP1 PUSH1 0x0 PUSH1 0x60 DUP5 DUP7 SUB SLT ISZERO PUSH3 0xA91 JUMPI PUSH3 0xA90 PUSH3 0x8C4 JUMP JUMPDEST JUMPDEST PUSH1 0x0 DUP5 ADD CALLDATALOAD PUSH8 0xFFFFFFFFFFFFFFFF DUP2 GT ISZERO PUSH3 0xAB2 JUMPI PUSH3 0xAB1 PUSH3 0x8C9 JUMP JUMPDEST JUMPDEST PUSH3 0xAC0 DUP7 DUP3 DUP8 ADD PUSH3 0x9FD JUMP JUMPDEST SWAP4 POP POP PUSH1 0x20 PUSH3 0xAD3 DUP7 DUP3 DUP8 ADD PUSH3 0xA5E JUMP JUMPDEST SWAP3 POP POP PUSH1 0x40 PUSH3 0xAE6 DUP7 DUP3 DUP8 ADD PUSH3 0xA5E JUMP JUMPDEST SWAP2 POP POP SWAP3 POP SWAP3 POP SWAP3 JUMP JUMPDEST PUSH3 0xAFB DUP2 PUSH3 0xA30 JUMP JUMPDEST DUP3 MSTORE POP POP JUMP JUMPDEST PUSH1 0x0 PUSH1 0x20 DUP3 ADD SWAP1 POP PUSH3 0xB18 PUSH1 0x0 DUP4 ADD DUP5 PUSH3 0xAF0 JUMP JUMPDEST SWAP3 SWAP2 POP POP JUMP JUMPDEST PUSH1 0x0 DUP2 SWAP1 POP SWAP2 SWAP1 POP JUMP JUMPDEST PUSH3 0xB33 DUP2 PUSH3 0xB1E JUMP JUMPDEST DUP2 EQ PUSH3 0xB3F JUMPI PUSH1 0x0 DUP1 REVERT JUMPDEST POP JUMP JUMPDEST PUSH1 0x0 DUP2 CALLDATALOAD SWAP1 POP PUSH3 0xB53 DUP2 PUSH3 0xB28 JUMP JUMPDEST SWAP3 SWAP2 POP POP JUMP JUMPDEST PUSH1 0x0 PUSH1 0x20 DUP3 DUP5 SUB SLT ISZERO PUSH3 0xB72 JUMPI PUSH3 0xB71 PUSH3 0x8C4 JUMP JUMPDEST JUMPDEST PUSH1 0x0 PUSH3 0xB82 DUP5 DUP3 DUP6 ADD PUSH3 0xB42 JUMP JUMPDEST SWAP2 POP POP SWAP3 SWAP2 POP POP JUMP JUMPDEST PUSH1 0x0 DUP2 MLOAD SWAP1 POP SWAP2 SWAP1 POP JUMP JUMPDEST PUSH1 0x0 DUP3 DUP3 MSTORE PUSH1 0x20 DUP3 ADD SWAP1 POP SWAP3 SWAP2 POP POP JUMP JUMPDEST PUSH1 0x0 JUMPDEST DUP4 DUP2 LT ISZERO PUSH3 0xBC7 JUMPI DUP1 DUP3 ADD MLOAD DUP2 DUP5 ADD MSTORE PUSH1 0x20 DUP2 ADD SWAP1 POP PUSH3 0xBAA JUMP JUMPDEST DUP4 DUP2 GT ISZERO PUSH3 0xBD7 JUMPI PUSH1 0x0 DUP5 DUP5 ADD MSTORE JUMPDEST POP POP POP POP JUMP JUMPDEST PUSH1 0x0 PUSH3 0xBEA DUP3 PUSH3 0xB8B JUMP JUMPDEST PUSH3 0xBF6 DUP2 DUP6 PUSH3 0xB96 JUMP JUMPDEST SWAP4 POP PUSH3 0xC08 DUP2 DUP6 PUSH1 0x20 DUP7 ADD PUSH3 0xBA7 JUMP JUMPDEST PUSH3 0xC13 DUP2 PUSH3 0x8D8 JUMP JUMPDEST DUP5 ADD SWAP2 POP POP SWAP3 SWAP2 POP POP JUMP JUMPDEST PUSH1 0x0 DUP2 SWAP1 POP SWAP2 SWAP1 POP JUMP JUMPDEST PUSH3 0xC33 DUP2 PUSH3 0xC1E JUMP JUMPDEST DUP3 MSTORE POP POP JUMP JUMPDEST PUSH1 0x0 PUSH1 0x40 DUP3 ADD SWAP1 POP DUP2 DUP2 SUB PUSH1 0x0 DUP4 ADD MSTORE PUSH3 0xC55 DUP2 DUP6 PUSH3 0xBDD JUMP JUMPDEST SWAP1 POP PUSH3 0xC66 PUSH1 0x20 DUP4 ADD DUP5 PUSH3 0xC28 JUMP JUMPDEST SWAP4 SWAP3 POP POP POP JUMP JUMPDEST PUSH1 0x0 PUSH1 0x20 DUP3 DUP5 SUB SLT ISZERO PUSH3 0xC86 JUMPI PUSH3 0xC85 PUSH3 0x8C4 JUMP JUMPDEST JUMPDEST PUSH1 0x0 DUP3 ADD CALLDATALOAD PUSH8 0xFFFFFFFFFFFFFFFF DUP2 GT ISZERO PUSH3 0xCA7 JUMPI PUSH3 0xCA6 PUSH3 0x8C9 JUMP JUMPDEST JUMPDEST PUSH3 0xCB5 DUP5 DUP3 DUP6 ADD PUSH3 0x9FD JUMP JUMPDEST SWAP2 POP POP SWAP3 SWAP2 POP POP JUMP JUMPDEST PUSH3 0xCC9 DUP2 PUSH3 0xB1E JUMP JUMPDEST DUP3 MSTORE POP POP JUMP JUMPDEST PUSH1 0x0 PUSH1 0x20 DUP3 ADD SWAP1 POP PUSH3 0xCE6 PUSH1 0x0 DUP4 ADD DUP5 PUSH3 0xCBE JUMP JUMPDEST SWAP3 SWAP2 POP POP JUMP JUMPDEST PUSH1 0x0 PUSH1 0x20 DUP3 ADD SWAP1 POP PUSH3 0xD03 PUSH1 0x0 DUP4 ADD DUP5 PUSH3 0xC28 JUMP JUMPDEST SWAP3 SWAP2 POP POP JUMP JUMPDEST PUSH32 0x4E487B7100000000000000000000000000000000000000000000000000000000 PUSH1 0x0 MSTORE PUSH1 0x22 PUSH1 0x4 MSTORE PUSH1 0x24 PUSH1 0x0 REVERT JUMPDEST PUSH1 0x0 PUSH1 0x2 DUP3 DIV SWAP1 POP PUSH1 0x1 DUP3 AND DUP1 PUSH3 0xD51 JUMPI PUSH1 0x7F DUP3 AND SWAP2 POP JUMPDEST PUSH1 0x20 DUP3 LT DUP2 EQ ISZERO PUSH3 0xD68 JUMPI PUSH3 0xD67 PUSH3 0xD09 JUMP JUMPDEST JUMPDEST POP SWAP2 SWAP1 POP JUMP JUMPDEST PUSH1 0x0 DUP2 SWAP1 POP DUP2 PUSH1 0x0 MSTORE PUSH1 0x20 PUSH1 0x0 KECCAK256 SWAP1 POP SWAP2 SWAP1 POP JUMP JUMPDEST PUSH1 0x0 DUP2 SLOAD PUSH3 0xD92 DUP2 PUSH3 0xD38 JUMP JUMPDEST PUSH3 0xD9E DUP2 DUP7 PUSH3 0xB96 JUMP JUMPDEST SWAP5 POP PUSH1 0x1 DUP3 AND PUSH1 0x0 DUP2 EQ PUSH3 0xDBC JUMPI PUSH1 0x1 DUP2 EQ PUSH3 0xDCF JUMPI PUSH3 0xE06 JUMP JUMPDEST PUSH1 0xFF NOT DUP4 AND DUP7 MSTORE PUSH1 0x20 DUP7 ADD SWAP4 POP PUSH3 0xE06 JUMP JUMPDEST PUSH3 0xDDA DUP6 PUSH3 0xD6E JUMP JUMPDEST PUSH1 0x0 JUMPDEST DUP4 DUP2 LT ISZERO PUSH3 0xDFE JUMPI DUP2 SLOAD DUP2 DUP10 ADD MSTORE PUSH1 0x1 DUP3 ADD SWAP2 POP PUSH1 0x20 DUP2 ADD SWAP1 POP PUSH3 0xDDD JUMP JUMPDEST DUP1 DUP9 ADD SWAP6 POP POP POP JUMPDEST POP POP POP SWAP3 SWAP2 POP POP JUMP JUMPDEST PUSH1 0x0 PUSH1 0x40 DUP3 ADD SWAP1 POP DUP2 DUP2 SUB PUSH1 0x0 DUP4 ADD MSTORE PUSH3 0xE2B DUP2 DUP6 PUSH3 0xBDD JUMP JUMPDEST SWAP1 POP DUP2 DUP2 SUB PUSH1 0x20 DUP4 ADD MSTORE PUSH3 0xE41 DUP2 DUP5 PUSH3 0xD83 JUMP JUMPDEST SWAP1 POP SWAP4 SWAP3 POP POP POP JUMP INVALID PUSH1 0x80 PUSH1 0x40 MSTORE CALLVALUE DUP1 ISZERO PUSH2 0x10 JUMPI PUSH1 0x0 DUP1 REVERT JUMPDEST POP PUSH1 0x40 MLOAD PUSH2 0x74F CODESIZE SUB DUP1 PUSH2 0x74F DUP4 CODECOPY DUP2 DUP2 ADD PUSH1 0x40 MSTORE DUP2 ADD SWAP1 PUSH2 0x32 SWAP2 SWAP1 PUSH2 0xDB JUMP JUMPDEST DUP1 PUSH1 0x0 DUP1 PUSH2 0x100 EXP DUP2 SLOAD DUP2 PUSH20 0xFFFFFFFFFFFFFFFFFFFFFFFFFFFFFFFFFFFFFFFF MUL NOT AND SWAP1 DUP4 PUSH20 0xFFFFFFFFFFFFFFFFFFFFFFFFFFFFFFFFFFFFFFFF AND MUL OR SWAP1 SSTORE POP POP PUSH2 0x108 JUMP JUMPDEST PUSH1 0x0 DUP1 REVERT JUMPDEST PUSH1 0x0 PUSH20 0xFFFFFFFFFFFFFFFFFFFFFFFFFFFFFFFFFFFFFFFF DUP3 AND SWAP1 POP SWAP2 SWAP1 POP JUMP JUMPDEST PUSH1 0x0 PUSH2 0xA8 DUP3 PUSH2 0x7D JUMP JUMPDEST SWAP1 POP SWAP2 SWAP1 POP JUMP JUMPDEST PUSH2 0xB8 DUP2 PUSH2 0x9D JUMP JUMPDEST DUP2 EQ PUSH2 0xC3 JUMPI PUSH1 0x0 DUP1 REVERT JUMPDEST POP JUMP JUMPDEST PUSH1 0x0 DUP2 MLOAD SWAP1 POP PUSH2 0xD5 DUP2 PUSH2 0xAF JUMP JUMPDEST SWAP3 SWAP2 POP POP JUMP JUMPDEST PUSH1 0x0 PUSH1 0x20 DUP3 DUP5 SUB SLT ISZERO PUSH2 0xF1 JUMPI PUSH2 0xF0 PUSH2 0x78 JUMP JUMPDEST JUMPDEST PUSH1 0x0 PUSH2 0xFF DUP5 DUP3 DUP6 ADD PUSH2 0xC6 JUMP JUMPDEST SWAP2 POP POP SWAP3 SWAP2 POP POP JUMP JUMPDEST PUSH2 0x638 DUP1 PUSH2 0x117 PUSH1 0x0 CODECOPY PUSH1 0x0 RETURN INVALID PUSH1 0x80 PUSH1 0x40 MSTORE PUSH1 0x4 CALLDATASIZE LT PUSH2 0x1E JUMPI PUSH1 0x0 CALLDATALOAD PUSH1 0xE0 SHR DUP1 PUSH4 0xE38ABB48 EQ PUSH2 0x23 JUMPI JUMPDEST PUSH1 0x0 DUP1 REVERT JUMPDEST PUSH2 0x3D PUSH1 0x4 DUP1 CALLDATASIZE SUB DUP2 ADD SWAP1 PUSH2 0x38 SWAP2 SWAP1 PUSH2 0x3F3 JUMP JUMPDEST PUSH2 0x3F JUMP JUMPDEST STOP JUMPDEST PUSH1 0x0 DUP1 SLOAD SWAP1 PUSH2 0x100 EXP SWAP1 DIV PUSH20 0xFFFFFFFFFFFFFFFFFFFFFFFFFFFFFFFFFFFFFFFF AND PUSH20 0xFFFFFFFFFFFFFFFFFFFFFFFFFFFFFFFFFFFFFFFF AND DUP3 PUSH20 0xFFFFFFFFFFFFFFFFFFFFFFFFFFFFFFFFFFFFFFFF AND PUSH4 0xDDF88DFC DUP4 PUSH1 0x40 MLOAD DUP3 PUSH4 0xFFFFFFFF AND PUSH1 0xE0 SHL DUP2 MSTORE PUSH1 0x4 ADD PUSH2 0xAF SWAP2 SWAP1 PUSH2 0x4D7 JUMP JUMPDEST PUSH1 0x20 PUSH1 0x40 MLOAD DUP1 DUP4 SUB DUP2 DUP7 GAS STATICCALL ISZERO DUP1 ISZERO PUSH2 0xCC JUMPI RETURNDATASIZE PUSH1 0x0 DUP1 RETURNDATACOPY RETURNDATASIZE PUSH1 0x0 REVERT JUMPDEST POP POP POP POP PUSH1 0x40 MLOAD RETURNDATASIZE PUSH1 0x1F NOT PUSH1 0x1F DUP3 ADD AND DUP3 ADD DUP1 PUSH1 0x40 MSTORE POP DUP2 ADD SWAP1 PUSH2 0xF0 SWAP2 SWAP1 PUSH2 0x525 JUMP JUMPDEST PUSH20 0xFFFFFFFFFFFFFFFFFFFFFFFFFFFFFFFFFFFFFFFF AND EQ PUSH2 0x110 JUMPI PUSH1 0x0 DUP1 REVERT JUMPDEST DUP2 PUSH20 0xFFFFFFFFFFFFFFFFFFFFFFFFFFFFFFFFFFFFFFFF AND PUSH4 0xFD01273B DUP3 PUSH1 0x40 MLOAD DUP3 PUSH4 0xFFFFFFFF AND PUSH1 0xE0 SHL DUP2 MSTORE PUSH1 0x4 ADD PUSH2 0x149 SWAP2 SWAP1 PUSH2 0x4D7 JUMP JUMPDEST PUSH1 0x20 PUSH1 0x40 MLOAD DUP1 DUP4 SUB DUP2 DUP7 GAS STATICCALL ISZERO DUP1 ISZERO PUSH2 0x166 JUMPI RETURNDATASIZE PUSH1 0x0 DUP1 RETURNDATACOPY RETURNDATASIZE PUSH1 0x0 REVERT JUMPDEST POP POP POP POP PUSH1 0x40 MLOAD RETURNDATASIZE PUSH1 0x1F NOT PUSH1 0x1F DUP3 ADD AND DUP3 ADD DUP1 PUSH1 0x40 MSTORE POP DUP2 ADD SWAP1 PUSH2 0x18A SWAP2 SWAP1 PUSH2 0x588 JUMP JUMPDEST CALLVALUE LT ISZERO PUSH2 0x196 JUMPI PUSH1 0x0 DUP1 REVERT JUMPDEST DUP2 PUSH20 0xFFFFFFFFFFFFFFFFFFFFFFFFFFFFFFFFFFFFFFFF AND PUSH4 0x500ED75D DUP3 PUSH1 0x0 DUP1 SLOAD SWAP1 PUSH2 0x100 EXP SWAP1 DIV PUSH20 0xFFFFFFFFFFFFFFFFFFFFFFFFFFFFFFFFFFFFFFFF AND CALLER PUSH1 0x40 MLOAD DUP5 PUSH4 0xFFFFFFFF AND PUSH1 0xE0 SHL DUP2 MSTORE PUSH1 0x4 ADD PUSH2 0x1F3 SWAP4 SWAP3 SWAP2 SWAP1 PUSH2 0x5C4 JUMP JUMPDEST PUSH1 0x0 PUSH1 0x40 MLOAD DUP1 DUP4 SUB DUP2 PUSH1 0x0 DUP8 DUP1 EXTCODESIZE ISZERO DUP1 ISZERO PUSH2 0x20D JUMPI PUSH1 0x0 DUP1 REVERT JUMPDEST POP GAS CALL ISZERO DUP1 ISZERO PUSH2 0x221 JUMPI RETURNDATASIZE PUSH1 0x0 DUP1 RETURNDATACOPY RETURNDATASIZE PUSH1 0x0 REVERT JUMPDEST POP POP POP POP POP POP JUMP JUMPDEST PUSH1 0x0 PUSH1 0x40 MLOAD SWAP1 POP SWAP1 JUMP JUMPDEST PUSH1 0x0 DUP1 REVERT JUMPDEST PUSH1 0x0 DUP1 REVERT JUMPDEST PUSH1 0x0 PUSH20 0xFFFFFFFFFFFFFFFFFFFFFFFFFFFFFFFFFFFFFFFF DUP3 AND SWAP1 POP SWAP2 SWAP1 POP JUMP JUMPDEST PUSH1 0x0 PUSH2 0x268 DUP3 PUSH2 0x23D JUMP JUMPDEST SWAP1 POP SWAP2 SWAP1 POP JUMP JUMPDEST PUSH1 0x0 PUSH2 0x27A DUP3 PUSH2 0x25D JUMP JUMPDEST SWAP1 POP SWAP2 SWAP1 POP JUMP JUMPDEST PUSH2 0x28A DUP2 PUSH2 0x26F JUMP JUMPDEST DUP2 EQ PUSH2 0x295 JUMPI PUSH1 0x0 DUP1 REVERT JUMPDEST POP JUMP JUMPDEST PUSH1 0x0 DUP2 CALLDATALOAD SWAP1 POP PUSH2 0x2A7 DUP2 PUSH2 0x281 JUMP JUMPDEST SWAP3 SWAP2 POP POP JUMP JUMPDEST PUSH1 0x0 DUP1 REVERT JUMPDEST PUSH1 0x0 DUP1 REVERT JUMPDEST PUSH1 0x0 PUSH1 0x1F NOT PUSH1 0x1F DUP4 ADD AND SWAP1 POP SWAP2 SWAP1 POP JUMP JUMPDEST PUSH32 0x4E487B7100000000000000000000000000000000000000000000000000000000 PUSH1 0x0 MSTORE PUSH1 0x41 PUSH1 0x4 MSTORE PUSH1 0x24 PUSH1 0x0 REVERT JUMPDEST PUSH2 0x300 DUP3 PUSH2 0x2B7 JUMP JUMPDEST DUP2 ADD DUP2 DUP2 LT PUSH8 0xFFFFFFFFFFFFFFFF DUP3 GT OR ISZERO PUSH2 0x31F JUMPI PUSH2 0x31E PUSH2 0x2C8 JUMP JUMPDEST JUMPDEST DUP1 PUSH1 0x40 MSTORE POP POP POP JUMP JUMPDEST PUSH1 0x0 PUSH2 0x332 PUSH2 0x229 JUMP JUMPDEST SWAP1 POP PUSH2 0x33E DUP3 DUP3 PUSH2 0x2F7 JUMP JUMPDEST SWAP2 SWAP1 POP JUMP JUMPDEST PUSH1 0x0 PUSH8 0xFFFFFFFFFFFFFFFF DUP3 GT ISZERO PUSH2 0x35E JUMPI PUSH2 0x35D PUSH2 0x2C8 JUMP JUMPDEST JUMPDEST PUSH2 0x367 DUP3 PUSH2 0x2B7 JUMP JUMPDEST SWAP1 POP PUSH1 0x20 DUP2 ADD SWAP1 POP SWAP2 SWAP1 POP JUMP JUMPDEST DUP3 DUP2 DUP4 CALLDATACOPY PUSH1 0x0 DUP4 DUP4 ADD MSTORE POP POP POP JUMP JUMPDEST PUSH1 0x0 PUSH2 0x396 PUSH2 0x391 DUP5 PUSH2 0x343 JUMP JUMPDEST PUSH2 0x328 JUMP JUMPDEST SWAP1 POP DUP3 DUP2 MSTORE PUSH1 0x20 DUP2 ADD DUP5 DUP5 DUP5 ADD GT ISZERO PUSH2 0x3B2 JUMPI PUSH2 0x3B1 PUSH2 0x2B2 JUMP JUMPDEST JUMPDEST PUSH2 0x3BD DUP5 DUP3 DUP6 PUSH2 0x374 JUMP JUMPDEST POP SWAP4 SWAP3 POP POP POP JUMP JUMPDEST PUSH1 0x0 DUP3 PUSH1 0x1F DUP4 ADD SLT PUSH2 0x3DA JUMPI PUSH2 0x3D9 PUSH2 0x2AD JUMP JUMPDEST JUMPDEST DUP2 CALLDATALOAD PUSH2 0x3EA DUP5 DUP3 PUSH1 0x20 DUP7 ADD PUSH2 0x383 JUMP JUMPDEST SWAP2 POP POP SWAP3 SWAP2 POP POP JUMP JUMPDEST PUSH1 0x0 DUP1 PUSH1 0x40 DUP4 DUP6 SUB SLT ISZERO PUSH2 0x40A JUMPI PUSH2 0x409 PUSH2 0x233 JUMP JUMPDEST JUMPDEST PUSH1 0x0 PUSH2 0x418 DUP6 DUP3 DUP7 ADD PUSH2 0x298 JUMP JUMPDEST SWAP3 POP POP PUSH1 0x20 DUP4 ADD CALLDATALOAD PUSH8 0xFFFFFFFFFFFFFFFF DUP2 GT ISZERO PUSH2 0x439 JUMPI PUSH2 0x438 PUSH2 0x238 JUMP JUMPDEST JUMPDEST PUSH2 0x445 DUP6 DUP3 DUP7 ADD PUSH2 0x3C5 JUMP JUMPDEST SWAP2 POP POP SWAP3 POP SWAP3 SWAP1 POP JUMP JUMPDEST PUSH1 0x0 DUP2 MLOAD SWAP1 POP SWAP2 SWAP1 POP JUMP JUMPDEST PUSH1 0x0 DUP3 DUP3 MSTORE PUSH1 0x20 DUP3 ADD SWAP1 POP SWAP3 SWAP2 POP POP JUMP JUMPDEST PUSH1 0x0 JUMPDEST DUP4 DUP2 LT ISZERO PUSH2 0x489 JUMPI DUP1 DUP3 ADD MLOAD DUP2 DUP5 ADD MSTORE PUSH1 0x20 DUP2 ADD SWAP1 POP PUSH2 0x46E JUMP JUMPDEST DUP4 DUP2 GT ISZERO PUSH2 0x498 JUMPI PUSH1 0x0 DUP5 DUP5 ADD MSTORE JUMPDEST POP POP POP POP JUMP JUMPDEST PUSH1 0x0 PUSH2 0x4A9 DUP3 PUSH2 0x44F JUMP JUMPDEST PUSH2 0x4B3 DUP2 DUP6 PUSH2 0x45A JUMP JUMPDEST SWAP4 POP PUSH2 0x4C3 DUP2 DUP6 PUSH1 0x20 DUP7 ADD PUSH2 0x46B JUMP JUMPDEST PUSH2 0x4CC DUP2 PUSH2 0x2B7 JUMP JUMPDEST DUP5 ADD SWAP2 POP POP SWAP3 SWAP2 POP POP JUMP JUMPDEST PUSH1 0x0 PUSH1 0x20 DUP3 ADD SWAP1 POP DUP2 DUP2 SUB PUSH1 0x0 DUP4 ADD MSTORE PUSH2 0x4F1 DUP2 DUP5 PUSH2 0x49E JUMP JUMPDEST SWAP1 POP SWAP3 SWAP2 POP POP JUMP JUMPDEST PUSH2 0x502 DUP2 PUSH2 0x25D JUMP JUMPDEST DUP2 EQ PUSH2 0x50D JUMPI PUSH1 0x0 DUP1 REVERT JUMPDEST POP JUMP JUMPDEST PUSH1 0x0 DUP2 MLOAD SWAP1 POP PUSH2 0x51F DUP2 PUSH2 0x4F9 JUMP JUMPDEST SWAP3 SWAP2 POP POP JUMP JUMPDEST PUSH1 0x0 PUSH1 0x20 DUP3 DUP5 SUB SLT ISZERO PUSH2 0x53B JUMPI PUSH2 0x53A PUSH2 0x233 JUMP JUMPDEST JUMPDEST PUSH1 0x0 PUSH2 0x549 DUP5 DUP3 DUP6 ADD PUSH2 0x510 JUMP JUMPDEST SWAP2 POP POP SWAP3 SWAP2 POP POP JUMP JUMPDEST PUSH1 0x0 DUP2 SWAP1 POP SWAP2 SWAP1 POP JUMP JUMPDEST PUSH2 0x565 DUP2 PUSH2 0x552 JUMP JUMPDEST DUP2 EQ PUSH2 0x570 JUMPI PUSH1 0x0 DUP1 REVERT JUMPDEST POP JUMP JUMPDEST PUSH1 0x0 DUP2 MLOAD SWAP1 POP PUSH2 0x582 DUP2 PUSH2 0x55C JUMP JUMPDEST SWAP3 SWAP2 POP POP JUMP JUMPDEST PUSH1 0x0 PUSH1 0x20 DUP3 DUP5 SUB SLT ISZERO PUSH2 0x59E JUMPI PUSH2 0x59D PUSH2 0x233 JUMP JUMPDEST JUMPDEST PUSH1 0x0 PUSH2 0x5AC DUP5 DUP3 DUP6 ADD PUSH2 0x573 JUMP JUMPDEST SWAP2 POP POP SWAP3 SWAP2 POP POP JUMP JUMPDEST PUSH2 0x5BE DUP2 PUSH2 0x25D JUMP JUMPDEST DUP3 MSTORE POP POP JUMP JUMPDEST PUSH1 0x0 PUSH1 0x60 DUP3 ADD SWAP1 POP DUP2 DUP2 SUB PUSH1 0x0 DUP4 ADD MSTORE PUSH2 0x5DE DUP2 DUP7 PUSH2 0x49E JUMP JUMPDEST SWAP1 POP PUSH2 0x5ED PUSH1 0x20 DUP4 ADD DUP6 PUSH2 0x5B5 JUMP JUMPDEST PUSH2 0x5FA PUSH1 0x40 DUP4 ADD DUP5 PUSH2 0x5B5 JUMP JUMPDEST SWAP5 SWAP4 POP POP POP POP JUMP INVALID LOG2 PUSH5 0x6970667358 0x22 SLT KECCAK256 SWAP7 0xE1 DUP16 DUP8 0xC3 JUMPDEST GAS LOG4 DUP6 SMOD 0x2D BYTE SSTORE DUP11 SLT 0xD0 0xAC PUSH25 0xFFBC98E5F197E7A524221B7ECF4B64736F6C634300080A0033 LOG2 PUSH5 0x6970667358 0x22 SLT KECCAK256 0x4B PUSH24 0xDD25202E35DE2E7227789FF976AB40E1FB6A9ED1A47104E1 0xF9 0xED BALANCE PUSH31 0xD4BF64736F6C634300080A0033000000000000000000000000000000000000 "},"gasEstimates":{"creation":{"codeDepositCost":"1116600","executionCost":"infinite","totalCost":"infinite"},"external":{"buyProductFromManufacturer(string)":"infinite","changeProductOwner(string,address,address)":"infinite","getRetailStores()":"infinite","manufacturer()":"2556","newRetailStore()":"infinite","productHash(string)":"infinite","products(bytes32)":"infinite","viewOwner(string)":"infinite","viewProductPrice(string)":"infinite"}},"methodIdentifiers":{"buyProductFromManufacturer(string)":"87458b5a","changeProductOwner(string,address,address)":"500ed75d","getRetailStores()":"37911c2a","manufacturer()":"74754282","newRetailStore()":"cb373a88","productHash(string)":"c7452851","products(bytes32)":"79054391","viewOwner(string)":"ddf88dfc","viewProductPrice(string)":"fd01273b"}},"storageLayout":{"storage":[{"astId":3,"contract":"Manufacturer.sol:Manufacturer","label":"manufacturer","offset":0,"slot":"0","type":"t_address"},{"astId":5,"contract":"Manufacturer.sol:Manufacturer","label":"stringForHashing","offset":0,"slot":"1","type":"t_string_storage"},{"astId":14,"contract":"Manufacturer.sol:Manufacturer","label":"retailStores","offset":0,"slot":"2","type":"t_array(t_contract(RetailStore)264)dyn_storage"},{"astId":19,"contract":"Manufacturer.sol:Manufacturer","label":"products","offset":0,"slot":"3","type":"t_mapping(t_bytes32,t_struct(Product)10_storage)"},{"astId":23,"contract":"Manufacturer.sol:Manufacturer","label":"productToOwner","offset":0,"slot":"4","type":"t_mapping(t_bytes32,t_address)"}],"types":{"t_address":{"encoding":"inplace","label":"address","numberOfBytes":"20"},"t_array(t_contract(RetailStore)264)dyn_storage":{"base":"t_contract(RetailStore)264","encoding":"dynamic_array","label":"contract RetailStore[]","numberOfBytes":"32"},"t_bytes32":{"encoding":"inplace","label":"bytes32","numberOfBytes":"32"},"t_contract(RetailStore)264":{"encoding":"inplace","label":"contract RetailStore","numberOfBytes":"20"},"t_mapping(t_bytes32,t_address)":{"encoding":"mapping","key":"t_bytes32","label":"mapping(bytes32 => address)","numberOfBytes":"32","value":"t_address"},"t_mapping(t_bytes32,t_struct(Product)10_storage)":{"encoding":"mapping","key":"t_bytes32","label":"mapping(bytes32 => struct Manufacturer.Product)","numberOfBytes":"32","value":"t_struct(Product)10_storage"},"t_string_storage":{"encoding":"bytes","label":"string","numberOfBytes":"32"},"t_struct(Product)10_storage":{"encoding":"inplace","label":"struct Manufacturer.Product","members":[{"astId":7,"contract":"Manufacturer.sol:Manufacturer","label":"name","offset":0,"slot":"0","type":"t_string_storage"},{"astId":9,"contract":"Manufacturer.sol:Manufacturer","label":"price","offset":0,"slot":"1","type":"t_uint256"}],"numberOfBytes":"64"},"t_uint256":{"encoding":"inplace","label":"uint256","numberOfBytes":"32"}}},"userdoc":{"kind":"user","methods":{},"version":1}}