{"abi":[{"inputs":[{"internalType":"address","name":"_owner","type":"address"}],"stateMutability":"nonpayable","type":"constructor"},{"inputs":[{"internalType":"contract Manufacturer","name":"_manufacturer","type":"address"},{"internalType":"string","name":"_productName","type":"string"}],"name":"buyProductFromRetailStore","outputs":[],"stateMutability":"payable","type":"function"}],"devdoc":{"kind":"dev","methods":{},"version":1},"evm":{"assembly":"    /* \"Manufacturer.sol\":2468:3007  contract RetailStore {... */\n  mstore(0x40, 0x80)\n    /* \"Manufacturer.sol\":2518:2579  constructor(address _owner) {... */\n  callvalue\n  dup1\n  iszero\n  tag_1\n  jumpi\n  0x00\n  dup1\n  revert\ntag_1:\n  pop\n  mload(0x40)\n  sub(codesize, bytecodeSize)\n  dup1\n  bytecodeSize\n  dup4\n  codecopy\n  dup2\n  dup2\n  add\n  0x40\n  mstore\n  dup2\n  add\n  swap1\n  tag_2\n  swap2\n  swap1\n  tag_3\n  jump\t// in\ntag_2:\n    /* \"Manufacturer.sol\":2565:2571  _owner */\n  dup1\n    /* \"Manufacturer.sol\":2557:2562  owner */\n  0x00\n  dup1\n    /* \"Manufacturer.sol\":2557:2571  owner = _owner */\n  0x0100\n  exp\n  dup2\n  sload\n  dup2\n  0xffffffffffffffffffffffffffffffffffffffff\n  mul\n  not\n  and\n  swap1\n  dup4\n  0xffffffffffffffffffffffffffffffffffffffff\n  and\n  mul\n  or\n  swap1\n  sstore\n  pop\n    /* \"Manufacturer.sol\":2518:2579  constructor(address _owner) {... */\n  pop\n    /* \"Manufacturer.sol\":2468:3007  contract RetailStore {... */\n  jump(tag_6)\n    /* \"#utility.yul\":88:205   */\ntag_8:\n    /* \"#utility.yul\":197:198   */\n  0x00\n    /* \"#utility.yul\":194:195   */\n  dup1\n    /* \"#utility.yul\":187:199   */\n  revert\n    /* \"#utility.yul\":334:460   */\ntag_10:\n    /* \"#utility.yul\":371:378   */\n  0x00\n    /* \"#utility.yul\":411:453   */\n  0xffffffffffffffffffffffffffffffffffffffff\n    /* \"#utility.yul\":404:409   */\n  dup3\n    /* \"#utility.yul\":400:454   */\n  and\n    /* \"#utility.yul\":389:454   */\n  swap1\n  pop\n    /* \"#utility.yul\":334:460   */\n  swap2\n  swap1\n  pop\n  jump\t// out\n    /* \"#utility.yul\":466:562   */\ntag_11:\n    /* \"#utility.yul\":503:510   */\n  0x00\n    /* \"#utility.yul\":532:556   */\n  tag_20\n    /* \"#utility.yul\":550:555   */\n  dup3\n    /* \"#utility.yul\":532:556   */\n  tag_10\n  jump\t// in\ntag_20:\n    /* \"#utility.yul\":521:556   */\n  swap1\n  pop\n    /* \"#utility.yul\":466:562   */\n  swap2\n  swap1\n  pop\n  jump\t// out\n    /* \"#utility.yul\":568:690   */\ntag_12:\n    /* \"#utility.yul\":641:665   */\n  tag_22\n    /* \"#utility.yul\":659:664   */\n  dup2\n    /* \"#utility.yul\":641:665   */\n  tag_11\n  jump\t// in\ntag_22:\n    /* \"#utility.yul\":634:639   */\n  dup2\n    /* \"#utility.yul\":631:666   */\n  eq\n    /* \"#utility.yul\":621:684   */\n  tag_23\n  jumpi\n    /* \"#utility.yul\":680:681   */\n  0x00\n    /* \"#utility.yul\":677:678   */\n  dup1\n    /* \"#utility.yul\":670:682   */\n  revert\n    /* \"#utility.yul\":621:684   */\ntag_23:\n    /* \"#utility.yul\":568:690   */\n  pop\n  jump\t// out\n    /* \"#utility.yul\":696:839   */\ntag_13:\n    /* \"#utility.yul\":753:758   */\n  0x00\n    /* \"#utility.yul\":784:790   */\n  dup2\n    /* \"#utility.yul\":778:791   */\n  mload\n    /* \"#utility.yul\":769:791   */\n  swap1\n  pop\n    /* \"#utility.yul\":800:833   */\n  tag_25\n    /* \"#utility.yul\":827:832   */\n  dup2\n    /* \"#utility.yul\":800:833   */\n  tag_12\n  jump\t// in\ntag_25:\n    /* \"#utility.yul\":696:839   */\n  swap3\n  swap2\n  pop\n  pop\n  jump\t// out\n    /* \"#utility.yul\":845:1196   */\ntag_3:\n    /* \"#utility.yul\":915:921   */\n  0x00\n    /* \"#utility.yul\":964:966   */\n  0x20\n    /* \"#utility.yul\":952:961   */\n  dup3\n    /* \"#utility.yul\":943:950   */\n  dup5\n    /* \"#utility.yul\":939:962   */\n  sub\n    /* \"#utility.yul\":935:967   */\n  slt\n    /* \"#utility.yul\":932:1051   */\n  iszero\n  tag_27\n  jumpi\n    /* \"#utility.yul\":970:1049   */\n  tag_28\n  tag_8\n  jump\t// in\ntag_28:\n    /* \"#utility.yul\":932:1051   */\ntag_27:\n    /* \"#utility.yul\":1090:1091   */\n  0x00\n    /* \"#utility.yul\":1115:1179   */\n  tag_29\n    /* \"#utility.yul\":1171:1178   */\n  dup5\n    /* \"#utility.yul\":1162:1168   */\n  dup3\n    /* \"#utility.yul\":1151:1160   */\n  dup6\n    /* \"#utility.yul\":1147:1169   */\n  add\n    /* \"#utility.yul\":1115:1179   */\n  tag_13\n  jump\t// in\ntag_29:\n    /* \"#utility.yul\":1105:1179   */\n  swap2\n  pop\n    /* \"#utility.yul\":1061:1189   */\n  pop\n    /* \"#utility.yul\":845:1196   */\n  swap3\n  swap2\n  pop\n  pop\n  jump\t// out\n    /* \"Manufacturer.sol\":2468:3007  contract RetailStore {... */\ntag_6:\n  dataSize(sub_0)\n  dup1\n  dataOffset(sub_0)\n  0x00\n  codecopy\n  0x00\n  return\nstop\n\nsub_0: assembly {\n        /* \"Manufacturer.sol\":2468:3007  contract RetailStore {... */\n      mstore(0x40, 0x80)\n      jumpi(tag_1, lt(calldatasize, 0x04))\n      shr(0xe0, calldataload(0x00))\n      dup1\n      0xe38abb48\n      eq\n      tag_2\n      jumpi\n    tag_1:\n      0x00\n      dup1\n      revert\n        /* \"Manufacturer.sol\":2644:3004  function buyProductFromRetailStore(... */\n    tag_2:\n      tag_3\n      0x04\n      dup1\n      calldatasize\n      sub\n      dup2\n      add\n      swap1\n      tag_4\n      swap2\n      swap1\n      tag_5\n      jump\t// in\n    tag_4:\n      tag_6\n      jump\t// in\n    tag_3:\n      stop\n    tag_6:\n        /* \"Manufacturer.sol\":2837:2842  owner */\n      0x00\n      dup1\n      sload\n      swap1\n      0x0100\n      exp\n      swap1\n      div\n      0xffffffffffffffffffffffffffffffffffffffff\n      and\n        /* \"Manufacturer.sol\":2796:2842  _manufacturer.viewOwner(_productName) == owner */\n      0xffffffffffffffffffffffffffffffffffffffff\n      and\n        /* \"Manufacturer.sol\":2796:2809  _manufacturer */\n      dup3\n        /* \"Manufacturer.sol\":2796:2819  _manufacturer.viewOwner */\n      0xffffffffffffffffffffffffffffffffffffffff\n      and\n      0xddf88dfc\n        /* \"Manufacturer.sol\":2820:2832  _productName */\n      dup4\n        /* \"Manufacturer.sol\":2796:2833  _manufacturer.viewOwner(_productName) */\n      mload(0x40)\n      dup3\n      0xffffffff\n      and\n      0xe0\n      shl\n      dup2\n      mstore\n      0x04\n      add\n      tag_8\n      swap2\n      swap1\n      tag_9\n      jump\t// in\n    tag_8:\n      0x20\n      mload(0x40)\n      dup1\n      dup4\n      sub\n      dup2\n      dup7\n      gas\n      staticcall\n      iszero\n      dup1\n      iszero\n      tag_11\n      jumpi\n      returndatasize\n      0x00\n      dup1\n      returndatacopy\n      revert(0x00, returndatasize)\n    tag_11:\n      pop\n      pop\n      pop\n      pop\n      mload(0x40)\n      returndatasize\n      not(0x1f)\n      0x1f\n      dup3\n      add\n      and\n      dup3\n      add\n      dup1\n      0x40\n      mstore\n      pop\n      dup2\n      add\n      swap1\n      tag_12\n      swap2\n      swap1\n      tag_13\n      jump\t// in\n    tag_12:\n        /* \"Manufacturer.sol\":2796:2842  _manufacturer.viewOwner(_productName) == owner */\n      0xffffffffffffffffffffffffffffffffffffffff\n      and\n      eq\n        /* \"Manufacturer.sol\":2788:2843  require(_manufacturer.viewOwner(_productName) == owner) */\n      tag_14\n      jumpi\n      0x00\n      dup1\n      revert\n    tag_14:\n        /* \"Manufacturer.sol\":2875:2888  _manufacturer */\n      dup2\n        /* \"Manufacturer.sol\":2875:2905  _manufacturer.viewProductPrice */\n      0xffffffffffffffffffffffffffffffffffffffff\n      and\n      0xfd01273b\n        /* \"Manufacturer.sol\":2906:2918  _productName */\n      dup3\n        /* \"Manufacturer.sol\":2875:2919  _manufacturer.viewProductPrice(_productName) */\n      mload(0x40)\n      dup3\n      0xffffffff\n      and\n      0xe0\n      shl\n      dup2\n      mstore\n      0x04\n      add\n      tag_15\n      swap2\n      swap1\n      tag_9\n      jump\t// in\n    tag_15:\n      0x20\n      mload(0x40)\n      dup1\n      dup4\n      sub\n      dup2\n      dup7\n      gas\n      staticcall\n      iszero\n      dup1\n      iszero\n      tag_17\n      jumpi\n      returndatasize\n      0x00\n      dup1\n      returndatacopy\n      revert(0x00, returndatasize)\n    tag_17:\n      pop\n      pop\n      pop\n      pop\n      mload(0x40)\n      returndatasize\n      not(0x1f)\n      0x1f\n      dup3\n      add\n      and\n      dup3\n      add\n      dup1\n      0x40\n      mstore\n      pop\n      dup2\n      add\n      swap1\n      tag_18\n      swap2\n      swap1\n      tag_19\n      jump\t// in\n    tag_18:\n        /* \"Manufacturer.sol\":2862:2871  msg.value */\n      callvalue\n        /* \"Manufacturer.sol\":2862:2919  msg.value >= _manufacturer.viewProductPrice(_productName) */\n      lt\n      iszero\n        /* \"Manufacturer.sol\":2854:2920  require(msg.value >= _manufacturer.viewProductPrice(_productName)) */\n      tag_20\n      jumpi\n      0x00\n      dup1\n      revert\n    tag_20:\n        /* \"Manufacturer.sol\":2931:2944  _manufacturer */\n      dup2\n        /* \"Manufacturer.sol\":2931:2963  _manufacturer.changeProductOwner */\n      0xffffffffffffffffffffffffffffffffffffffff\n      and\n      0x500ed75d\n        /* \"Manufacturer.sol\":2964:2976  _productName */\n      dup3\n        /* \"Manufacturer.sol\":2978:2983  owner */\n      0x00\n      dup1\n      sload\n      swap1\n      0x0100\n      exp\n      swap1\n      div\n      0xffffffffffffffffffffffffffffffffffffffff\n      and\n        /* \"Manufacturer.sol\":2985:2995  msg.sender */\n      caller\n        /* \"Manufacturer.sol\":2931:2996  _manufacturer.changeProductOwner(_productName, owner, msg.sender) */\n      mload(0x40)\n      dup5\n      0xffffffff\n      and\n      0xe0\n      shl\n      dup2\n      mstore\n      0x04\n      add\n      tag_21\n      swap4\n      swap3\n      swap2\n      swap1\n      tag_22\n      jump\t// in\n    tag_21:\n      0x00\n      mload(0x40)\n      dup1\n      dup4\n      sub\n      dup2\n      0x00\n      dup8\n      dup1\n      extcodesize\n      iszero\n      dup1\n      iszero\n      tag_23\n      jumpi\n      0x00\n      dup1\n      revert\n    tag_23:\n      pop\n      gas\n      call\n      iszero\n      dup1\n      iszero\n      tag_25\n      jumpi\n      returndatasize\n      0x00\n      dup1\n      returndatacopy\n      revert(0x00, returndatasize)\n    tag_25:\n      pop\n      pop\n      pop\n      pop\n        /* \"Manufacturer.sol\":2644:3004  function buyProductFromRetailStore(... */\n      pop\n      pop\n      jump\t// out\n        /* \"#utility.yul\":7:82   */\n    tag_26:\n        /* \"#utility.yul\":40:46   */\n      0x00\n        /* \"#utility.yul\":73:75   */\n      0x40\n        /* \"#utility.yul\":67:76   */\n      mload\n        /* \"#utility.yul\":57:76   */\n      swap1\n      pop\n        /* \"#utility.yul\":7:82   */\n      swap1\n      jump\t// out\n        /* \"#utility.yul\":88:205   */\n    tag_27:\n        /* \"#utility.yul\":197:198   */\n      0x00\n        /* \"#utility.yul\":194:195   */\n      dup1\n        /* \"#utility.yul\":187:199   */\n      revert\n        /* \"#utility.yul\":211:328   */\n    tag_28:\n        /* \"#utility.yul\":320:321   */\n      0x00\n        /* \"#utility.yul\":317:318   */\n      dup1\n        /* \"#utility.yul\":310:322   */\n      revert\n        /* \"#utility.yul\":334:460   */\n    tag_29:\n        /* \"#utility.yul\":371:378   */\n      0x00\n        /* \"#utility.yul\":411:453   */\n      0xffffffffffffffffffffffffffffffffffffffff\n        /* \"#utility.yul\":404:409   */\n      dup3\n        /* \"#utility.yul\":400:454   */\n      and\n        /* \"#utility.yul\":389:454   */\n      swap1\n      pop\n        /* \"#utility.yul\":334:460   */\n      swap2\n      swap1\n      pop\n      jump\t// out\n        /* \"#utility.yul\":466:562   */\n    tag_30:\n        /* \"#utility.yul\":503:510   */\n      0x00\n        /* \"#utility.yul\":532:556   */\n      tag_60\n        /* \"#utility.yul\":550:555   */\n      dup3\n        /* \"#utility.yul\":532:556   */\n      tag_29\n      jump\t// in\n    tag_60:\n        /* \"#utility.yul\":521:556   */\n      swap1\n      pop\n        /* \"#utility.yul\":466:562   */\n      swap2\n      swap1\n      pop\n      jump\t// out\n        /* \"#utility.yul\":568:684   */\n    tag_31:\n        /* \"#utility.yul\":625:632   */\n      0x00\n        /* \"#utility.yul\":654:678   */\n      tag_62\n        /* \"#utility.yul\":672:677   */\n      dup3\n        /* \"#utility.yul\":654:678   */\n      tag_30\n      jump\t// in\n    tag_62:\n        /* \"#utility.yul\":643:678   */\n      swap1\n      pop\n        /* \"#utility.yul\":568:684   */\n      swap2\n      swap1\n      pop\n      jump\t// out\n        /* \"#utility.yul\":690:852   */\n    tag_32:\n        /* \"#utility.yul\":783:827   */\n      tag_64\n        /* \"#utility.yul\":821:826   */\n      dup2\n        /* \"#utility.yul\":783:827   */\n      tag_31\n      jump\t// in\n    tag_64:\n        /* \"#utility.yul\":776:781   */\n      dup2\n        /* \"#utility.yul\":773:828   */\n      eq\n        /* \"#utility.yul\":763:846   */\n      tag_65\n      jumpi\n        /* \"#utility.yul\":842:843   */\n      0x00\n        /* \"#utility.yul\":839:840   */\n      dup1\n        /* \"#utility.yul\":832:844   */\n      revert\n        /* \"#utility.yul\":763:846   */\n    tag_65:\n        /* \"#utility.yul\":690:852   */\n      pop\n      jump\t// out\n        /* \"#utility.yul\":858:1037   */\n    tag_33:\n        /* \"#utility.yul\":924:929   */\n      0x00\n        /* \"#utility.yul\":962:968   */\n      dup2\n        /* \"#utility.yul\":949:969   */\n      calldataload\n        /* \"#utility.yul\":940:969   */\n      swap1\n      pop\n        /* \"#utility.yul\":978:1031   */\n      tag_67\n        /* \"#utility.yul\":1025:1030   */\n      dup2\n        /* \"#utility.yul\":978:1031   */\n      tag_32\n      jump\t// in\n    tag_67:\n        /* \"#utility.yul\":858:1037   */\n      swap3\n      swap2\n      pop\n      pop\n      jump\t// out\n        /* \"#utility.yul\":1043:1160   */\n    tag_34:\n        /* \"#utility.yul\":1152:1153   */\n      0x00\n        /* \"#utility.yul\":1149:1150   */\n      dup1\n        /* \"#utility.yul\":1142:1154   */\n      revert\n        /* \"#utility.yul\":1166:1283   */\n    tag_35:\n        /* \"#utility.yul\":1275:1276   */\n      0x00\n        /* \"#utility.yul\":1272:1273   */\n      dup1\n        /* \"#utility.yul\":1265:1277   */\n      revert\n        /* \"#utility.yul\":1289:1391   */\n    tag_36:\n        /* \"#utility.yul\":1330:1336   */\n      0x00\n        /* \"#utility.yul\":1381:1383   */\n      0x1f\n        /* \"#utility.yul\":1377:1384   */\n      not\n        /* \"#utility.yul\":1372:1374   */\n      0x1f\n        /* \"#utility.yul\":1365:1370   */\n      dup4\n        /* \"#utility.yul\":1361:1375   */\n      add\n        /* \"#utility.yul\":1357:1385   */\n      and\n        /* \"#utility.yul\":1347:1385   */\n      swap1\n      pop\n        /* \"#utility.yul\":1289:1391   */\n      swap2\n      swap1\n      pop\n      jump\t// out\n        /* \"#utility.yul\":1397:1577   */\n    tag_37:\n        /* \"#utility.yul\":1445:1522   */\n      0x4e487b7100000000000000000000000000000000000000000000000000000000\n        /* \"#utility.yul\":1442:1443   */\n      0x00\n        /* \"#utility.yul\":1435:1523   */\n      mstore\n        /* \"#utility.yul\":1542:1546   */\n      0x41\n        /* \"#utility.yul\":1539:1540   */\n      0x04\n        /* \"#utility.yul\":1532:1547   */\n      mstore\n        /* \"#utility.yul\":1566:1570   */\n      0x24\n        /* \"#utility.yul\":1563:1564   */\n      0x00\n        /* \"#utility.yul\":1556:1571   */\n      revert\n        /* \"#utility.yul\":1583:1864   */\n    tag_38:\n        /* \"#utility.yul\":1666:1693   */\n      tag_73\n        /* \"#utility.yul\":1688:1692   */\n      dup3\n        /* \"#utility.yul\":1666:1693   */\n      tag_36\n      jump\t// in\n    tag_73:\n        /* \"#utility.yul\":1658:1664   */\n      dup2\n        /* \"#utility.yul\":1654:1694   */\n      add\n        /* \"#utility.yul\":1796:1802   */\n      dup2\n        /* \"#utility.yul\":1784:1794   */\n      dup2\n        /* \"#utility.yul\":1781:1803   */\n      lt\n        /* \"#utility.yul\":1760:1778   */\n      0xffffffffffffffff\n        /* \"#utility.yul\":1748:1758   */\n      dup3\n        /* \"#utility.yul\":1745:1779   */\n      gt\n        /* \"#utility.yul\":1742:1804   */\n      or\n        /* \"#utility.yul\":1739:1827   */\n      iszero\n      tag_74\n      jumpi\n        /* \"#utility.yul\":1807:1825   */\n      tag_75\n      tag_37\n      jump\t// in\n    tag_75:\n        /* \"#utility.yul\":1739:1827   */\n    tag_74:\n        /* \"#utility.yul\":1847:1857   */\n      dup1\n        /* \"#utility.yul\":1843:1845   */\n      0x40\n        /* \"#utility.yul\":1836:1858   */\n      mstore\n        /* \"#utility.yul\":1626:1864   */\n      pop\n        /* \"#utility.yul\":1583:1864   */\n      pop\n      pop\n      jump\t// out\n        /* \"#utility.yul\":1870:1999   */\n    tag_39:\n        /* \"#utility.yul\":1904:1910   */\n      0x00\n        /* \"#utility.yul\":1931:1951   */\n      tag_77\n      tag_26\n      jump\t// in\n    tag_77:\n        /* \"#utility.yul\":1921:1951   */\n      swap1\n      pop\n        /* \"#utility.yul\":1960:1993   */\n      tag_78\n        /* \"#utility.yul\":1988:1992   */\n      dup3\n        /* \"#utility.yul\":1980:1986   */\n      dup3\n        /* \"#utility.yul\":1960:1993   */\n      tag_38\n      jump\t// in\n    tag_78:\n        /* \"#utility.yul\":1870:1999   */\n      swap2\n      swap1\n      pop\n      jump\t// out\n        /* \"#utility.yul\":2005:2313   */\n    tag_40:\n        /* \"#utility.yul\":2067:2071   */\n      0x00\n        /* \"#utility.yul\":2157:2175   */\n      0xffffffffffffffff\n        /* \"#utility.yul\":2149:2155   */\n      dup3\n        /* \"#utility.yul\":2146:2176   */\n      gt\n        /* \"#utility.yul\":2143:2199   */\n      iszero\n      tag_80\n      jumpi\n        /* \"#utility.yul\":2179:2197   */\n      tag_81\n      tag_37\n      jump\t// in\n    tag_81:\n        /* \"#utility.yul\":2143:2199   */\n    tag_80:\n        /* \"#utility.yul\":2217:2246   */\n      tag_82\n        /* \"#utility.yul\":2239:2245   */\n      dup3\n        /* \"#utility.yul\":2217:2246   */\n      tag_36\n      jump\t// in\n    tag_82:\n        /* \"#utility.yul\":2209:2246   */\n      swap1\n      pop\n        /* \"#utility.yul\":2301:2305   */\n      0x20\n        /* \"#utility.yul\":2295:2299   */\n      dup2\n        /* \"#utility.yul\":2291:2306   */\n      add\n        /* \"#utility.yul\":2283:2306   */\n      swap1\n      pop\n        /* \"#utility.yul\":2005:2313   */\n      swap2\n      swap1\n      pop\n      jump\t// out\n        /* \"#utility.yul\":2319:2473   */\n    tag_41:\n        /* \"#utility.yul\":2403:2409   */\n      dup3\n        /* \"#utility.yul\":2398:2401   */\n      dup2\n        /* \"#utility.yul\":2393:2396   */\n      dup4\n        /* \"#utility.yul\":2380:2410   */\n      calldatacopy\n        /* \"#utility.yul\":2465:2466   */\n      0x00\n        /* \"#utility.yul\":2456:2462   */\n      dup4\n        /* \"#utility.yul\":2451:2454   */\n      dup4\n        /* \"#utility.yul\":2447:2463   */\n      add\n        /* \"#utility.yul\":2440:2467   */\n      mstore\n        /* \"#utility.yul\":2319:2473   */\n      pop\n      pop\n      pop\n      jump\t// out\n        /* \"#utility.yul\":2479:2891   */\n    tag_42:\n        /* \"#utility.yul\":2557:2562   */\n      0x00\n        /* \"#utility.yul\":2582:2648   */\n      tag_85\n        /* \"#utility.yul\":2598:2647   */\n      tag_86\n        /* \"#utility.yul\":2640:2646   */\n      dup5\n        /* \"#utility.yul\":2598:2647   */\n      tag_40\n      jump\t// in\n    tag_86:\n        /* \"#utility.yul\":2582:2648   */\n      tag_39\n      jump\t// in\n    tag_85:\n        /* \"#utility.yul\":2573:2648   */\n      swap1\n      pop\n        /* \"#utility.yul\":2671:2677   */\n      dup3\n        /* \"#utility.yul\":2664:2669   */\n      dup2\n        /* \"#utility.yul\":2657:2678   */\n      mstore\n        /* \"#utility.yul\":2709:2713   */\n      0x20\n        /* \"#utility.yul\":2702:2707   */\n      dup2\n        /* \"#utility.yul\":2698:2714   */\n      add\n        /* \"#utility.yul\":2747:2750   */\n      dup5\n        /* \"#utility.yul\":2738:2744   */\n      dup5\n        /* \"#utility.yul\":2733:2736   */\n      dup5\n        /* \"#utility.yul\":2729:2745   */\n      add\n        /* \"#utility.yul\":2726:2751   */\n      gt\n        /* \"#utility.yul\":2723:2835   */\n      iszero\n      tag_87\n      jumpi\n        /* \"#utility.yul\":2754:2833   */\n      tag_88\n      tag_35\n      jump\t// in\n    tag_88:\n        /* \"#utility.yul\":2723:2835   */\n    tag_87:\n        /* \"#utility.yul\":2844:2885   */\n      tag_89\n        /* \"#utility.yul\":2878:2884   */\n      dup5\n        /* \"#utility.yul\":2873:2876   */\n      dup3\n        /* \"#utility.yul\":2868:2871   */\n      dup6\n        /* \"#utility.yul\":2844:2885   */\n      tag_41\n      jump\t// in\n    tag_89:\n        /* \"#utility.yul\":2563:2891   */\n      pop\n        /* \"#utility.yul\":2479:2891   */\n      swap4\n      swap3\n      pop\n      pop\n      pop\n      jump\t// out\n        /* \"#utility.yul\":2911:3251   */\n    tag_43:\n        /* \"#utility.yul\":2967:2972   */\n      0x00\n        /* \"#utility.yul\":3016:3019   */\n      dup3\n        /* \"#utility.yul\":3009:3013   */\n      0x1f\n        /* \"#utility.yul\":3001:3007   */\n      dup4\n        /* \"#utility.yul\":2997:3014   */\n      add\n        /* \"#utility.yul\":2993:3020   */\n      slt\n        /* \"#utility.yul\":2983:3105   */\n      tag_91\n      jumpi\n        /* \"#utility.yul\":3024:3103   */\n      tag_92\n      tag_34\n      jump\t// in\n    tag_92:\n        /* \"#utility.yul\":2983:3105   */\n    tag_91:\n        /* \"#utility.yul\":3141:3147   */\n      dup2\n        /* \"#utility.yul\":3128:3148   */\n      calldataload\n        /* \"#utility.yul\":3166:3245   */\n      tag_93\n        /* \"#utility.yul\":3241:3244   */\n      dup5\n        /* \"#utility.yul\":3233:3239   */\n      dup3\n        /* \"#utility.yul\":3226:3230   */\n      0x20\n        /* \"#utility.yul\":3218:3224   */\n      dup7\n        /* \"#utility.yul\":3214:3231   */\n      add\n        /* \"#utility.yul\":3166:3245   */\n      tag_42\n      jump\t// in\n    tag_93:\n        /* \"#utility.yul\":3157:3245   */\n      swap2\n      pop\n        /* \"#utility.yul\":2973:3251   */\n      pop\n        /* \"#utility.yul\":2911:3251   */\n      swap3\n      swap2\n      pop\n      pop\n      jump\t// out\n        /* \"#utility.yul\":3257:3951   */\n    tag_5:\n        /* \"#utility.yul\":3355:3361   */\n      0x00\n        /* \"#utility.yul\":3363:3369   */\n      dup1\n        /* \"#utility.yul\":3412:3414   */\n      0x40\n        /* \"#utility.yul\":3400:3409   */\n      dup4\n        /* \"#utility.yul\":3391:3398   */\n      dup6\n        /* \"#utility.yul\":3387:3410   */\n      sub\n        /* \"#utility.yul\":3383:3415   */\n      slt\n        /* \"#utility.yul\":3380:3499   */\n      iszero\n      tag_95\n      jumpi\n        /* \"#utility.yul\":3418:3497   */\n      tag_96\n      tag_27\n      jump\t// in\n    tag_96:\n        /* \"#utility.yul\":3380:3499   */\n    tag_95:\n        /* \"#utility.yul\":3538:3539   */\n      0x00\n        /* \"#utility.yul\":3563:3636   */\n      tag_97\n        /* \"#utility.yul\":3628:3635   */\n      dup6\n        /* \"#utility.yul\":3619:3625   */\n      dup3\n        /* \"#utility.yul\":3608:3617   */\n      dup7\n        /* \"#utility.yul\":3604:3626   */\n      add\n        /* \"#utility.yul\":3563:3636   */\n      tag_33\n      jump\t// in\n    tag_97:\n        /* \"#utility.yul\":3553:3636   */\n      swap3\n      pop\n        /* \"#utility.yul\":3509:3646   */\n      pop\n        /* \"#utility.yul\":3713:3715   */\n      0x20\n        /* \"#utility.yul\":3702:3711   */\n      dup4\n        /* \"#utility.yul\":3698:3716   */\n      add\n        /* \"#utility.yul\":3685:3717   */\n      calldataload\n        /* \"#utility.yul\":3744:3762   */\n      0xffffffffffffffff\n        /* \"#utility.yul\":3736:3742   */\n      dup2\n        /* \"#utility.yul\":3733:3763   */\n      gt\n        /* \"#utility.yul\":3730:3847   */\n      iszero\n      tag_98\n      jumpi\n        /* \"#utility.yul\":3766:3845   */\n      tag_99\n      tag_28\n      jump\t// in\n    tag_99:\n        /* \"#utility.yul\":3730:3847   */\n    tag_98:\n        /* \"#utility.yul\":3871:3934   */\n      tag_100\n        /* \"#utility.yul\":3926:3933   */\n      dup6\n        /* \"#utility.yul\":3917:3923   */\n      dup3\n        /* \"#utility.yul\":3906:3915   */\n      dup7\n        /* \"#utility.yul\":3902:3924   */\n      add\n        /* \"#utility.yul\":3871:3934   */\n      tag_43\n      jump\t// in\n    tag_100:\n        /* \"#utility.yul\":3861:3934   */\n      swap2\n      pop\n        /* \"#utility.yul\":3656:3944   */\n      pop\n        /* \"#utility.yul\":3257:3951   */\n      swap3\n      pop\n      swap3\n      swap1\n      pop\n      jump\t// out\n        /* \"#utility.yul\":3957:4056   */\n    tag_44:\n        /* \"#utility.yul\":4009:4015   */\n      0x00\n        /* \"#utility.yul\":4043:4048   */\n      dup2\n        /* \"#utility.yul\":4037:4049   */\n      mload\n        /* \"#utility.yul\":4027:4049   */\n      swap1\n      pop\n        /* \"#utility.yul\":3957:4056   */\n      swap2\n      swap1\n      pop\n      jump\t// out\n        /* \"#utility.yul\":4062:4231   */\n    tag_45:\n        /* \"#utility.yul\":4146:4157   */\n      0x00\n        /* \"#utility.yul\":4180:4186   */\n      dup3\n        /* \"#utility.yul\":4175:4178   */\n      dup3\n        /* \"#utility.yul\":4168:4187   */\n      mstore\n        /* \"#utility.yul\":4220:4224   */\n      0x20\n        /* \"#utility.yul\":4215:4218   */\n      dup3\n        /* \"#utility.yul\":4211:4225   */\n      add\n        /* \"#utility.yul\":4196:4225   */\n      swap1\n      pop\n        /* \"#utility.yul\":4062:4231   */\n      swap3\n      swap2\n      pop\n      pop\n      jump\t// out\n        /* \"#utility.yul\":4237:4544   */\n    tag_46:\n        /* \"#utility.yul\":4305:4306   */\n      0x00\n        /* \"#utility.yul\":4315:4428   */\n    tag_104:\n        /* \"#utility.yul\":4329:4335   */\n      dup4\n        /* \"#utility.yul\":4326:4327   */\n      dup2\n        /* \"#utility.yul\":4323:4336   */\n      lt\n        /* \"#utility.yul\":4315:4428   */\n      iszero\n      tag_106\n      jumpi\n        /* \"#utility.yul\":4414:4415   */\n      dup1\n        /* \"#utility.yul\":4409:4412   */\n      dup3\n        /* \"#utility.yul\":4405:4416   */\n      add\n        /* \"#utility.yul\":4399:4417   */\n      mload\n        /* \"#utility.yul\":4395:4396   */\n      dup2\n        /* \"#utility.yul\":4390:4393   */\n      dup5\n        /* \"#utility.yul\":4386:4397   */\n      add\n        /* \"#utility.yul\":4379:4418   */\n      mstore\n        /* \"#utility.yul\":4351:4353   */\n      0x20\n        /* \"#utility.yul\":4348:4349   */\n      dup2\n        /* \"#utility.yul\":4344:4354   */\n      add\n        /* \"#utility.yul\":4339:4354   */\n      swap1\n      pop\n        /* \"#utility.yul\":4315:4428   */\n      jump(tag_104)\n    tag_106:\n        /* \"#utility.yul\":4446:4452   */\n      dup4\n        /* \"#utility.yul\":4443:4444   */\n      dup2\n        /* \"#utility.yul\":4440:4453   */\n      gt\n        /* \"#utility.yul\":4437:4538   */\n      iszero\n      tag_107\n      jumpi\n        /* \"#utility.yul\":4526:4527   */\n      0x00\n        /* \"#utility.yul\":4517:4523   */\n      dup5\n        /* \"#utility.yul\":4512:4515   */\n      dup5\n        /* \"#utility.yul\":4508:4524   */\n      add\n        /* \"#utility.yul\":4501:4528   */\n      mstore\n        /* \"#utility.yul\":4437:4538   */\n    tag_107:\n        /* \"#utility.yul\":4286:4544   */\n      pop\n        /* \"#utility.yul\":4237:4544   */\n      pop\n      pop\n      pop\n      jump\t// out\n        /* \"#utility.yul\":4550:4914   */\n    tag_47:\n        /* \"#utility.yul\":4638:4641   */\n      0x00\n        /* \"#utility.yul\":4666:4705   */\n      tag_109\n        /* \"#utility.yul\":4699:4704   */\n      dup3\n        /* \"#utility.yul\":4666:4705   */\n      tag_44\n      jump\t// in\n    tag_109:\n        /* \"#utility.yul\":4721:4792   */\n      tag_110\n        /* \"#utility.yul\":4785:4791   */\n      dup2\n        /* \"#utility.yul\":4780:4783   */\n      dup6\n        /* \"#utility.yul\":4721:4792   */\n      tag_45\n      jump\t// in\n    tag_110:\n        /* \"#utility.yul\":4714:4792   */\n      swap4\n      pop\n        /* \"#utility.yul\":4801:4853   */\n      tag_111\n        /* \"#utility.yul\":4846:4852   */\n      dup2\n        /* \"#utility.yul\":4841:4844   */\n      dup6\n        /* \"#utility.yul\":4834:4838   */\n      0x20\n        /* \"#utility.yul\":4827:4832   */\n      dup7\n        /* \"#utility.yul\":4823:4839   */\n      add\n        /* \"#utility.yul\":4801:4853   */\n      tag_46\n      jump\t// in\n    tag_111:\n        /* \"#utility.yul\":4878:4907   */\n      tag_112\n        /* \"#utility.yul\":4900:4906   */\n      dup2\n        /* \"#utility.yul\":4878:4907   */\n      tag_36\n      jump\t// in\n    tag_112:\n        /* \"#utility.yul\":4873:4876   */\n      dup5\n        /* \"#utility.yul\":4869:4908   */\n      add\n        /* \"#utility.yul\":4862:4908   */\n      swap2\n      pop\n        /* \"#utility.yul\":4642:4914   */\n      pop\n        /* \"#utility.yul\":4550:4914   */\n      swap3\n      swap2\n      pop\n      pop\n      jump\t// out\n        /* \"#utility.yul\":4920:5233   */\n    tag_9:\n        /* \"#utility.yul\":5033:5037   */\n      0x00\n        /* \"#utility.yul\":5071:5073   */\n      0x20\n        /* \"#utility.yul\":5060:5069   */\n      dup3\n        /* \"#utility.yul\":5056:5074   */\n      add\n        /* \"#utility.yul\":5048:5074   */\n      swap1\n      pop\n        /* \"#utility.yul\":5120:5129   */\n      dup2\n        /* \"#utility.yul\":5114:5118   */\n      dup2\n        /* \"#utility.yul\":5110:5130   */\n      sub\n        /* \"#utility.yul\":5106:5107   */\n      0x00\n        /* \"#utility.yul\":5095:5104   */\n      dup4\n        /* \"#utility.yul\":5091:5108   */\n      add\n        /* \"#utility.yul\":5084:5131   */\n      mstore\n        /* \"#utility.yul\":5148:5226   */\n      tag_114\n        /* \"#utility.yul\":5221:5225   */\n      dup2\n        /* \"#utility.yul\":5212:5218   */\n      dup5\n        /* \"#utility.yul\":5148:5226   */\n      tag_47\n      jump\t// in\n    tag_114:\n        /* \"#utility.yul\":5140:5226   */\n      swap1\n      pop\n        /* \"#utility.yul\":4920:5233   */\n      swap3\n      swap2\n      pop\n      pop\n      jump\t// out\n        /* \"#utility.yul\":5239:5361   */\n    tag_48:\n        /* \"#utility.yul\":5312:5336   */\n      tag_116\n        /* \"#utility.yul\":5330:5335   */\n      dup2\n        /* \"#utility.yul\":5312:5336   */\n      tag_30\n      jump\t// in\n    tag_116:\n        /* \"#utility.yul\":5305:5310   */\n      dup2\n        /* \"#utility.yul\":5302:5337   */\n      eq\n        /* \"#utility.yul\":5292:5355   */\n      tag_117\n      jumpi\n        /* \"#utility.yul\":5351:5352   */\n      0x00\n        /* \"#utility.yul\":5348:5349   */\n      dup1\n        /* \"#utility.yul\":5341:5353   */\n      revert\n        /* \"#utility.yul\":5292:5355   */\n    tag_117:\n        /* \"#utility.yul\":5239:5361   */\n      pop\n      jump\t// out\n        /* \"#utility.yul\":5367:5510   */\n    tag_49:\n        /* \"#utility.yul\":5424:5429   */\n      0x00\n        /* \"#utility.yul\":5455:5461   */\n      dup2\n        /* \"#utility.yul\":5449:5462   */\n      mload\n        /* \"#utility.yul\":5440:5462   */\n      swap1\n      pop\n        /* \"#utility.yul\":5471:5504   */\n      tag_119\n        /* \"#utility.yul\":5498:5503   */\n      dup2\n        /* \"#utility.yul\":5471:5504   */\n      tag_48\n      jump\t// in\n    tag_119:\n        /* \"#utility.yul\":5367:5510   */\n      swap3\n      swap2\n      pop\n      pop\n      jump\t// out\n        /* \"#utility.yul\":5516:5867   */\n    tag_13:\n        /* \"#utility.yul\":5586:5592   */\n      0x00\n        /* \"#utility.yul\":5635:5637   */\n      0x20\n        /* \"#utility.yul\":5623:5632   */\n      dup3\n        /* \"#utility.yul\":5614:5621   */\n      dup5\n        /* \"#utility.yul\":5610:5633   */\n      sub\n        /* \"#utility.yul\":5606:5638   */\n      slt\n        /* \"#utility.yul\":5603:5722   */\n      iszero\n      tag_121\n      jumpi\n        /* \"#utility.yul\":5641:5720   */\n      tag_122\n      tag_27\n      jump\t// in\n    tag_122:\n        /* \"#utility.yul\":5603:5722   */\n    tag_121:\n        /* \"#utility.yul\":5761:5762   */\n      0x00\n        /* \"#utility.yul\":5786:5850   */\n      tag_123\n        /* \"#utility.yul\":5842:5849   */\n      dup5\n        /* \"#utility.yul\":5833:5839   */\n      dup3\n        /* \"#utility.yul\":5822:5831   */\n      dup6\n        /* \"#utility.yul\":5818:5840   */\n      add\n        /* \"#utility.yul\":5786:5850   */\n      tag_49\n      jump\t// in\n    tag_123:\n        /* \"#utility.yul\":5776:5850   */\n      swap2\n      pop\n        /* \"#utility.yul\":5732:5860   */\n      pop\n        /* \"#utility.yul\":5516:5867   */\n      swap3\n      swap2\n      pop\n      pop\n      jump\t// out\n        /* \"#utility.yul\":5873:5950   */\n    tag_50:\n        /* \"#utility.yul\":5910:5917   */\n      0x00\n        /* \"#utility.yul\":5939:5944   */\n      dup2\n        /* \"#utility.yul\":5928:5944   */\n      swap1\n      pop\n        /* \"#utility.yul\":5873:5950   */\n      swap2\n      swap1\n      pop\n      jump\t// out\n        /* \"#utility.yul\":5956:6078   */\n    tag_51:\n        /* \"#utility.yul\":6029:6053   */\n      tag_126\n        /* \"#utility.yul\":6047:6052   */\n      dup2\n        /* \"#utility.yul\":6029:6053   */\n      tag_50\n      jump\t// in\n    tag_126:\n        /* \"#utility.yul\":6022:6027   */\n      dup2\n        /* \"#utility.yul\":6019:6054   */\n      eq\n        /* \"#utility.yul\":6009:6072   */\n      tag_127\n      jumpi\n        /* \"#utility.yul\":6068:6069   */\n      0x00\n        /* \"#utility.yul\":6065:6066   */\n      dup1\n        /* \"#utility.yul\":6058:6070   */\n      revert\n        /* \"#utility.yul\":6009:6072   */\n    tag_127:\n        /* \"#utility.yul\":5956:6078   */\n      pop\n      jump\t// out\n        /* \"#utility.yul\":6084:6227   */\n    tag_52:\n        /* \"#utility.yul\":6141:6146   */\n      0x00\n        /* \"#utility.yul\":6172:6178   */\n      dup2\n        /* \"#utility.yul\":6166:6179   */\n      mload\n        /* \"#utility.yul\":6157:6179   */\n      swap1\n      pop\n        /* \"#utility.yul\":6188:6221   */\n      tag_129\n        /* \"#utility.yul\":6215:6220   */\n      dup2\n        /* \"#utility.yul\":6188:6221   */\n      tag_51\n      jump\t// in\n    tag_129:\n        /* \"#utility.yul\":6084:6227   */\n      swap3\n      swap2\n      pop\n      pop\n      jump\t// out\n        /* \"#utility.yul\":6233:6584   */\n    tag_19:\n        /* \"#utility.yul\":6303:6309   */\n      0x00\n        /* \"#utility.yul\":6352:6354   */\n      0x20\n        /* \"#utility.yul\":6340:6349   */\n      dup3\n        /* \"#utility.yul\":6331:6338   */\n      dup5\n        /* \"#utility.yul\":6327:6350   */\n      sub\n        /* \"#utility.yul\":6323:6355   */\n      slt\n        /* \"#utility.yul\":6320:6439   */\n      iszero\n      tag_131\n      jumpi\n        /* \"#utility.yul\":6358:6437   */\n      tag_132\n      tag_27\n      jump\t// in\n    tag_132:\n        /* \"#utility.yul\":6320:6439   */\n    tag_131:\n        /* \"#utility.yul\":6478:6479   */\n      0x00\n        /* \"#utility.yul\":6503:6567   */\n      tag_133\n        /* \"#utility.yul\":6559:6566   */\n      dup5\n        /* \"#utility.yul\":6550:6556   */\n      dup3\n        /* \"#utility.yul\":6539:6548   */\n      dup6\n        /* \"#utility.yul\":6535:6557   */\n      add\n        /* \"#utility.yul\":6503:6567   */\n      tag_52\n      jump\t// in\n    tag_133:\n        /* \"#utility.yul\":6493:6567   */\n      swap2\n      pop\n        /* \"#utility.yul\":6449:6577   */\n      pop\n        /* \"#utility.yul\":6233:6584   */\n      swap3\n      swap2\n      pop\n      pop\n      jump\t// out\n        /* \"#utility.yul\":6590:6708   */\n    tag_53:\n        /* \"#utility.yul\":6677:6701   */\n      tag_135\n        /* \"#utility.yul\":6695:6700   */\n      dup2\n        /* \"#utility.yul\":6677:6701   */\n      tag_30\n      jump\t// in\n    tag_135:\n        /* \"#utility.yul\":6672:6675   */\n      dup3\n        /* \"#utility.yul\":6665:6702   */\n      mstore\n        /* \"#utility.yul\":6590:6708   */\n      pop\n      pop\n      jump\t// out\n        /* \"#utility.yul\":6714:7247   */\n    tag_22:\n        /* \"#utility.yul\":6883:6887   */\n      0x00\n        /* \"#utility.yul\":6921:6923   */\n      0x60\n        /* \"#utility.yul\":6910:6919   */\n      dup3\n        /* \"#utility.yul\":6906:6924   */\n      add\n        /* \"#utility.yul\":6898:6924   */\n      swap1\n      pop\n        /* \"#utility.yul\":6970:6979   */\n      dup2\n        /* \"#utility.yul\":6964:6968   */\n      dup2\n        /* \"#utility.yul\":6960:6980   */\n      sub\n        /* \"#utility.yul\":6956:6957   */\n      0x00\n        /* \"#utility.yul\":6945:6954   */\n      dup4\n        /* \"#utility.yul\":6941:6958   */\n      add\n        /* \"#utility.yul\":6934:6981   */\n      mstore\n        /* \"#utility.yul\":6998:7076   */\n      tag_137\n        /* \"#utility.yul\":7071:7075   */\n      dup2\n        /* \"#utility.yul\":7062:7068   */\n      dup7\n        /* \"#utility.yul\":6998:7076   */\n      tag_47\n      jump\t// in\n    tag_137:\n        /* \"#utility.yul\":6990:7076   */\n      swap1\n      pop\n        /* \"#utility.yul\":7086:7158   */\n      tag_138\n        /* \"#utility.yul\":7154:7156   */\n      0x20\n        /* \"#utility.yul\":7143:7152   */\n      dup4\n        /* \"#utility.yul\":7139:7157   */\n      add\n        /* \"#utility.yul\":7130:7136   */\n      dup6\n        /* \"#utility.yul\":7086:7158   */\n      tag_53\n      jump\t// in\n    tag_138:\n        /* \"#utility.yul\":7168:7240   */\n      tag_139\n        /* \"#utility.yul\":7236:7238   */\n      0x40\n        /* \"#utility.yul\":7225:7234   */\n      dup4\n        /* \"#utility.yul\":7221:7239   */\n      add\n        /* \"#utility.yul\":7212:7218   */\n      dup5\n        /* \"#utility.yul\":7168:7240   */\n      tag_53\n      jump\t// in\n    tag_139:\n        /* \"#utility.yul\":6714:7247   */\n      swap5\n      swap4\n      pop\n      pop\n      pop\n      pop\n      jump\t// out\n\n    auxdata: 0xa264697066735822122096e18f87c35b5aa485072d1a558a12d0ac78ffbc98e5f197e7a524221b7ecf4b64736f6c634300080a0033\n}\n","bytecode":{"linkReferences":{},"object":"608060405234801561001057600080fd5b5060405161074f38038061074f833981810160405281019061003291906100db565b806000806101000a81548173ffffffffffffffffffffffffffffffffffffffff021916908373ffffffffffffffffffffffffffffffffffffffff16021790555050610108565b600080fd5b600073ffffffffffffffffffffffffffffffffffffffff82169050919050565b60006100a88261007d565b9050919050565b6100b88161009d565b81146100c357600080fd5b50565b6000815190506100d5816100af565b92915050565b6000602082840312156100f1576100f0610078565b5b60006100ff848285016100c6565b91505092915050565b610638806101176000396000f3fe60806040526004361061001e5760003560e01c8063e38abb4814610023575b600080fd5b61003d600480360381019061003891906103f3565b61003f565b005b60008054906101000a900473ffffffffffffffffffffffffffffffffffffffff1673ffffffffffffffffffffffffffffffffffffffff168273ffffffffffffffffffffffffffffffffffffffff1663ddf88dfc836040518263ffffffff1660e01b81526004016100af91906104d7565b602060405180830381865afa1580156100cc573d6000803e3d6000fd5b505050506040513d601f19601f820116820180604052508101906100f09190610525565b73ffffffffffffffffffffffffffffffffffffffff161461011057600080fd5b8173ffffffffffffffffffffffffffffffffffffffff1663fd01273b826040518263ffffffff1660e01b815260040161014991906104d7565b602060405180830381865afa158015610166573d6000803e3d6000fd5b505050506040513d601f19601f8201168201806040525081019061018a9190610588565b34101561019657600080fd5b8173ffffffffffffffffffffffffffffffffffffffff1663500ed75d8260008054906101000a900473ffffffffffffffffffffffffffffffffffffffff16336040518463ffffffff1660e01b81526004016101f3939291906105c4565b600060405180830381600087803b15801561020d57600080fd5b505af1158015610221573d6000803e3d6000fd5b505050505050565b6000604051905090565b600080fd5b600080fd5b600073ffffffffffffffffffffffffffffffffffffffff82169050919050565b60006102688261023d565b9050919050565b600061027a8261025d565b9050919050565b61028a8161026f565b811461029557600080fd5b50565b6000813590506102a781610281565b92915050565b600080fd5b600080fd5b6000601f19601f8301169050919050565b7f4e487b7100000000000000000000000000000000000000000000000000000000600052604160045260246000fd5b610300826102b7565b810181811067ffffffffffffffff8211171561031f5761031e6102c8565b5b80604052505050565b6000610332610229565b905061033e82826102f7565b919050565b600067ffffffffffffffff82111561035e5761035d6102c8565b5b610367826102b7565b9050602081019050919050565b82818337600083830152505050565b600061039661039184610343565b610328565b9050828152602081018484840111156103b2576103b16102b2565b5b6103bd848285610374565b509392505050565b600082601f8301126103da576103d96102ad565b5b81356103ea848260208601610383565b91505092915050565b6000806040838503121561040a57610409610233565b5b600061041885828601610298565b925050602083013567ffffffffffffffff81111561043957610438610238565b5b610445858286016103c5565b9150509250929050565b600081519050919050565b600082825260208201905092915050565b60005b8381101561048957808201518184015260208101905061046e565b83811115610498576000848401525b50505050565b60006104a98261044f565b6104b3818561045a565b93506104c381856020860161046b565b6104cc816102b7565b840191505092915050565b600060208201905081810360008301526104f1818461049e565b905092915050565b6105028161025d565b811461050d57600080fd5b50565b60008151905061051f816104f9565b92915050565b60006020828403121561053b5761053a610233565b5b600061054984828501610510565b91505092915050565b6000819050919050565b61056581610552565b811461057057600080fd5b50565b6000815190506105828161055c565b92915050565b60006020828403121561059e5761059d610233565b5b60006105ac84828501610573565b91505092915050565b6105be8161025d565b82525050565b600060608201905081810360008301526105de818661049e565b90506105ed60208301856105b5565b6105fa60408301846105b5565b94935050505056fea264697066735822122096e18f87c35b5aa485072d1a558a12d0ac78ffbc98e5f197e7a524221b7ecf4b64736f6c634300080a0033","opcodes":"PUSH1 0x80 PUSH1 0x40 MSTORE CALLVALUE DUP1 ISZERO PUSH2 0x10 JUMPI PUSH1 0x0 DUP1 REVERT JUMPDEST POP PUSH1 0x40 MLOAD PUSH2 0x74F CODESIZE SUB DUP1 PUSH2 0x74F DUP4 CODECOPY DUP2 DUP2 ADD PUSH1 0x40 MSTORE DUP2 ADD SWAP1 PUSH2 0x32 SWAP2 SWAP1 PUSH2 0xDB JUMP JUMPDEST DUP1 PUSH1 0x0 DUP1 PUSH2 0x100 EXP DUP2 SLOAD DUP2 PUSH20 0xFFFFFFFFFFFFFFFFFFFFFFFFFFFFFFFFFFFFFFFF MUL NOT AND SWAP1 DUP4 PUSH20 0xFFFFFFFFFFFFFFFFFFFFFFFFFFFFFFFFFFFFFFFF AND MUL OR SWAP1 SSTORE POP POP PUSH2 0x108 JUMP JUMPDEST PUSH1 0x0 DUP1 REVERT JUMPDEST PUSH1 0x0 PUSH20 0xFFFFFFFFFFFFFFFFFFFFFFFFFFFFFFFFFFFFFFFF DUP3 AND SWAP1 POP SWAP2 SWAP1 POP JUMP JUMPDEST PUSH1 0x0 PUSH2 0xA8 DUP3 PUSH2 0x7D JUMP JUMPDEST SWAP1 POP SWAP2 SWAP1 POP JUMP JUMPDEST PUSH2 0xB8 DUP2 PUSH2 0x9D JUMP JUMPDEST DUP2 EQ PUSH2 0xC3 JUMPI PUSH1 0x0 DUP1 REVERT JUMPDEST POP JUMP JUMPDEST PUSH1 0x0 DUP2 MLOAD SWAP1 POP PUSH2 0xD5 DUP2 PUSH2 0xAF JUMP JUMPDEST SWAP3 SWAP2 POP POP JUMP JUMPDEST PUSH1 0x0 PUSH1 0x20 DUP3 DUP5 SUB SLT ISZERO PUSH2 0xF1 JUMPI PUSH2 0xF0 PUSH2 0x78 JUMP JUMPDEST JUMPDEST PUSH1 0x0 PUSH2 0xFF DUP5 DUP3 DUP6 ADD PUSH2 0xC6 JUMP JUMPDEST SWAP2 POP POP SWAP3 SWAP2 POP POP JUMP JUMPDEST PUSH2 0x638 DUP1 PUSH2 0x117 PUSH1 0x0 CODECOPY PUSH1 0x0 RETURN INVALID PUSH1 0x80 PUSH1 0x40 MSTORE PUSH1 0x4 CALLDATASIZE LT PUSH2 0x1E JUMPI PUSH1 0x0 CALLDATALOAD PUSH1 0xE0 SHR DUP1 PUSH4 0xE38ABB48 EQ PUSH2 0x23 JUMPI JUMPDEST PUSH1 0x0 DUP1 REVERT JUMPDEST PUSH2 0x3D PUSH1 0x4 DUP1 CALLDATASIZE SUB DUP2 ADD SWAP1 PUSH2 0x38 SWAP2 SWAP1 PUSH2 0x3F3 JUMP JUMPDEST PUSH2 0x3F JUMP JUMPDEST STOP JUMPDEST PUSH1 0x0 DUP1 SLOAD SWAP1 PUSH2 0x100 EXP SWAP1 DIV PUSH20 0xFFFFFFFFFFFFFFFFFFFFFFFFFFFFFFFFFFFFFFFF AND PUSH20 0xFFFFFFFFFFFFFFFFFFFFFFFFFFFFFFFFFFFFFFFF AND DUP3 PUSH20 0xFFFFFFFFFFFFFFFFFFFFFFFFFFFFFFFFFFFFFFFF AND PUSH4 0xDDF88DFC DUP4 PUSH1 0x40 MLOAD DUP3 PUSH4 0xFFFFFFFF AND PUSH1 0xE0 SHL DUP2 MSTORE PUSH1 0x4 ADD PUSH2 0xAF SWAP2 SWAP1 PUSH2 0x4D7 JUMP JUMPDEST PUSH1 0x20 PUSH1 0x40 MLOAD DUP1 DUP4 SUB DUP2 DUP7 GAS STATICCALL ISZERO DUP1 ISZERO PUSH2 0xCC JUMPI RETURNDATASIZE PUSH1 0x0 DUP1 RETURNDATACOPY RETURNDATASIZE PUSH1 0x0 REVERT JUMPDEST POP POP POP POP PUSH1 0x40 MLOAD RETURNDATASIZE PUSH1 0x1F NOT PUSH1 0x1F DUP3 ADD AND DUP3 ADD DUP1 PUSH1 0x40 MSTORE POP DUP2 ADD SWAP1 PUSH2 0xF0 SWAP2 SWAP1 PUSH2 0x525 JUMP JUMPDEST PUSH20 0xFFFFFFFFFFFFFFFFFFFFFFFFFFFFFFFFFFFFFFFF AND EQ PUSH2 0x110 JUMPI PUSH1 0x0 DUP1 REVERT JUMPDEST DUP2 PUSH20 0xFFFFFFFFFFFFFFFFFFFFFFFFFFFFFFFFFFFFFFFF AND PUSH4 0xFD01273B DUP3 PUSH1 0x40 MLOAD DUP3 PUSH4 0xFFFFFFFF AND PUSH1 0xE0 SHL DUP2 MSTORE PUSH1 0x4 ADD PUSH2 0x149 SWAP2 SWAP1 PUSH2 0x4D7 JUMP JUMPDEST PUSH1 0x20 PUSH1 0x40 MLOAD DUP1 DUP4 SUB DUP2 DUP7 GAS STATICCALL ISZERO DUP1 ISZERO PUSH2 0x166 JUMPI RETURNDATASIZE PUSH1 0x0 DUP1 RETURNDATACOPY RETURNDATASIZE PUSH1 0x0 REVERT JUMPDEST POP POP POP POP PUSH1 0x40 MLOAD RETURNDATASIZE PUSH1 0x1F NOT PUSH1 0x1F DUP3 ADD AND DUP3 ADD DUP1 PUSH1 0x40 MSTORE POP DUP2 ADD SWAP1 PUSH2 0x18A SWAP2 SWAP1 PUSH2 0x588 JUMP JUMPDEST CALLVALUE LT ISZERO PUSH2 0x196 JUMPI PUSH1 0x0 DUP1 REVERT JUMPDEST DUP2 PUSH20 0xFFFFFFFFFFFFFFFFFFFFFFFFFFFFFFFFFFFFFFFF AND PUSH4 0x500ED75D DUP3 PUSH1 0x0 DUP1 SLOAD SWAP1 PUSH2 0x100 EXP SWAP1 DIV PUSH20 0xFFFFFFFFFFFFFFFFFFFFFFFFFFFFFFFFFFFFFFFF AND CALLER PUSH1 0x40 MLOAD DUP5 PUSH4 0xFFFFFFFF AND PUSH1 0xE0 SHL DUP2 MSTORE PUSH1 0x4 ADD PUSH2 0x1F3 SWAP4 SWAP3 SWAP2 SWAP1 PUSH2 0x5C4 JUMP JUMPDEST PUSH1 0x0 PUSH1 0x40 MLOAD DUP1 DUP4 SUB DUP2 PUSH1 0x0 DUP8 DUP1 EXTCODESIZE ISZERO DUP1 ISZERO PUSH2 0x20D JUMPI PUSH1 0x0 DUP1 REVERT JUMPDEST POP GAS CALL ISZERO DUP1 ISZERO PUSH2 0x221 JUMPI RETURNDATASIZE PUSH1 0x0 DUP1 RETURNDATACOPY RETURNDATASIZE PUSH1 0x0 REVERT JUMPDEST POP POP POP POP POP POP JUMP JUMPDEST PUSH1 0x0 PUSH1 0x40 MLOAD SWAP1 POP SWAP1 JUMP JUMPDEST PUSH1 0x0 DUP1 REVERT JUMPDEST PUSH1 0x0 DUP1 REVERT JUMPDEST PUSH1 0x0 PUSH20 0xFFFFFFFFFFFFFFFFFFFFFFFFFFFFFFFFFFFFFFFF DUP3 AND SWAP1 POP SWAP2 SWAP1 POP JUMP JUMPDEST PUSH1 0x0 PUSH2 0x268 DUP3 PUSH2 0x23D JUMP JUMPDEST SWAP1 POP SWAP2 SWAP1 POP JUMP JUMPDEST PUSH1 0x0 PUSH2 0x27A DUP3 PUSH2 0x25D JUMP JUMPDEST SWAP1 POP SWAP2 SWAP1 POP JUMP JUMPDEST PUSH2 0x28A DUP2 PUSH2 0x26F JUMP JUMPDEST DUP2 EQ PUSH2 0x295 JUMPI PUSH1 0x0 DUP1 REVERT JUMPDEST POP JUMP JUMPDEST PUSH1 0x0 DUP2 CALLDATALOAD SWAP1 POP PUSH2 0x2A7 DUP2 PUSH2 0x281 JUMP JUMPDEST SWAP3 SWAP2 POP POP JUMP JUMPDEST PUSH1 0x0 DUP1 REVERT JUMPDEST PUSH1 0x0 DUP1 REVERT JUMPDEST PUSH1 0x0 PUSH1 0x1F NOT PUSH1 0x1F DUP4 ADD AND SWAP1 POP SWAP2 SWAP1 POP JUMP JUMPDEST PUSH32 0x4E487B7100000000000000000000000000000000000000000000000000000000 PUSH1 0x0 MSTORE PUSH1 0x41 PUSH1 0x4 MSTORE PUSH1 0x24 PUSH1 0x0 REVERT JUMPDEST PUSH2 0x300 DUP3 PUSH2 0x2B7 JUMP JUMPDEST DUP2 ADD DUP2 DUP2 LT PUSH8 0xFFFFFFFFFFFFFFFF DUP3 GT OR ISZERO PUSH2 0x31F JUMPI PUSH2 0x31E PUSH2 0x2C8 JUMP JUMPDEST JUMPDEST DUP1 PUSH1 0x40 MSTORE POP POP POP JUMP JUMPDEST PUSH1 0x0 PUSH2 0x332 PUSH2 0x229 JUMP JUMPDEST SWAP1 POP PUSH2 0x33E DUP3 DUP3 PUSH2 0x2F7 JUMP JUMPDEST SWAP2 SWAP1 POP JUMP JUMPDEST PUSH1 0x0 PUSH8 0xFFFFFFFFFFFFFFFF DUP3 GT ISZERO PUSH2 0x35E JUMPI PUSH2 0x35D PUSH2 0x2C8 JUMP JUMPDEST JUMPDEST PUSH2 0x367 DUP3 PUSH2 0x2B7 JUMP JUMPDEST SWAP1 POP PUSH1 0x20 DUP2 ADD SWAP1 POP SWAP2 SWAP1 POP JUMP JUMPDEST DUP3 DUP2 DUP4 CALLDATACOPY PUSH1 0x0 DUP4 DUP4 ADD MSTORE POP POP POP JUMP JUMPDEST PUSH1 0x0 PUSH2 0x396 PUSH2 0x391 DUP5 PUSH2 0x343 JUMP JUMPDEST PUSH2 0x328 JUMP JUMPDEST SWAP1 POP DUP3 DUP2 MSTORE PUSH1 0x20 DUP2 ADD DUP5 DUP5 DUP5 ADD GT ISZERO PUSH2 0x3B2 JUMPI PUSH2 0x3B1 PUSH2 0x2B2 JUMP JUMPDEST JUMPDEST PUSH2 0x3BD DUP5 DUP3 DUP6 PUSH2 0x374 JUMP JUMPDEST POP SWAP4 SWAP3 POP POP POP JUMP JUMPDEST PUSH1 0x0 DUP3 PUSH1 0x1F DUP4 ADD SLT PUSH2 0x3DA JUMPI PUSH2 0x3D9 PUSH2 0x2AD JUMP JUMPDEST JUMPDEST DUP2 CALLDATALOAD PUSH2 0x3EA DUP5 DUP3 PUSH1 0x20 DUP7 ADD PUSH2 0x383 JUMP JUMPDEST SWAP2 POP POP SWAP3 SWAP2 POP POP JUMP JUMPDEST PUSH1 0x0 DUP1 PUSH1 0x40 DUP4 DUP6 SUB SLT ISZERO PUSH2 0x40A JUMPI PUSH2 0x409 PUSH2 0x233 JUMP JUMPDEST JUMPDEST PUSH1 0x0 PUSH2 0x418 DUP6 DUP3 DUP7 ADD PUSH2 0x298 JUMP JUMPDEST SWAP3 POP POP PUSH1 0x20 DUP4 ADD CALLDATALOAD PUSH8 0xFFFFFFFFFFFFFFFF DUP2 GT ISZERO PUSH2 0x439 JUMPI PUSH2 0x438 PUSH2 0x238 JUMP JUMPDEST JUMPDEST PUSH2 0x445 DUP6 DUP3 DUP7 ADD PUSH2 0x3C5 JUMP JUMPDEST SWAP2 POP POP SWAP3 POP SWAP3 SWAP1 POP JUMP JUMPDEST PUSH1 0x0 DUP2 MLOAD SWAP1 POP SWAP2 SWAP1 POP JUMP JUMPDEST PUSH1 0x0 DUP3 DUP3 MSTORE PUSH1 0x20 DUP3 ADD SWAP1 POP SWAP3 SWAP2 POP POP JUMP JUMPDEST PUSH1 0x0 JUMPDEST DUP4 DUP2 LT ISZERO PUSH2 0x489 JUMPI DUP1 DUP3 ADD MLOAD DUP2 DUP5 ADD MSTORE PUSH1 0x20 DUP2 ADD SWAP1 POP PUSH2 0x46E JUMP JUMPDEST DUP4 DUP2 GT ISZERO PUSH2 0x498 JUMPI PUSH1 0x0 DUP5 DUP5 ADD MSTORE JUMPDEST POP POP POP POP JUMP JUMPDEST PUSH1 0x0 PUSH2 0x4A9 DUP3 PUSH2 0x44F JUMP JUMPDEST PUSH2 0x4B3 DUP2 DUP6 PUSH2 0x45A JUMP JUMPDEST SWAP4 POP PUSH2 0x4C3 DUP2 DUP6 PUSH1 0x20 DUP7 ADD PUSH2 0x46B JUMP JUMPDEST PUSH2 0x4CC DUP2 PUSH2 0x2B7 JUMP JUMPDEST DUP5 ADD SWAP2 POP POP SWAP3 SWAP2 POP POP JUMP JUMPDEST PUSH1 0x0 PUSH1 0x20 DUP3 ADD SWAP1 POP DUP2 DUP2 SUB PUSH1 0x0 DUP4 ADD MSTORE PUSH2 0x4F1 DUP2 DUP5 PUSH2 0x49E JUMP JUMPDEST SWAP1 POP SWAP3 SWAP2 POP POP JUMP JUMPDEST PUSH2 0x502 DUP2 PUSH2 0x25D JUMP JUMPDEST DUP2 EQ PUSH2 0x50D JUMPI PUSH1 0x0 DUP1 REVERT JUMPDEST POP JUMP JUMPDEST PUSH1 0x0 DUP2 MLOAD SWAP1 POP PUSH2 0x51F DUP2 PUSH2 0x4F9 JUMP JUMPDEST SWAP3 SWAP2 POP POP JUMP JUMPDEST PUSH1 0x0 PUSH1 0x20 DUP3 DUP5 SUB SLT ISZERO PUSH2 0x53B JUMPI PUSH2 0x53A PUSH2 0x233 JUMP JUMPDEST JUMPDEST PUSH1 0x0 PUSH2 0x549 DUP5 DUP3 DUP6 ADD PUSH2 0x510 JUMP JUMPDEST SWAP2 POP POP SWAP3 SWAP2 POP POP JUMP JUMPDEST PUSH1 0x0 DUP2 SWAP1 POP SWAP2 SWAP1 POP JUMP JUMPDEST PUSH2 0x565 DUP2 PUSH2 0x552 JUMP JUMPDEST DUP2 EQ PUSH2 0x570 JUMPI PUSH1 0x0 DUP1 REVERT JUMPDEST POP JUMP JUMPDEST PUSH1 0x0 DUP2 MLOAD SWAP1 POP PUSH2 0x582 DUP2 PUSH2 0x55C JUMP JUMPDEST SWAP3 SWAP2 POP POP JUMP JUMPDEST PUSH1 0x0 PUSH1 0x20 DUP3 DUP5 SUB SLT ISZERO PUSH2 0x59E JUMPI PUSH2 0x59D PUSH2 0x233 JUMP JUMPDEST JUMPDEST PUSH1 0x0 PUSH2 0x5AC DUP5 DUP3 DUP6 ADD PUSH2 0x573 JUMP JUMPDEST SWAP2 POP POP SWAP3 SWAP2 POP POP JUMP JUMPDEST PUSH2 0x5BE DUP2 PUSH2 0x25D JUMP JUMPDEST DUP3 MSTORE POP POP JUMP JUMPDEST PUSH1 0x0 PUSH1 0x60 DUP3 ADD SWAP1 POP DUP2 DUP2 SUB PUSH1 0x0 DUP4 ADD MSTORE PUSH2 0x5DE DUP2 DUP7 PUSH2 0x49E JUMP JUMPDEST SWAP1 POP PUSH2 0x5ED PUSH1 0x20 DUP4 ADD DUP6 PUSH2 0x5B5 JUMP JUMPDEST PUSH2 0x5FA PUSH1 0x40 DUP4 ADD DUP5 PUSH2 0x5B5 JUMP JUMPDEST SWAP5 SWAP4 POP POP POP POP JUMP INVALID LOG2 PUSH5 0x6970667358 0x22 SLT KECCAK256 SWAP7 0xE1 DUP16 DUP8 0xC3 JUMPDEST GAS LOG4 DUP6 SMOD 0x2D BYTE SSTORE DUP11 SLT 0xD0 0xAC PUSH25 0xFFBC98E5F197E7A524221B7ECF4B64736F6C634300080A0033 "},"gasEstimates":{"creation":{"codeDepositCost":"318400","executionCost":"infinite","totalCost":"infinite"},"external":{"buyProductFromRetailStore(address,string)":"infinite"}},"methodIdentifiers":{"buyProductFromRetailStore(address,string)":"e38abb48"}},"storageLayout":{"storage":[{"astId":216,"contract":"Manufacturer.sol:RetailStore","label":"owner","offset":0,"slot":"0","type":"t_address"}],"types":{"t_address":{"encoding":"inplace","label":"address","numberOfBytes":"20"}}},"userdoc":{"kind":"user","methods":{},"version":1}}